:020000040800F2
:10000000880C00200D030008FF22000827200008AC
:10001000FD220008030500084D280008000000002C
:100020000000000000000000000000004D02000879
:100030000906000800000000A902000801230008CA
:1000400027030008270300082703000827030008E8
:1000500027030008270300082703000827030008D8
:100060002703000827030008270300085D05000890
:1000700027030008270300082703000827030008B8
:100080002703000869050008270300082703000864
:1000900005050008270300082703000827030008B8
:1000A0002703000827030008270300082703000888
:1000B0002703000827030008270300082703000878
:1000C0002703000827030008270300082703000868
:1000D0002703000827030008270300082703000858
:1000E0002703000827030008270300082703000848
:1000F0002703000827030008270300082703000838
:100100002703000827030008270300082703000827
:100110002703000827030008270300082703000817
:1001200027030008750500082703000827030008B7
:1001300027030008270300082703000827030008F7
:1001400027030008270300082703000827030008E7
:10015000270300088105000827030008412800083C
:1001600027030008270300082703000827030008C7
:1001700027030008270300082703000800000000E9
:1001800027030008270300082703000809260008A2
:100190002703000827030008270300082703000897
:1001A00000000000000000002703000800F002F833
:1001B00000F03CF80AA090E8000C82448344AAF1C5
:1001C0000107DA4501D100F031F8AFF2090EBAE8C3
:1001D0000F0013F0010F18BFFB1A43F0010318477B
:1001E0002829000048290000103A24BF78C878C1A7
:1001F000FAD8520724BF30C830C144BF04680C602D
:10020000704700000023002400250026103A28BF74
:1002100078C1FBD8520728BF30C148BF0B60704778
:100220001FB502F05BFC1FBD10B510BD00F02FF92B
:100230001146FFF7F5FF02F045FB00F04DF903B45E
:10024000FFF7F2FF03BC00F055F900002C4B1968D2
:100250000868B0E8F04F80F30988BFF36F8F4FF064
:10026000000080F311887047000000000848006813
:10027000006880F308884FF0000080F3148862B6AD
:1002800061B6BFF34F8FBFF36F8F00DF00BF00BFBA
:1002900008ED00E0DFF80C00016841F47001016036
:1002A000704700BF88ED00E0EFF30980BFF36F8F68
:1002B000134B1A681EF0100F08BF20ED108A20E9BA
:1002C000F04F106009B44FF0500080F31188BFF375
:1002D0004F8FBFF36F8F02F043FB4FF0000080F3AE
:1002E000118809BC19680868B0E8F04F1EF0100FBB
:1002F00008BFB0EC108A80F30988BFF36F8F704796
:1003000010000020EFF30580704700000948804787
:1003100009480047FEE7FEE7FEE7FEE7FEE7FEE7E7
:10032000FEE7FEE7FEE7FEE704480549054A064BFF
:1003300070470000AD230008AD01000888060020CA
:10034000880C0020880800208808002053EA020C4E
:1003500000F069802DE9F04B4FF00006002B1FBF25
:10036000B3FA83F503FA05F424FA05F65E4012BFEA
:100370001643B2FA82F502FA05F4C5F120051EBF54
:1003800022FA05FC44EA0C04203556EA044C4FEAF4
:10039000144418BF641C4FF000084FF0000990424D
:1003A00071EB030C39D3002919BFB1FA81F701FAB7
:1003B00007F6B0FA80F700FA07F6C7F120071EBF6C
:1003C00020FA07FC46EA0C062037B6FBF4FCA7EB44
:1003D0000507103F07F01F0BCBF120060CFA0BFBB3
:1003E0002CFA06F644BFB3460026202FA4BF5E4673
:1003F0004FF0000B5BEA060C08BF4FF0010B19EB46
:100400000B09ABFB027C48EB0608C01B06FB02CCC9
:100410000BFB03CC71EB0C01C1E70B4602464146D6
:100420004846BDE8F08B13B54FF000004FF00001D7
:10043000AFF30080BDE81C4070474FF0000200B5EC
:10044000134694469646203922BFA0E80C50A0E8F7
:100450000C50B1F12001BFF4F7AF090728BFA0E8A5
:100460000C5048BF0CC05DF804EB890028BF40F871
:10047000042B08BF704748BF20F8022B11F0804FB3
:1004800018BF00F8012B70477047704770477546DA
:1004900000F02CF8AE4605006946534620F00700F0
:1004A000854618B020B5FFF73FFFBDE820404FF06C
:1004B00000064FF000074FF000084FF0000B21F04E
:1004C0000701AC46ACE8C009ACE8C009ACE8C0091B
:1004D000ACE8C0098D46704710B50446AFF3008004
:1004E0002046BDE81040FFF7AABE00000048704754
:1004F0002806002001491820ABBEFEE726000200B6
:100500007047FEE7014800F05BB90000880000205A
:1005100001B50F4882B040F241110160002108226C
:100520008160C0E903120B48A1226B460270417042
:100530008170C1709DF8082002719DF809204271F8
:100540008171C17102460249034800F060F80EBD96
:10055000100600207E00002088000020014800F0E6
:10056000A5BB000028020020014800F09FBB00004E
:10057000C8010020014800F099BB0000880200205B
:10058000014800F093BB0000E80200200168182336
:10059000CAB2103AB2FBF3F2054B6FF30901032A1A
:1005A0009B5CC36500D9091D816508467047000042
:1005B000E62A000810B5014600208B698A6A4FF0D0
:1005C000C07453B1B3F5005F15D072B1012A0CD0DD
:1005D000022A0AD0032A09D104E01AB1012A06D05E
:1005E000022A03D1C96AC90100D5012010BDC96A18
:1005F000A142FAD010BD002AF7D0012AF2D0022A77
:10060000F3D0032AF3D010BD704772B6FEE7F0B501
:1006100090F820500468A468012D05D0022D03D065
:10062000416A41F4802153E014F0406F01D1E500AC
:100630004BD5C4F30164022C03D9416A41F4000193
:1006400046E00125A5401D608D684FF4C0739DB143
:10065000CE6835434E6845EAC605066803EB0417C5
:10066000F5514FF4C275076805EB04150E697E510C
:10067000097D012905D009E00E88CD6845EA465577
:10068000EBE701684E5946F480764E511179D2F865
:1006900005504FF4C67641EA0525016806EB0416BD
:1006A0008D511178D2F801204FF4C47541EA02212E
:1006B000026805EB04155151006803EB0411425820
:1006C00042F0010242500020F0BD416A41F40011A5
:1006D00041620120F0BD704730B590F82040012CF8
:1006E00005D0022C03D0416A41F480215DE004680A
:1006F000002955D02469A40754D04FF4D874056854
:1007000004EB01142D5915F00405956005682D5969
:100710004ED0ED08556005682C5904F00204D460F1
:100720004FF4DA74056804EB01142D5905F00F0538
:10073000156105682D59C5F30725956105682C5984
:10074000240C54614FF4DC72046802EB0112A458CB
:100750001C700468A458240A5C700468A458240C13
:100760009C700468A258120EDA704FF4DE720468AE
:1007700002EB0112A4581C710468A458240A5C718D
:100780000468A458240C9C710468A258120EDA71F3
:10079000006881B1016941F020010161002030BD94
:1007A000E468A8E7416A41F400114162012030BDCC
:1007B0006D0D1560AFE7C16841F02001C160EDE744
:1007C0002DE9F05F0546006800244669D0F80490E2
:1007D0008768D0F80CB0D0F810A0D0F81880F107D6
:1007E00048D0F90714D001218160B80703D5284605
:1007F00000F0FAF90CE0780702D54FF4006407E046
:10080000380702D54FF4805402E0284600F0EBF997
:10081000F80516D529684FF480708860B80503D5AF
:10082000284600F0E3F90CE0780502D544F40054C2
:1008300007E0380502D544F4804402E0284600F081
:10084000D4F9F80316D529684FF480308860B803CE
:1008500003D5284600F0CCF90CE0780302D544F427
:10086000004407E0380302D544F4803402E028460F
:1008700000F0BDF9300707D55FEACB6004D52968E1
:10088000102044F40074C86070074FF0080707D5C3
:100890005FEA0B7004D52868C760284600F058F955
:1008A000B00706D52868C068800702D0284600F047
:1008B00051F9700607D55FEACA6004D5296810208F
:1008C00044F480640861B00607D55FEA0A7004D575
:1008D00028680761284600F083F9F00606D52868E5
:1008E0000069800702D0284600F07BF9B00308D5E4
:1008F0005FEAC96005D5296810204860284600F0E5
:1009000071F9F00307D55FEA097004D528684760DC
:10091000284600F06EF9300446D55FEA497040D5AC
:10092000F00504D55FEAC87001D044F00104B005B9
:1009300004D55FEA887001D544F00204700504D53F
:100940005FEA487001D544F00404300529D518F059
:10095000700F26D008F07000402815D006DC102853
:1009600009D020280AD0302816D10AE050280ED00D
:10097000602811D10EE044F008040DE044F01004AA
:100980000AE044F0200407E044F0400404E044F0AE
:10099000800401E044F480742868816921F07001CA
:1009A0008161296804204860002C05D0686A2043D2
:1009B00068622846FFF78FFEBDE8F09F70B504001F
:1009C00003D094F8200010B104E0012070BD20464F
:1009D00000F082F82068016841F00101016000F038
:1009E000CBFB0546052604E000F0C6FB401B0A28A9
:1009F00011D820684068C007F6D02068016821F04F
:100A00000201016000F0B8FB05460BE000F0B4FB0A
:100A1000401B0A2806D9606A40F40030606284F8FE
:100A20002060D2E7206840688007EFD4207E01284C
:100A3000206801683DD021F080010160607E0128BE
:100A40002068016838D021F040010160A07E0128B3
:100A50002068016833D021F020010160E07E012888
:100A6000206801682ED041F010010160207F01282C
:100A70002068016829D021F008010160607F012809
:100A80002068016824D021F004010160D4E902014A
:100A90000843D4E90412114308436168491E08431E
:100AA0002168C86100206062012084F820000020D5
:100AB00070BD41F08001C0E741F04001C5E741F061
:100AC0002001CAE721F01001CFE741F00801D4E787
:100AD00041F00401D9E7000010B586B004461421A6
:100AE0006846FFF7AAFC17492068884227D11648B4
:100AF0000021026842F000720260006800F000709D
:100B0000059011481038026842F00802026000683F
:100B1000022200F0080005900320CDE90210CDE983
:100B20000002092004906946084800F00BFA0022F0
:100B30000521142000F092FB142000F081FB06B088
:100B400010BD00000064004040380240000C02402C
:100B50007047000010B588B01F4B6A460021FFF7B0
:100B6000BBFD009940F202231B48A1F202229942E8
:100B70000BD006DCA1F58071413922D0C0291ED1ED
:100B800003E0012A01D0022A19D10099124A491E14
:100B9000163AC9B21170114A01EB810302EB43010D
:100BA00032F813400C81048864BA22F8134042885A
:100BB00052BA4A80828852BA8A808079887108B095
:100BC00010BD0549427808390A7042884A808288F7
:100BD0008A80C088C880F2E776000020E8050020FF
:100BE000704770477047704770477047704770474D
:100BF000704770472DE9F0410446876D00F0BCFA5C
:100C0000064694F835000025022806D0802060654D
:100C100084F834500120BDE8F0812068016821F09B
:100C2000160101602068416921F080014161206C5A
:100C300008B9A06C20B12068016821F008010160AA
:100C40002068016821F0010101600CE000F094FAD5
:100C5000801B052807D920206065032084F8350013
:100C600084F83450D7E720680068C007EED194F8C4
:100C70005C103F208840B860012084F8350084F87B
:100C800034500020C7E790F83510022903D08021A6
:100C9000416501207047052180F835100068016822
:100CA00021F0010101600020704700002DE9F843A8
:100CB00004464FF00009CDF8009063484FF41651F8
:100CC000A56D0068B0FBF1F72E6894F85C10082061
:100CD00000FA01F131420FD021680A6852070BD5A2
:100CE0000A6822F004020A6094F85C108840A86048
:100CF000606D40F00100606594F85C104FF00108F1
:100D000008FA01F0304208D021684969090604D583
:100D1000A860606D40F00200606594F85C100420EB
:100D20008840304208D021680968890704D5A86046
:100D3000606D40F00400606594F85C1010208840FD
:100D4000304218D021680968090714D5A8602068C6
:100D50000168490304D50068000308D5A16C07E0C9
:100D60000168C90503D4016821F008010160216C04
:100D700009B12046884794F85C1020208840304212
:100D800031D021680968C9062DD5A86094F83500CE
:100D900005282068016806D0490347D5006800038C
:100DA0001DD4616C1CE021F01601016020684169CE
:100DB00021F080014161206C08B9A06C20B120684D
:100DC000016821F00801016094F85C103F20884020
:100DD000A86084F8358084F83490216D1FE0E16BC1
:100DE00009B120468847606D00282BD0606DC00790
:100DF00014D0052084F835002068016821F0010135
:100E000001600098401C0090B84203D82068006838
:100E1000C007F6D184F8358084F83490E16C00295D
:100E200010D001B02046BDE8F04308470168C9056D
:100E3000D5D4016821F01001016084F8358084F870
:100E40003490CCE7BDE8F8830C0000202DE9F04198
:100E5000044600F091F906465CB1022084F83500A2
:100E6000002584F834502068016821F001010160F8
:100E70000DE00120BDE8F08100F07EF9801B05281F
:100E800005D920206065032084F83500F2E720684A
:100E90000068C007F0D12268116820480140D4E9F9
:100EA00001031843D4E903363343184363691843F5
:100EB000A3691843E3691843236A18430843616A26
:100EC000042903D1D4E90B131943084310602068A7
:100ED0004069666A20F0070130460E430127042866
:100EE0000CD1A06A0643E06A40B12046FFF762FBDE
:100EF00020B14020606584F83570BAE7206846610B
:100F00002046FFF743FB94F85C203F21914081602D
:100F1000656584F835700020ACE700003F8010F074
:100F200070B5044600F028F90546601C02D004485C
:100F30000078044400F020F9401BA042FAD370BDB1
:100F4000000000202DE9F84FDFF8F8A1002201246D
:100F500003254FF00F090AF1040BAAF1040E00BF9C
:100F60000B6804FA02F63340B34270D10F7907F0F0
:100F70000307012F01D0022F16D187684FEA4208DC
:100F800005FA08FC27EA0C07D1F80CC00CFA08FC9B
:100F90004CEA070CC0F808C04768B7430E79C6F39F
:100FA000001696403E4346600E79F643B6070AD0D7
:100FB000C7684FEA420C05FA0CF6B7438E6806FA8A
:100FC0000CF63E43C6600E7906F00306022E10D1E1
:100FD000D60800EB8608D8F8206057074FEAD76C90
:100FE00009FA0CF7BE430F6907FA0CF73743C8F844
:100FF000207006684FEA420C05FA0CF7BE430F79E1
:1010000007F0030707FA0CF7374307604E6816F43A
:10101000403F1CD04C4E376847F4804737603668F5
:1010200022F0030706F480460096484E07EB060CB4
:10103000DCF8086897073F0F09FA07F826EA080660
:10104000DFF80C81404503D14FF0000841E072E029
:10105000DFF80081404502D14FF0010839E0DFF8A8
:10106000F880404502D14FF0020832E0DFF8EC8012
:10107000404502D14FF003082BE0DFF8E480404503
:1010800002D14FF0040824E0DFF8D880404502D1B7
:101090004FF005081DE0DFF8D080404502D14FF049
:1010A000060816E0DFF8C480404502D14FF007087B
:1010B0000FE0DFF8BC80404502D14FF0080808E09F
:1010C000DFF8B080404502D14FF0090801E04FF051
:1010D0000A0808FA07F848EA0608CCF80888DAF897
:1010E00000605746D1F804C09E435FEACC2C00D57F
:1010F0001E433E60DBF800605F46D1F804C09E43AB
:101100005FEA8C2C00D51E433E60DEF80060774617
:10111000D1F804C09E435FEA8C3C00D51E433E607C
:10112000084F083F3E68D1F804C09E435FEACC3CBC
:1011300000D51E433E60521C102AFFF411AFBDE8DB
:10114000F88F0000083C0140443802400030014064
:10115000000002400004024000080240000C02406F
:10116000001002400014024000180240001C02401F
:1011700000200240002402400148806870470000BF
:1011800000000020024881680278114481607047A5
:10119000000000200B4810B5016841F400710160A7
:1011A000016841F480610160016841F4807101606F
:1011B000032000F073F80F2000F006F800F024F888
:1011C000002010BD003C024070B50D4D04464FF4A8
:1011D0007A712878B1FBF0F00A490968B1FBF0F0A8
:1011E00000F010FB48B9102C07D200222146501EF7
:1011F00000F034F800206C6070BD012070BD00006C
:10120000000000200C0000200C4882B0016841F46E
:1012100080410160006800F4804000900748001F92
:10122000016841F0805101600068002200F08050A8
:1012300000900F21901E02B000F010B84438024018
:10124000002809DB00F01F020121914040098000C5
:1012500000F1E020C0F8001170470000F0B40E4B20
:101260001B680C46C3F30223C3F10705042D00D904
:101270000425191D072901D2002300E0DB1E0126E9
:1012800006FA05F1491E214099409E40761E1640FF
:101290003143F0BC01F0DBBA0CED00E0064900F090
:1012A000070208684FF6FF03184040EA0220034A8D
:1012B00010430860704700000CED00E00000FA05E4
:1012C0002DE9F0470E46050065D0DFF81481D8F807
:1012D0000000F7B200F00F00B04207D288F80070AB
:1012E000D8F8000000F00F00B04254D128683D4CFF
:1012F000810712D5400703D5206840F4E0502060F4
:101300002878000703D5206840F4604020602068FA
:10131000A96820F0F000084320602878C0072DD08D
:10132000304968680839012812D0022813D00328F0
:1013300011D00968890700292DDA216821F00301FD
:1013400001432160FFF718FF814641F2883A0EE021
:1013500009688903EFE709688901ECE7FFF70CFFEB
:10136000A0EB0901514502D90320BDE8F0872068B0
:10137000696800F00C00B0EB810FEFD1D8F80010D5
:10138000404601F00F01B14207D90770006800F034
:101390000F00B04201D00120E7E72878400705D5CB
:1013A0002068E96820F4E0500843206028780007AE
:1013B00006D52068296920F4604040EAC100206019
:1013C00000F038F82168084AC1F30311515CC840A5
:1013D0000649086006480068FFF7F6FE0020C4E7EB
:1013E000003C024008380240EE2A00080C000020B1
:1013F000040000200448054900680968044AC1F354
:101400008221515CC84070470C000020083802401F
:10141000FE2A00080448054900680968044AC1F327
:101420004231515CC84070470C000020083802402F
:10143000FE2A0008154810B5006810F00C02144888
:1014400013D01449042A0FD0082A0ED10F4C241FA0
:101450002268236802F03F025B0207D52068C0F3D0
:101460008810A0FB010106E0084610BD2168C1F309
:101470008811A1FB00010023FEF768FF2168C1F37A
:101480000141491C4900B0FBF1F010BD0838024091
:101490000024F400001BB7002DE9F84F04006ED0C3
:1014A0002078DFF84C93C007A9F104054AD009F170
:1014B00004000168C1F38101012908D00068C0F36C
:1014C000810002280AD1D9F80000400206D5286818
:1014D000800337D560680028E1D033E06068B0F55C
:1014E000803F10D0B0F5A02F286810D020F48030B5
:1014F0002860286820F4802028606068A8B1FFF781
:101500003BFE06460DE0286840F48030F4E740F4E6
:1015100080202860F7E700BFFFF72EFE801B6428BD
:1015200073D828688003F7D50CE0FFF725FE064640
:1015300005E000BFFFF720FE801B6428F0D8286874
:101540008003F7D42078DFF8AC8280074FF0000AE0
:101550003ED5A748001D016811F00C0F08D00068A7
:10156000C0F3810002280BD1D9F80000400207D453
:101570002868800716D5E068012800D112E033E121
:10158000E068B8B10120C8F80000FFF7F5FD064695
:1015900005E000BFFFF7F0FD801B0228C0D82868D7
:1015A0008007F7D52868216920F0F80040EAC100DB
:1015B00028600DE0C8F800A0FFF7DEFD064604E055
:1015C000FFF7DAFD801B02281FD828688007F7D4B0
:1015D0002078000722D5864F87486169703771B13E
:1015E00001210160FFF7C8FD064604E0FFF7C4FDD6
:1015F000801B022809D838688007F7D50EE0C0F8AC
:1016000000A0FFF7B9FD064605E082E0FFF7B4FD54
:10161000801B02287DD838688007F7D420784007DF
:1016200068D5DFF8CCB100270BF13C0BDBF80000EC
:10163000C0000BD4DBF8001041F08051CBF8001053
:10164000DBF80000012700F0805000906B4E3068FE
:10165000C00510D4306840F480703060FFF78CFD16
:10166000009005E0FFF788FD0099401A022850D845
:101670003068C005F6D55E4EA0686C3601280FD0E4
:101680000528306810D020F001003060306820F06C
:1016900004003060A068B8B1FFF76EFD00900FE065
:1016A000306840F00100F4E740F004003060F7E7F4
:1016B000FFF762FD0099411A41F28830814266D8F5
:1016C00030688007F4D50EE0FFF756FD009007E084
:1016D000FFF752FD0099411A41F28830814256D8F5
:1016E00030688007F4D42FB1DBF8001021F080516E
:1016F000CBF80010A069C8B33D49091D0968C1F3C2
:10170000810102294AD00228504607D0C8F860005B
:1017100000E03CE0FFF730FD04463BE04746C8F8F8
:101720006000FFF729FD064605E000BFFFF724FD36
:10173000801B02282BD828688001F7D4D4E9070140
:101740000843A16A2E4A490802EB0141626A41EA54
:101750008211084394F82C1040EA0161C9F8001086
:1017600001203866FFF708FD044606E03EE000BFB2
:10177000FFF702FD001B022809D828688001F7D571
:1017800034E000BFFFF7F8FC001B022802D9032059
:10179000BDE8F88F28688001F4D427E00128F7D04D
:1017A000D9F80000E26900F4800191421CD1226A5C
:1017B00000F03F01914217D147F6C071626A0140C3
:1017C000B1EB821F10D1A26A4FF0FF3300F4403119
:1017D00003EB5202B1EB024F06D194F82C1000F04B
:1017E0007060B0EB016F01D00120D1E70020CFE79E
:1017F0000438024000004742800E4742007000401B
:101800000000FFFF10B5401EB0F1807F01D3012022
:1018100010BD4FF0E02460610F21601701F017F850
:101820000020A06107202061002010BD10B590F8B5
:101830003C20012A22D0012280F83C20CA688C6812
:1018400022F4407222434C6822F4806222430C68E6
:1018500022F4006222430C6922F4805222434C6934
:1018600022F400522243C969002322F480420A4331
:1018700001684A6480F83C30002010BD022010BD91
:1018800070B590F83C20012A32D0012480F83C4009
:10189000022280F83D2003685A689D6822F0700695
:1018A0000A6832435A60134B02689A4214D0B2F16C
:1018B000804F11D0104B9A420ED0104B9A420BD051
:1018C0000F4B9A4208D00F4B9A4205D00E4B9A42CA
:1018D00002D00E4B9A4204D1496825F08003194387
:1018E000916080F83D40002180F83C10084670BDB2
:1018F000022070BD000001400004004000080040CC
:10190000000C00400004014000400140001800406D
:1019100010B586B0044614216846FEF78EFD236894
:10192000002117480222B3F1804F17D0154CA34273
:1019300012D1036843F480730360006800F4807080
:10194000059020200090CDE901210320CDE903106E
:1019500069460D48FFF7F6FA06B010BD036843F07C
:1019600001030360006800F0010005900F20009063
:10197000CDE901210120CDE9031069460348E9E7DB
:1019800030380240000401400020024000000240C4
:1019900070B5044690F83C0000260D4601280FD093
:1019A000012084F83C006AB1042A1DD0082A2FD0F7
:1019B0000C2A3FD00126002084F83C00304670BD40
:1019C000022070BD206800F05DFD2068816941F053
:1019D000080181612068816921F00401816120682A
:1019E00081692A69114311E0206800F07BFD2068BD
:1019F000816941F4006181612068816921F480611D
:101A00008161206881692A6941EA02218161D2E706
:101A1000206800F09DFD2068C16941F00801C161A6
:101A20002068C16921F00401C1612068C1692A6987
:101A3000114311E0206800F0BFFD2068C16941F446
:101A40000061C1612068C16921F48061C1612068C1
:101A5000C1692A6941EA0221C161ACE710B50400FD
:101A600003D094F83D0010B107E0012010BD002024
:101A700084F83C00204600F01FF8022084F83D0066
:101A8000211D206800F09AFC012084F8460084F8AB
:101A90003E0084F83F0084F8400084F8410084F858
:101AA000420084F8430084F8440084F8450084F838
:101AB0003D00002010BD000008B50068B0F1804F67
:101AC0000CD00B49884208D10A48016841F0020154
:101AD0000160006800F00200009008BD0548001F8A
:101AE000016841F001010160006800F00100F3E7C6
:101AF00000040140443802407047016C090702D5D8
:101B00000068016840687047F8B5016804460868D5
:101B1000CA684B6910F00F0F4FF0000559D003F061
:101B2000010602F49077374365D0C10705D0D1058F
:101B300003D5216C41F001012164410705D5D90786
:101B400003D0216C41F002012164810705D5D9073A
:101B500003D0216C41F004012164010707D502F094
:101B60002001314303D0216C41F008012164216C34
:101B700000293AD0800604D5900602D5204600F010
:101B800078FD20684069216CC0F38010090700D4FB
:101B900060B3204600F046FD20684069400621D52C
:101BA0002068143050E8001F21F0400140E8001286
:101BB000002AF5D1A06BA8B16C490165A06BFFF7B5
:101BC00062F8002811D0A06B016D01B0BDE8F040B3
:101BD000084783060FD593060DD52046BDE8F8408B
:101BE00000F047BD2046FFF788FFF8BD2046FFF70D
:101BF00084FF2564F8BD266B2023012E79D1C6060B
:101C000077D5D60675D508684868009048694006BB
:101C100040D5A16B086840680004000CEAD0A28D92
:101C20008242E7D9E085C869B0F5807F2DD0206871
:101C30000C3050E8001F21F4807140E80012002AA7
:101C4000F5D12068143050E8001F21F0010140E870
:101C50000012002AF5D12068143050E8001F21F04E
:101C6000400140E80012002AF5D184F83E30256397
:101C700020680C3050E8001F21F0100140E80012ED
:101C8000002AF5D1A06BFEF7B5FFA08DE18D401ABB
:101C900081B229E0A08DE18D401A81B2E08D00284B
:101CA000A8D00029A6D020680C3050E8002F22F4DC
:101CB000907240E80026002EF5D12068143050E8DC
:101CC000002F22F0010240E80026002EF5D184F812
:101CD0003E30256320680C3050E8002F22F01002BF
:101CE00040E80023002BF5D12046FFF705FFF8BDA3
:101CF000FFE705062BD5150629D594F83D002128C8
:101D0000F5D1A068B0F5805F01D12069B0B1206A3B
:101D1000411C2162216800784860E08C401E00046C
:101D2000000CE084E3D12068C16821F08001C1602B
:101D30002068C16841F04001C160D8E7206A00888E
:101D4000C0F308004860206A801C2062E5E7400676
:101D5000CDD55006CBD5CA68204622F04002CA60D5
:101D600084F83D3000F05EF9C1E700001526000858
:101D700070B5040004D094F83D00002510B106E0D1
:101D8000012070BD84F83C50204600F023F8242048
:101D900084F83D002068C16821F40051C1602046EC
:101DA00000F0C8FC2068016921F4904101612068BD
:101DB000416921F02A0141612068C16841F4005164
:101DC000C1602564202084F83D0084F83E00002096
:101DD00070BD00002DE9F04F87B00446142168461D
:101DE000FEF72BFBDFF87CC126685F480321022247
:101DF000082300254FF4807A4FF4003B4FF0206712
:101E00004FF48069664551D1574E1036D6F800C060
:101E10004CF0004CC6F800C0366806F00046059647
:101E2000066846F010060660006800F01000059095
:101E30008DE82600CDE9031369464C48FFF782F888
:101E40004C4E4B4806F1180C3060C6E90175C6E9E6
:101E5000035975618CE8200CB8464F4630467562D0
:101E6000FEF7F4FF08B1FEF7D0FBA663B463414E62
:101E70003F4860369038E6E802084020A1C680025C
:101E800046F81459B561C6E907503A4875626030A2
:101E9000FEF7DCFF08B1FEF7B8FB66630022052100
:101EA0005320B463FFF7DAF9532055E0DFF8C8C0D8
:101EB000664553D12C4E1436D6F800C04CF0200C99
:101EC000C6F800C0366806F020060596066846F09B
:101ED00040060660006800F040000590CDE903135D
:101EE0004FF484408DE8250069462448FFF72AF81E
:101EF000204E2348C03606F1180C3060C6E9017543
:101F0000C6E9035975618CE8200CB8464F46304647
:101F10007562FEF79BFF08B1FEF777FBA663B4631B
:101F20001748184E7830E6E802084020A1C6800223
:101F300046F81459B561C6E9075012487562FEF7B4
:101F400085FF08B1FEF761FB66630022052147208B
:101F5000B463FFF783F94720FFF772F907B0BDE8D4
:101F6000F08F0000007C004030380240001002403A
:101F7000A0600240C8010020001401400018024087
:101F800028640240E802002070B505460168214837
:101F9000814219D10023204C04E000BF03F11B0053
:101FA0003C2811DAE05C0D280BD1E01841780A29B1
:101FB00007D1817E0A2904D1C17E0D2901D100F00B
:101FC0006FFC5B1C3C2BE9DB14492868884220D15C
:101FD000114D0024403D285DA52817D128194278CD
:101FE0005A2A13D08378211D5E18222E0EDA2B4434
:101FF000595C5A290AD1022A02D0032A06D102E0EA
:1020000000F036FC02E0064900790870641C222CBE
:10201000E1DB70BD007C004084050020001401401D
:102020004C0000207047FEE70F4810B50D490160D5
:102030000321416000214FF410228160C0E90312A6
:102040004FF400124261017641768176C1760177C4
:102050004177FEF7B3FC002803D0BDE81040FEF73F
:10206000D4BA10BD0064004088000020194808B5AB
:10207000016841F400110160016801F40011009150
:10208000016841F4800101600068002200F48000D2
:10209000009005210B20FFF7E1F80B20FFF7D0F8A7
:1020A000002205211120FFF7D9F81120FFF7C8F809
:1020B000002205213920FFF7D1F83920FFF7C0F8B9
:1020C000002205214520FFF7C9F8BDE8084045205A
:1020D000FFF7B6B830380240194808B5016841F03A
:1020E00010010160016801F010010091016841F0E8
:1020F00040010160016801F040010091016841F078
:1021000001010160016801F001010091016841F0E5
:1021100008010160016801F008010091016841F4C3
:1021200080710160016801F480710091016841F0E3
:1021300080010160006800F08000009008BD000090
:102140003038024010B58AB0002407941C2168463C
:102150000894FEF772F923484FF080410160A721EF
:10216000C0E9011444F61F61C0E903148461FFF75C
:1021700075FC08B1FEF749FA079407A919480894B5
:10218000FFF77EFB08B1FEF740FA602000904FF4A5
:10219000FA60CDE901040022694612480494FFF771
:1021A000F7FB08B1FEF731FA042269460D48FFF744
:1021B000EFFB08B1FEF729FA082269460948FFF744
:1021C000E7FB08B1FEF721FA0C2269460548FFF744
:1021D000DFFB08B1FEF719FA0248FFF799FB0AB0D6
:1021E00010BD0000B000002010B592B000240F9484
:1021F0001C2108A81094FEF720F920216846FEF75C
:102200001CF921481F490160A721C0E9011444F6C7
:102210001F61C0E9031444618461FFF71FFC08B12A
:10222000FEF7F3F90F940FA917481094FFF728FB56
:1022300008B1FEF7EAF9602008904FF4FA60CDE9A2
:1022400009040B940C940D94002208A90E480E94D6
:10225000FFF79EFB08B1FEF7D8F900944FF4005049
:10226000CDE904400294019403946946064807941A
:10227000FFF7DCFA08B1FEF7C8F90348FFF748FB9F
:1022800012B010BD00040140F80000200C4810B549
:102290000A4901604FF4E1314160002181600C2264
:1022A000C160C0E904128161C161FFF761FD0028CE
:1022B00003D0BDE81040FEF7A8B910BD007C004077
:1022C000400100200C4810B50A4901604FF4E1318B
:1022D0004160002181600C22C160C0E9041281616B
:1022E000C161FFF745FD002803D0BDE81040FEF7AF
:1022F0008CB910BD0014014084010020FEE7FEE708
:1023000010B5FEF73FFF00F071FB012803D0BDE8D8
:10231000104000F055BB10BD30B593B03021684679
:10232000FEF78BF814210CA8FEF787F81D4800254E
:10233000016841F080510160006800F08050119008
:102340001948016841F4404101600068022400F42A
:102350004040119001200090000401908001CDE9DF
:10236000064006200890A820CDE9090404200B901F
:102370006846FFF791F808B172B6FEE70CA90F2086
:1023800081E831004FF4A0500F904FF4805010902E
:1023900005210CA8FEF794FF002801D072B6FEE7D5
:1023A00013B030BD40380240007000400248016860
:1023B00041F470010160704788ED00E0F0B50268FB
:1023C000254C264D264E274F274B4FF0804CA042E0
:1023D00009D0604507D0A84205D0B04203D0B8422A
:1023E00001D0984204D122F0700E4A6842EA0E02EF
:1023F000A0421BD0604519D0A84217D0B04215D0DA
:10240000B84213D0984211D0184DA8420ED0184DA2
:10241000A8420BD0174DA84208D0174DA84205D0AE
:10242000164DA84202D0164DA84203D122F44075A1
:10243000CA682A434D6922F080022A4302608A68F2
:10244000C2620A688262A04201D0984201D1096941
:10245000016301214161F0BD000001400004004022
:1024600000080040000C0040000401400040014012
:10247000004401400048014000180040001C00409A
:1024800000200040F0B5026A22F001020262036AF5
:1024900042688469124E24F073050C682C4323F0C3
:1024A00002058B682B430D4DA84201D0B04205D1E7
:1024B00023F00807CB683B4323F00403A84201D074
:1024C000B04205D14D6922F4407215438A692A430E
:1024D00042608461496841630362F0BD00000140CD
:1024E00000040140F0B5026A22F010020262026AA2
:1024F000436884690D6824F4E64444EA05248D6841
:1025000022F0200242EA05120F4D104EA84201D0DF
:10251000B04206D1CF6822F0800242EA071222F0D0
:102520004002A84201D0B04207D14D6923F4406374
:1025300043EA85038D6943EA850343608461496802
:1025400081630262F0BD0000000001400004014010
:10255000F0B5026A22F480720262026A4368C469BA
:1025600022F4007224F073050C68124E2C438D681F
:1025700042EA05220E4DA84201D0B04206D1CF68F2
:1025800022F4006242EA072222F48062A84201D0CB
:10259000B04207D14D6923F4405343EA05138D69D6
:1025A00043EA05134360C4614968C1630262F0BD38
:1025B000000001400004014030B5026A22F480525C
:1025C0000262046A4268C3690D6823F4E64343EA81
:1025D00005238D6824F4005444EA0534084DA842CC
:1025E00002D0084DA84204D14D6922F4804242EA4B
:1025F00085124260C36149680164046230BD000015
:1026000000000140000401400148FFF77DBA0000CE
:102610004001002010B5806B0021C185C184FFF707
:102620006CFA10BD01680C3151E8002F22F4907251
:1026300041E80023002BF5D10168143151E8002F47
:1026400022F0010241E80023002BF5D1016B0129A2
:1026500009D101680C3151E8002F22F0100241E845
:102660000023002BF5D1202180F83E1000210163CA
:10267000704708B590F83E10222901D0022008BD0D
:1026800082684FF480539A4201D1016921B1816A75
:102690009A421BD04AB10AE00268816A5268C2F3CA
:1026A00008020A80816A891C08E0026972B1026826
:1026B000526802F07F020A70816A491C8162C18DF2
:1026C000491E0904090CC18503D019E0026852684B
:1026D000F1E70168CA6822F02002CA600168CA688E
:1026E00022F48072CA6001684A6922F001024A61DC
:1026F000202180F83E10016B012903D0FFF744FC34
:10270000002008BD0021016301680C3151E8002F51
:1027100022F0100241E80023002BF5D101680A687D
:10272000D20602D50A6849680091818DFFF7E4F965
:10273000E6E7000070B5044600680169E26821F42C
:102740004051114301612169A068E2690843616950
:10275000114308432168CA6849F20C639A43024353
:10276000CA6020684169A26921F440711143416146
:1027700031492068884202D03049884202D1FEF7B0
:1027800049FE01E0FEF736FEE269002319216425C7
:102790003226B2F5004F626828D0A0FB0101930FEA
:1027A0009200FDF7D3FD0146B0FBF5F06FF0180283
:1027B000504301EB800006EB0010B0FBF5F000F099
:1027C000F002B1FBF5F002EB0012B1FBF5F06FF097
:1027D0001803584301EB800006EB0010B0FBF5F046
:1027E00000F00F0021681044886070BDA0FB01015B
:1027F00092185B41FDF7AAFD0146B0FBF5F002011E
:10280000B1FBF5F06FF01803584301EB800006EBC5
:10281000C000B0FBF5F000F0F80002EB4002B1FBA5
:10282000F5F0584301EB800006EBC000B0FBF5F07B
:1028300000F00700D6E7000000100140001401403E
:102840000148FFF761B9000084010020FEE7090795
:10285000090E002804DB00F1E02080F80014704726
:1028600000F00F0000F1E02080F8141D7047000018
:1028700010B50A4A017911704179517081799170CE
:10288000C179D1700021431854181B7A491C237157
:102890000429F8DBC068906010BD000038050020F6
:1028A000074950F8022F4A6342688A638268CA6304
:1028B000C2680A6402694A6440698864704700001B
:1028C00038050020FEF766FCFFF726FDFFF704FC45
:1028D000FFF7CCFBFFF7DAFCFFF7F4FCFFF7A4FBF4
:1028E000FFF730FCFFF780FC4FF4FA642046FDF759
:1028F0000FFE0120FEF714FBF8E700000749486BC4
:102900000068002805D0486BC068C06840688862CD
:1029100070474FF0FF3088627047000010000020C1
:102920000169436882689A60836842685A604A68AD
:10293000824201D182684A60002202610868401E1A
:1029400008600868704742684A6093688B609368C3
:102950005960916008610168491C0160704700007E
:10296000154A106B002802D00120D061704700206A
:10297000D0611069B0FA80F0C0F11F000F4900EB80
:10298000800051F8203073B101EB80004168496844
:10299000416000F10803994201D1496841604068F3
:1029A000C06810607047502080F31188BFF34F8FCC
:1029B000BFF36F8FFEE700001000002048030020E7
:1029C00010B5502080F31188BFF34F8FBFF36F8F86
:1029D00000F01AF818B104494FF080500860002048
:1029E00080F3118810BD000004ED00E00548416946
:1029F000002903D0006B18B10020704701207047F8
:102A000002207047100000202DE9F0470026314FCA
:102A1000386B002805D0B869401CB8613046BDE865
:102A2000F087F868451CFD609DB9786B006838B187
:102A3000502080F31188BFF34F8FBFF36F8FFEE7F5
:102A4000786BB96B7963B863386A401C3862FFF7FA
:102A500055FFB86ADFF8808085420FD34FF0010937
:102A6000786B006838B1786BC068C468606885426C
:102A700012D2B86202E04FF0FF30B8623868C06A24
:102A800000EB800058F82000012800D90126F869E1
:102A90000028C3D00126C1E7201DFFF741FFA06A2F
:102AA00018B104F11800FFF73BFFE16A3A6909FA2F
:102AB00001F01043386101EB810008EB8000211D1B
:102AC000FFF741FFE06A3968C96A8842C8D3012626
:102AD000C6E7000010000020480300204FF04070BF
:102AE000E1EE100A704700061016000610160000EE
:102AF00000000000000001020304060708090000AE
:102B00000000010203040000282B00080000002040
:102B100088000000E8010008B02B000888000020B1
:102B2000000C00000402000801000000100000007A
:102B3000000000000024F40000000000000000007D
:102B40000000000000000000000000000000000085
:102B50000000000000000000000000000000000075
:102B60000000000000000000000000000000000065
:102B70000000000000000000000000000000000055
:102B80004143545900000000000000000000000014
:102B90000000000000000000000000000000000035
:102BA0000000000000000000000000000000000025
:04000005080001AD41
:00000001FF
