:020000040800F2
:10000000184B002081020008E3290008852600081B
:10001000E129000853080008C93200080000000068
:10002000000000000000000000000000C101000806
:100030007D090008000000001D020008712B000867
:100040009B0200089B0200089B0200089B0200081C
:100050009B0200089B0200089B0200089B0200080C
:100060009B0200089B0200089B020008A9080008E8
:100070009B0200089B0200089B0200089B020008EC
:100080009B020008B50800089B0200089B020008BC
:10009000550800089B0200089B0200089B0200080C
:1000A0009B0200089B0200089B0200089B020008BC
:1000B0009B0200089B0200089B0200089B020008AC
:1000C0009B0200089B0200089B0200089B0200089C
:1000D0009B0200089B0200089B0200089B0200088C
:1000E0009B0200089B0200089B0200089B0200087C
:1000F0009B0200089B0200089B0200089B0200086C
:100100009B0200089B0200089B0200089B0200085B
:100110009B0200089B0200089B0200089B0200084B
:100120009B020008C10800089B0200089B0200080F
:100130009B0200089B0200089B0200089B0200082B
:100140009B0200089B0200089B0200089B0200081B
:100150009B020008CD0800089B020008BD32000881
:100160009B0200089B0200089B0200089B020008FB
:100170009B0200089B0200089B0200080000000090
:100180009B0200089B0200089B020008792E0008D1
:100190009B0200089B0200089B0200089B020008CB
:1001A00000000000000000009B020008DFF80CD0F7
:1001B00000F0CEFA00480047D13F0008184B00205D
:1001C0002C4B19680868B0E8F04F80F30988BFF33A
:1001D0006F8F4FF0000080F311887047000000001F
:1001E00008480068006880F308884FF0000080F33A
:1001F000148862B661B6BFF34F8FBFF36F8F00DF15
:1002000000BF00BF08ED00E0DFF80C00016841F41A
:1002100070010160704700BF88ED00E0EFF30980D6
:10022000BFF36F8F134B1A681EF0100F08BF20ED3D
:10023000108A20E9F04F106009B44FF0500080F3AD
:100240001188BFF34F8FBFF36F8F04F069FB4FF03E
:10025000000080F3118809BC19680868B0E8F04F05
:100260001EF0100F08BFB0EC108A80F30988BFF3AE
:100270006F8F704724000020EFF305807047000067
:100280000648804706480047FEE7FEE7FEE7FEE730
:10029000FEE7FEE7FEE7FEE7FEE7FEE71D2C0008AF
:1002A000AD0100082DE9F05F0546002092469B460F
:1002B00088460646814640241BE02846414647467C
:1002C000224600F07CF853465A46C01A914110D39A
:1002D00011461846224600F063F82D1A67EB010814
:1002E0004F4622460120002100F05AF817EB000982
:1002F0004E41201EA4F10104DFDC484631462A4667
:100300004346BDE8F09F40EA01039B0703D009E0A4
:1003100008C9121F08C0042AFAD203E011F8013BF1
:1003200000F8013B521EF9D27047D2B201E000F84A
:10033000012B491EFBD270470022F6E710B5134689
:100340000A4604461946FFF7F0FF204610BD00F0AC
:10035000004230F000400AD0C10D01F56071C0F3D9
:10036000160042EA0151C2084007114370470020BD
:100370000146704730B50B4601460020202201247B
:1003800009E021FA02F59D4205D303FA02F5491B63
:1003900004FA02F52844151EA2F10102F1DC30BD79
:1003A000202A04DB203A00FA02F100207047914035
:1003B000C2F1200320FA03F3194390407047202A2A
:1003C00004DB203A21FA02F00021704721FA02F3FF
:1003D000D040C2F1200291400843194670472DE9F0
:1003E000FE4F804681EA0300C00F0C46009021F0CA
:1003F000004123F00045B8EB0200A94105D2404678
:10040000214690461C460B46024623F0004010430E
:1004100047D0270DC7F30A00C3F30A510290401AD0
:10042000019040286BDAC3F3130040F4801B00985E
:10043000924620B10023D2EB030A63EB0B0B019829
:100440005946C0F140025046FFF7AAFF06460D4646
:1004500050465946019A00F08DF910EB08006141B1
:10046000002487EA115284EAE7731A4340D0009AC5
:1004700062B3019A012A4FEA075215DC001B61EBB7
:1004800002014FF0004202EA0752CDE90042001C8F
:1004900041F5801132462B4600F08DF903B0BDE8DE
:1004A000F08F40462146F9E7001B61EB0201001C7A
:1004B00041F5801300185B412018A2F5001747EBA7
:1004C000030140EAD570B6196D4111E06D084FEA9D
:1004D000360645EAC0754FEA0752001B61EB020180
:1004E000001C41F5801149084FEA300000195141C4
:1004F00032462B4603B0BDE8F04F00F04DB90098EE
:10050000012240000023D0EB020263EBE07300986D
:1005100021464FEAE074B8EB000061EB0401E9E723
:1005200083F000435BE781F0004158E72DE9FE4F7F
:1005300081EA030404F0004421F0004100944FF0EC
:10054000000B23F0004350EA01045ED052EA03049A
:100550005BD0C3F30A54C1F30A552C44A4F2F3341C
:100560000194A0FB0254C1F3130141F48011C3F3C1
:10057000130343F4801301FB024400FB034E840A7F
:10058000970A44EA815447EA8357A4FB0768029517
:100590008D0A05FB07854FEA932C04FB0C542705B5
:1005A000029D4FEA065847EA1637B5EB08056EEB91
:1005B000070C870E920E47EA811742EA8312A7FBC7
:1005C0000201B6EB0B0164EB00042B0D43EA0C3384
:1005D0005E1844EB1C50DA465146E7FB0201C5F3B6
:1005E00013044FEA0B3343EA14534FEA0432019CDD
:1005F00043EA0603A4F10C040294009CCDE900B484
:1006000000F0D9F803B0BDE8F08F00200146F9E70B
:100610002DE9F04D81EA030404F0004B21F0004580
:1006200014464FF0000A23F0004150EA050220D0A2
:1006300054EA01021DD0C5F30A570246C5F313035D
:10064000C1F31300C1F30A5640F4801543F480133C
:10065000A7EB0608101BD64608F2FD3873EB050021
:1006600002D308F1010801E092185B41B8F1000FD4
:1006700003DA00200146BDE8F08D00204FF4801120
:10068000064684460EE0171B73EB050705D3121BC5
:1006900063EB050306434CEA010C49084FEA3000BE
:1006A00092185B4150EA0107EDD152EA030012D0E3
:1006B00082EA040083EA0501084305D0101BAB4120
:1006C00006D20122002306E000224FF0004302E0A0
:1006D0006FF0010253101AEB06004CEB085110EBBF
:1006E0000A0041EB0B01BDE8F04D00F055B8C1F335
:1006F0000A52C1F3130140F2FF3341F480119A42D0
:1007000002DA00200146704740F233439A42A2F2D7
:10071000334202DC5242FFF752BEFFF741BE0000F7
:1007200030B5041E71F1000404DB4FF00044404278
:1007300064EB0101141E73F1000405DB1C464FF04D
:100740000043524263EB0403994208BF904230BD1C
:10075000064C074D06E0E06840F0010394E807000E
:1007600098471034AC42F6D3FFF724FDDC4D000867
:10077000FC4D0008202A06DBCB17203A41FA02F094
:1007800043EAE07306E041FA02F3D040C2F12002EE
:10079000914008431946704710B5141E73F10004C8
:1007A00008DA401C41F1000192185B411A4301D163
:1007B00020F0010010BD2DE9F04D92469B4611B18D
:1007C000B1FA81F202E0B0FA80F220329046FFF7EF
:1007D000E7FD04460F4640EA0A0041EA0B01534692
:1007E0005A46084313D0114653EA010019D0C8F104
:1007F00040025046FFF7E3FD05460E465046594677
:100800004246FFF7CDFD084305D0012004E0204615
:100810003946BDE8F08D0020054346EAE0762C43DA
:1008200037430A986305E40AA0EB08000022FD0A9A
:1008300044EA47540A3002D500200146E9E70105A1
:1008400010196941DDE9084500196941BDE8F04D1D
:10085000A2E7FEE7014800F006BA000018040020F5
:1008600038B50E4C4FF4007525600025A560E56095
:10087000082525610A4C050A25706070080AA070D9
:10088000E170100A20716271180AA071E3716B4661
:1008900022460249034800F086F838BD0047002090
:1008A000BA00002018040020014800F07DBC0000C0
:1008B000B8050020014800F077BC00005805002072
:1008C000014800F071BC000018060020014800F04B
:1008D0006BBC00007806002001681823CAB2103AE9
:1008E000B2FBF3F2054B6FF30901032A9B5CC3656E
:1008F00000D9091D81650846704700008C4D00082D
:1009000010B5014600208B698A6A4FF0C07453B15C
:10091000B3F5005F15D072B1012A0CD0022A0AD0BB
:10092000032A09D104E01AB1012A06D0022A03D110
:10093000C96AC90100D5012010BDC96AA142FAD017
:1009400010BD002AF7D0012AF2D0022AF3D0032AE0
:10095000F3D010BD30B50468256825F480252560E6
:10096000046863608368402B036803D09960006863
:10097000C26030BD9A600068C16030BD704772B619
:10098000FEE790F82020012A07D0022A05D0416A0C
:1009900041F48021416201207047006842690A43A6
:1009A000426100207047F0B590F820500468A468B8
:1009B000012D05D0022D03D0416A41F4802153E07E
:1009C00014F0406F01D1E5004BD5C4F30164022C53
:1009D00003D9416A41F4000146E00125A5401D60AC
:1009E0008D684FF4C0739DB1CE6835434E6845EABB
:1009F000C605066803EB0417F5514FF4C275076886
:100A000005EB04150E697E51097D012905D009E029
:100A10000E88CD6845EA4655EBE701684E5946F425
:100A200080764E511179D2F805504FF4C67641EADE
:100A30000525016806EB04168D511178D2F80120C6
:100A40004FF4C47541EA0221026805EB04155151C7
:100A5000006803EB0411425842F0010242500020AA
:100A6000F0BD416A41F4001141620120F0BD000077
:100A700010B590F82020012A07D0022A05D0416A3B
:100A800041F480214162012010BD3B48D0F8002292
:100A900042F00102C0F80022D0F8002222F47C5279
:100AA000C0F80022D0F800224B6A42EA0322C0F8C4
:100AB00000220A7D02F01F0301229A40D0F81C3266
:100AC0009343C0F81C32CB69B3B9D0F80C329343CE
:100AD000C0F80C328C894B6864F31F434C6900EBFF
:100AE000C404C4F840320C890B6864F31F434C699A
:100AF00000EBC404C4F84432CB69012B16D1D0F802
:100B00000C321343C0F80C320C884B6864F31F435B
:100B10004C6900EBC404C4F840320C89CB6864F320
:100B20001F434C6900EBC404C4F844328B69002BAA
:100B3000D0F804320ED01343C0F804320B69002BF6
:100B4000D0F8143208D01343C0F81432096A0129CE
:100B500004D008E09343EFE79343F5E7D0F81C1285
:100B60001143C0F81C12D0F8001221F00101C0F8A6
:100B70000012002010BD000000640040704730B536
:100B800090F82040012C05D0022C03D0416A41F49A
:100B900080215DE00468002955D02469A40754D061
:100BA0004FF4D874056804EB01142D5915F00405B1
:100BB000956005682D594ED0ED08556005682C5993
:100BC00004F00204D4604FF4DA74056804EB0114F5
:100BD0002D5905F00F05156105682D59C5F3072539
:100BE000956105682C59240C54614FF4DC7204683B
:100BF00002EB0112A4581C700468A458240A5C700B
:100C00000468A458240C9C700468A258120EDA7070
:100C10004FF4DE72046802EB0112A4581C710468E0
:100C2000A458240A5C710468A458240C9C710468BC
:100C3000A258120EDA71006881B1016941F02001F9
:100C40000161002030BDE468A8E7416A41F4001169
:100C50004162012030BD6D0D1560AFE7C16841F004
:100C60002001C160EDE72DE9F05F05460068002432
:100C70004669D0F804908768D0F80CB0D0F810A07E
:100C8000D0F81880F10748D0F90714D0012181600D
:100C9000B80703D5284600F026FA0CE0780702D5FD
:100CA0004FF4006407E0380702D54FF4805402E0A7
:100CB000284600F017FAF80516D529684FF4807019
:100CC0008860B80503D5284600F00FFA0CE07805D7
:100CD00002D544F4005407E0380502D544F48044BA
:100CE00002E0284600F000FAF80316D529684FF410
:100CF00080308860B80303D5284600F0F8F90CE08E
:100D0000780302D544F4004407E0380302D544F4E4
:100D1000803402E0284600F0E9F9300707D55FEAA1
:100D2000CB6004D52968102044F40074C8607007B3
:100D30004FF0080707D55FEA0B7004D52868C76035
:100D4000284600F057F9B00706D52868C068800724
:100D500002D0284600F050F9700607D55FEACA6055
:100D600004D52968102044F480640861B00607D5D2
:100D70005FEA0A7004D528680761284600F082F906
:100D8000F00606D528680069800702D0284600F0E2
:100D90007AF9B00308D55FEAC96005D52968102043
:100DA0004860284600F070F9F00307D55FEA097043
:100DB00004D528684760284600F09AF9300446D5E3
:100DC0005FEA497040D5F00504D55FEAC87001D0EC
:100DD00044F00104B00504D55FEA887001D544F001
:100DE0000204700504D55FEA487001D544F004049C
:100DF000300529D518F0700F26D008F07000402873
:100E000015D006DC102809D020280AD0302816D1A9
:100E10000AE050280ED0602811D10EE044F00804FA
:100E20000DE044F010040AE044F0200407E044F030
:100E3000400404E044F0800401E044F48074286835
:100E4000816921F070018161296804204860002CCB
:100E500005D0686A204368622846FFF78FFEBDE828
:100E6000F09F70B5040003D094F8200010B104E0A6
:100E7000012070BD204600F081F82068016841F033
:100E80000101016000F034FC0546052604E000F095
:100E90002FFC401B0A2811D820684068C007F6D0F4
:100EA0002068016821F00201016000F021FC054684
:100EB0000BE000F01DFC401B0A2806D9606A40F4D4
:100EC0000030606284F82060D2E7206840688007C4
:100ED000EFD4207E0128206801683DD021F08001F8
:100EE0000160607E01282068016838D021F040014F
:100EF0000160A07E01282068016833D021F0200124
:100F00000160E07E0128206801682ED041F01001C8
:100F10000160207F01282068016829D021F00801A4
:100F20000160607F01282068016824D021F004015D
:100F30000160D4E902010843D4E9041211430843D3
:100F40006168491E08432168C86100206062012071
:100F500084F82000002070BD41F08001C0E741F01E
:100F60004001C5E741F02001CAE721F01001CFE7B9
:100F700041F00801D4E741F00401D9E710B586B08B
:100F8000044614216846FFF7D7F9174920688842BC
:100F900027D116480021026842F000720260006802
:100FA00000F00070059011481038026842F0080205
:100FB00002600068022200F0080005900320CDE9DD
:100FC0000210CDE90002092004906946084800F0AB
:100FD0006FFA00220521142000F0FCFB142000F021
:100FE000EBFB06B010BD000000640040403802403A
:100FF000000C02407047000010B588B01F4B6A46D5
:101000000021FFF7BCFD009940F202231B48A1F22A
:10101000022299420BD006DCA1F58071413922D021
:10102000C0291ED103E0012A01D0022A19D100995A
:10103000124A491E163AC9B21170114A01EB8103D6
:1010400002EB430132F813400C81048864BA22F8A1
:101050001340428852BA4A80828852BA8A80807984
:10106000887108B010BD0549427808390A70428875
:101070004A8082888A80C088C880F2E7B200002057
:10108000D8460020704770477047000070B504468E
:1010900090F82000012804D0606A40F400206062CB
:1010A00018E0022084F820002068016821F0010186
:1010B000016000F01DFB05460EE000BF00F018FBCC
:1010C000401B0A2808D9606A40F40030606205209D
:1010D00084F82000012070BD20684068C007EDD171
:1010E000606270BD704770477047704770477047C7
:1010F00070472DE9F0410446876D00F0F9FA064685
:1011000094F835000025022806D08020606584F818
:1011100034500120BDE8F0812068016821F01601FB
:1011200001602068416921F080014161206C08B9AB
:10113000A06C20B12068016821F0080101602068DE
:10114000016821F0010101600CE000F0D1FA801B80
:10115000052807D920206065032084F8350084F82D
:101160003450D7E720680068C007EED194F85C10CF
:101170003F208840B860012084F8350084F834505E
:101180000020C7E790F83510022903D0802141657F
:1011900001207047052180F835100068016821F0B2
:1011A00001010160002070472DE9F84304464FF02B
:1011B0000009CDF8009063484FF41651A56D006802
:1011C000B0FBF1F72E6894F85C10082000FA01F1EA
:1011D00031420FD021680A6852070BD50A6822F005
:1011E00004020A6094F85C108840A860606D40F0CA
:1011F0000100606594F85C104FF0010808FA01F0F6
:10120000304208D021684969090604D5A860606D9C
:1012100040F00200606594F85C1004208840304281
:1012200008D021680968890704D5A860606D40F07E
:101230000400606594F85C1010208840304218D09B
:1012400021680968090714D5A86020680168490366
:1012500004D50068000308D5A16C07E00168C90542
:1012600003D4016821F008010160216C09B1204616
:10127000884794F85C1020208840304231D02168A3
:101280000968C9062DD5A86094F83500052820689E
:10129000016806D0490347D5006800031DD4616C7E
:1012A0001CE021F0160101602068416921F08001F5
:1012B0004161206C08B9A06C20B12068016821F060
:1012C0000801016094F85C103F208840A86084F811
:1012D000358084F83490216D1FE0E16B09B1204620
:1012E0008847606D00282BD0606DC00714D00520A2
:1012F00084F835002068016821F001010160009840
:10130000401C0090B84203D820680068C007F6D19E
:1013100084F8358084F83490E16C002910D001B055
:101320002046BDE8F04308470168C905D5D40168E7
:1013300021F01001016084F8358084F83490CCE706
:10134000BDE8F883200000202DE9F041044600F0BC
:10135000CFF906465CB1022084F83500002584F8F8
:1013600034502068016821F0010101600DE0012086
:10137000BDE8F08100F0BCF9801B052805D92020CC
:101380006065032084F83500F2E720680068C00734
:10139000F0D12268116820480140D4E901031843C4
:1013A000D4E903363343184363691843A3691843E8
:1013B000E3691843236A18430843616A042903D187
:1013C000D4E90B1319430843106020684069666A2A
:1013D00020F0070130460E43012704280CD1A06AF3
:1013E0000643E06A40B12046FFF78AFA20B1402068
:1013F000606584F83570BAE7206846612046FFF7DB
:101400006BFA94F85C203F2191408160656584F817
:1014100035700020ACE700003F8010F02DE9F0416E
:101420000446866D90F83400002501280DD0012077
:1014300084F8340094F835700020012F07D084F828
:10144000340002252846BDE8F0810220FBE7022790
:1014500084F8357060652046FFF77CFA94F85C10DC
:101460003F208840B0602068016841F016010160AB
:10147000206C20B12068016841F0080101602068FB
:10148000016841F001010160DCE7000070B504462D
:1014900000F02EF90546601C02D004480078044490
:1014A00000F026F9401BA042FAD370BD14000020C2
:1014B0002DE9F84FDFF8F8A10022012403254FF0B1
:1014C0000F090AF1040BAAF1040E00BF0B6804FA1D
:1014D00002F63340B34270D10F7907F00307012FB2
:1014E00001D0022F16D187684FEA420805FA08FC9E
:1014F00027EA0C07D1F80CC00CFA08FC4CEA070CE0
:10150000C0F808C04768B7430E79C6F30016964086
:101510003E4346600E79F643B6070AD0C7684FEAE5
:10152000420C05FA0CF6B7438E6806FA0CF63E43F9
:10153000C6600E7906F00306022E10D1D60800EB25
:101540008608D8F8206057074FEAD76C09FA0CF7DD
:10155000BE430F6907FA0CF73743C8F820700668D6
:101560004FEA420C05FA0CF7BE430F7907F0030768
:1015700007FA0CF7374307604E6816F4403F1CD05B
:101580004C4E376847F480473760366822F00307CF
:1015900006F480460096484E07EB060CDCF8086817
:1015A00097073F0F09FA07F826EA0806DFF80C81CB
:1015B000404503D14FF0000841E072E0DFF80081C0
:1015C000404502D14FF0010839E0DFF8F88040458E
:1015D00002D14FF0020832E0DFF8EC80404502D142
:1015E0004FF003082BE0DFF8E480404502D14FF0D4
:1015F000040824E0DFF8D880404502D14FF0050808
:101600001DE0DFF8D080404502D14FF0060816E01B
:10161000DFF8C480404502D14FF007080FE0DFF843
:10162000BC80404502D14FF0080808E0DFF8B080E8
:10163000404502D14FF0090801E04FF00A0808FACE
:1016400007F848EA0608CCF80888DAF80060574638
:10165000D1F804C09E435FEACC2C00D51E433E6007
:10166000DBF800605F46D1F804C09E435FEA8C2C33
:1016700000D51E433E60DEF800607746D1F804C016
:101680009E435FEA8C3C00D51E433E60084F083FF6
:101690003E68D1F804C09E435FEACC3C00D51E43AF
:1016A0003E60521C102AFFF411AFBDE8F88F000015
:1016B000083C014044380240003001400000024034
:1016C0000004024000080240000C024000100240EA
:1016D0000014024000180240001C0240002002409A
:1016E000002402400AB1816170470904FBE7000051
:1016F000014880687047000014000020024881689B
:101700000278114481607047140000200B4810B526
:10171000016841F400710160016841F48061016079
:10172000016841F480710160032000F073F80F201C
:1017300000F006F800F024F8002010BD003C024044
:1017400070B50D4D04464FF47A712878B1FBF0F076
:101750000A490968B1FBF0F000F010FB48B9102C01
:1017600007D200222146501E00F034F800206C60A1
:1017700070BD012070BD000014000020200000207A
:101780000C4882B0016841F480410160006800F4B7
:10179000804000900748001F016841F080510160BF
:1017A0000068002200F0805000900F21901E02B0CF
:1017B00000F010B844380240002809DB00F01F0296
:1017C000012191404009800000F1E020C0F80011A3
:1017D00070470000F0B40E4B1B680C46C3F30223A5
:1017E000C3F10705042D00D90425191D072901D2CD
:1017F000002300E0DB1E012606FA05F1491E214008
:1018000099409E40761E16403143F0BC01F070BDF9
:101810000CED00E0064900F0070208684FF6FF03F0
:10182000184040EA0220034A104308607047000055
:101830000CED00E00000FA052DE9F0470E4605002A
:1018400065D0DFF81481D8F80000F7B200F00F007F
:10185000B04207D288F80070D8F8000000F00F00FE
:10186000B04254D128683D4C810712D5400703D5BA
:10187000206840F4E05020602878000703D52068F5
:1018800040F4604020602068A96820F0F000084320
:1018900020602878C0072DD03049686808390128B1
:1018A00012D0022813D0032811D009688907002913
:1018B0002DDA216821F0030101432160FFF718FFB1
:1018C000814641F2883A0EE009688903EFE709682A
:1018D0008901ECE7FFF70CFFA0EB0901514502D9A4
:1018E0000320BDE8F0872068696800F00C00B0EBC9
:1018F000810FEFD1D8F80010404601F00F01B1423E
:1019000007D90770006800F00F00B04201D0012035
:10191000E7E72878400705D52068E96820F4E0501B
:10192000084320602878000706D52068296920F43C
:10193000604040EAC100206000F038F82168084AA1
:10194000C1F30311515CC8400649086006480068AD
:10195000FFF7F6FE0020C4E7003C024008380240D2
:10196000944D00082000002018000020044805497C
:1019700000680968044AC1F38221515CC84070477D
:101980002000002008380240A44D00080448054902
:1019900000680968044AC1F34231515CC84070478D
:1019A0002000002008380240A44D0008154810B55A
:1019B000006810F00C02144813D01449042A0FD008
:1019C000082A0ED10F4C241F2268236802F03F0220
:1019D0005B0207D52068C0F38810A0FB010106E078
:1019E000084610BD2168C1F38811A1FB0001002346
:1019F000FEF758FC2168C1F30141491C4900B0FBC6
:101A0000F1F010BD083802400024F400001BB700BC
:101A10002DE9F84F04006ED02078DFF84C93C00712
:101A2000A9F104054AD009F104000168C1F381015C
:101A3000012908D00068C0F3810002280AD1D9F832
:101A40000000400206D52868800337D5606800286A
:101A5000E1D033E06068B0F5803F10D0B0F5A02F42
:101A6000286810D020F480302860286820F4802076
:101A700028606068A8B1FFF73BFE06460DE02868C5
:101A800040F48030F4E740F480202860F7E700BF9E
:101A9000FFF72EFE801B642873D828688003F7D5D3
:101AA0000CE0FFF725FE064605E000BFFFF720FE2D
:101AB000801B6428F0D828688003F7D42078DFF8EA
:101AC000AC8280074FF0000A3ED5A748001D016890
:101AD00011F00C0F08D00068C0F3810002280BD170
:101AE000D9F80000400207D42868800716D5E068BE
:101AF000012800D112E033E1E068B8B10120C8F854
:101B00000000FFF7F5FD064605E000BFFFF7F0FD1A
:101B1000801B0228C0D828688007F7D5286821696B
:101B200020F0F80040EAC10028600DE0C8F800A0ED
:101B3000FFF7DEFD064604E0FFF7DAFD801B022812
:101B40001FD828688007F7D42078000722D5864F51
:101B500087486169703771B101210160FFF7C8FDE5
:101B6000064604E0FFF7C4FD801B022809D8386848
:101B70008007F7D50EE0C0F800A0FFF7B9FD0646D4
:101B800005E082E0FFF7B4FD801B02287DD83868AD
:101B90008007F7D42078400768D5DFF8CCB100275C
:101BA0000BF13C0BDBF80000C0000BD4DBF800109D
:101BB00041F08051CBF80010DBF80000012700F065
:101BC000805000906B4E3068C00510D4306840F4EF
:101BD00080703060FFF78CFD009005E0FFF788FD16
:101BE0000099401A022850D83068C005F6D55E4EDC
:101BF000A0686C3601280FD00528306810D020F07E
:101C000001003060306820F004003060A068B8B196
:101C1000FFF76EFD00900FE0306840F00100F4E740
:101C200040F004003060F7E7FFF762FD0099411AC9
:101C300041F28830814266D830688007F4D50EE0E2
:101C4000FFF756FD009007E0FFF752FD0099411A9B
:101C500041F28830814256D830688007F4D42FB1E1
:101C6000DBF8001021F08051CBF80010A069C8B358
:101C70003D49091D0968C1F3810102294AD00228A2
:101C8000504607D0C8F8600000E03CE0FFF730FDA8
:101C900004463BE04746C8F86000FFF729FD0646CA
:101CA00005E000BFFFF724FD801B02282BD8286821
:101CB0008001F7D4D4E907010843A16A2E4A4908F4
:101CC00002EB0141626A41EA8211084394F82C1048
:101CD00040EA0161C9F8001001203866FFF708FDED
:101CE000044606E03EE000BFFFF702FD001B0228AD
:101CF00009D828688001F7D534E000BFFFF7F8FC69
:101D0000001B022802D90320BDE8F88F2868800153
:101D1000F4D427E00128F7D0D9F80000E26900F4F4
:101D2000800191421CD1226A00F03F01914217D1FB
:101D300047F6C071626A0140B1EB821F10D1A26AFE
:101D40004FF0FF3300F4403103EB5202B1EB024F8E
:101D500006D194F82C1000F07060B0EB016F01D048
:101D60000120D1E70020CFE70438024000004742BD
:101D7000800E4742007000400000FFFF10B5401E7B
:101D8000B0F1807F01D3012010BD4FF0E0246061ED
:101D90000F21601701F0ACFA0020A061072020613C
:101DA000002010BD10B590F83C20012A22D001225D
:101DB00080F83C20CA688C6822F4407222434C6848
:101DC00022F4806222430C6822F4006222430C69F0
:101DD00022F4805222434C6922F400522243C96902
:101DE000002322F480420A4301684A6480F83C30B0
:101DF000002010BD022010BD70B590F83C20012AD3
:101E000032D0012480F83C40022280F83D20036853
:101E10005A689D6822F070060A6832435A60134B74
:101E200002689A4214D0B2F1804F11D0104B9A42FE
:101E30000ED0104B9A420BD00F4B9A4208D00F4B4A
:101E40009A4205D00E4B9A4202D00E4B9A4204D1D0
:101E5000496825F080031943916080F83D400021D6
:101E600080F83C10084670BD022070BD00000140A3
:101E70000004004000080040000C00400004014045
:101E8000004001400018004010B586B004461421FF
:101E90006846FEF751FA2368002117480222B3F181
:101EA000804F17D0154CA34212D1036843F48073BE
:101EB0000360006800F48070059020200090CDE958
:101EC00001210320CDE9031069460D48FFF7F0FA20
:101ED00006B010BD036843F001030360006800F022
:101EE000010005900F200090CDE901210120CDE9EE
:101EF000031069460348E9E7303802400004014016
:101F0000002002400000024070B5044690F83C00FA
:101F100000260D4601280FD0012084F83C006AB14C
:101F2000042A1DD0082A2FD00C2A3FD001260020D9
:101F300084F83C00304670BD022070BD206800F07F
:101F4000D9FE2068816941F00801816120688169BA
:101F500021F004018161206881692A69114311E03F
:101F6000206800F0F7FE2068816941F4006181611A
:101F70002068816921F480618161206881692A6912
:101F800041EA02218161D2E7206800F019FF206850
:101F9000C16941F00801C1612068C16921F00401F3
:101FA000C1612068C1692A69114311E0206800F00D
:101FB0003BFF2068C16941F40061C1612068C169CB
:101FC00021F48061C1612068C1692A6941EA022166
:101FD000C161ACE710B5040003D094F83D0010B126
:101FE00007E0012010BD002084F83C00204600F0EE
:101FF0001FF8022084F83D00211D206800F016FE25
:10200000012084F8460084F83E0084F83F0084F8FC
:10201000400084F8410084F8420084F8430084F8CA
:10202000440084F8450084F83D00002010BD000005
:1020300008B50068B0F1804F0CD00B49884208D138
:102040000A48016841F002010160006800F00200E6
:10205000009008BD0548001F016841F001010160C2
:10206000006800F00100F3E700040140443802403A
:102070007047016C090702D5006801684068704725
:10208000F8B5016804460868CA684B6910F00F0F7C
:102090004FF0000559D003F0010602F49077374362
:1020A00065D0C10705D0D10503D5216C41F00101F0
:1020B0002164410705D5D90703D0216C41F0020105
:1020C0002164810705D5D90703D0216C41F00401B3
:1020D0002164010707D502F02001314303D0216CB0
:1020E00041F008012164216C00293AD0800604D512
:1020F000900602D5204600F075FF20684069216CEB
:10210000C0F38010090700D460B3204600F035FF0B
:1021100020684069400621D52068143050E8001F2F
:1021200021F0400140E80012002AF5D1A06BA8B1CF
:102130006C490165A06BFFF725F8002811D0A06B52
:10214000016D01B0BDE8F040084783060FD5930646
:102150000DD52046BDE8F84000F044BF2046FFF70B
:1021600088FFF8BD2046FFF784FF2564F8BD266B85
:102170002023012E79D1C60677D5D60675D50868F5
:10218000486800904869400640D5A16B08684068DF
:102190000004000CEAD0A28D8242E7D9E085C8692C
:1021A000B0F5807F2DD020680C3050E8001F21F45E
:1021B000807140E80012002AF5D12068143050E800
:1021C000001F21F0010140E80012002AF5D120682B
:1021D000143050E8001F21F0400140E80012002AAE
:1021E000F5D184F83E30256320680C3050E8001F9C
:1021F00021F0100140E80012002AF5D1A06BFEF793
:1022000078FFA08DE18D401A81B229E0A08DE18D8B
:10221000401A81B2E08D0028A8D00029A6D02068FD
:102220000C3050E8002F22F4907240E80026002E77
:10223000F5D12068143050E8002F22F0010240E868
:102240000026002EF5D184F83E30256320680C303E
:1022500050E8002F22F0100240E80023002BF5D1B7
:102260002046FFF705FFF8BDFFE705062BD515064D
:1022700029D594F83D002128F5D1A068B0F5805FFC
:1022800001D12069B0B1206A411C21622168007827
:102290004860E08C401E0004000CE084E3D120681C
:1022A000C16821F08001C1602068C16841F040012F
:1022B000C160D8E7206A0088C0F308004860206A3F
:1022C000801C2062E5E74006CDD55006CBD5CA6814
:1022D000204622F04002CA6084F83D3000F0D1F977
:1022E000C1E70000852E000870B5040004D094F802
:1022F0003D00002510B106E0012070BD84F83C507F
:10230000204600F023F8242084F83D002068C168AE
:1023100021F40051C160204600F0C4FE206801692C
:1023200021F4904101612068416921F02A01416155
:102330002068C16841F40051C1602564202084F800
:102340003D0084F83E00002070BD00002DE9F04FF4
:1023500087B0044614216846FDF7EEFFDFF87CC124
:1023600026685F4803210222082300254FF4807A63
:102370004FF4003B4FF020674FF48069664551D120
:10238000574E1036D6F800C04CF0004CC6F800C0CE
:10239000366806F000460596066846F010060660A8
:1023A000006800F0100005908DE82600CDE90313C9
:1023B00069464C48FFF77CF84C4E4B4806F1180C28
:1023C0003060C6E90175C6E9035975618CE8200CD7
:1023D000B8464F4630467562FEF7B6FF08B1FEF7C5
:1023E000CEFAA663B463414E3F4860369038E6E8C3
:1023F00002084020A1C6800246F81459B561C6E91A
:1024000007503A4875626030FEF79EFF08B1FEF74C
:10241000B6FA6663002205215320B463FFF7DAF9A8
:10242000532055E0DFF8C8C0664553D12C4E143612
:10243000D6F800C04CF0200CC6F800C0366806F094
:1024400020060596066846F040060660006800F023
:1024500040000590CDE903134FF484408DE825003A
:1024600069462448FFF724F8204E2348C03606F179
:10247000180C3060C6E90175C6E9035975618CE82E
:10248000200CB8464F4630467562FEF75DFF08B136
:10249000FEF775FAA663B4631748184E7830E6E87D
:1024A00002084020A1C6800246F81459B561C6E969
:1024B000075012487562FEF747FF08B1FEF75FFA52
:1024C0006663002205214720B463FFF783F94720A4
:1024D000FFF772F907B0BDE8F08F0000007C004004
:1024E0003038024000100240A06002405805002031
:1024F00000140140001802402864024078060020C1
:1025000090F83E30202B0ED159B152B190F83C30AA
:10251000012B08D0012380F83C300023036300F036
:1025200047BE0120704702207047000070B5054685
:102530000068224988421BD1214901200023214CF7
:10254000486003E003F11B003C2811DAE05C0D2831
:102550000BD1E01841780A2907D1817E0A2904D1DC
:10256000C17E0D2901D101F0EFFC5B1C3C2BE9DBA6
:1025700015492868884220D1124C0023403CE05C79
:10258000A52817D1E01845785A2D13D08278191D47
:102590005618222E0EDA2244515C5A290AD1022DF5
:1025A00002D0032D06D102E001F0B2FC02E00449A2
:1025B000007908705B1C222BE1DB70BD007C0040C1
:1025C0008C00002074460020001401407047000079
:1025D0002DE9F843044690F83D001F4616460D4687
:1025E00020284CD1C5B1BEB194F83C00012846D09A
:1025F000012084F83C004FF00008C4F840802120FE
:1026000084F83D00FFF774F8A6848146E684A0684C
:10261000B0F5805F03D004E00120BDE8F8832069B5
:1026200028B12E465FF0000584F83C800EE00026BD
:10263000FAE78021204600F005FEA0B9AEB116F8F9
:10264000010B21684860E08C401EE084E08C4B4622
:102650004FF0000200970028EBD14FF040012046D8
:1026600000F0F0FD30B10320D7E735F8020BC0F3DE
:102670000800E6E7202084F83D000020CDE7022096
:10268000CBE77047FEE700000F4810B50D49016029
:102690000321416000214FF410228160C0E9031240
:1026A0004FF400124261017641768176C17601775E
:1026B0004177FEF7D6FB002803D0BDE81040FEF7B7
:1026C0005EB910BD0064004018040020194808B528
:1026D000016841F400110160016801F400110091EA
:1026E000016841F4800101600068002200F480006C
:1026F000009005210B20FFF76DF80B20FFF75CF829
:10270000002205211120FFF765F81120FFF754F88A
:10271000002205213920FFF75DF83920FFF74CF83A
:10272000002205214520FFF755F8BDE80840452067
:10273000FFF742B83038024010B596B01C2211495C
:102740006846FDF7E0FD0021684601F084FC0E4C70
:102750000C491C22A0601C3107A8FDF7D4FD002104
:1027600007A801F078FC074920601C2238310EA828
:10277000FDF7C9FD00210EA801F06DFC606016B0E8
:1027800010BD0000384D00080800002030B587B0AB
:1027900014216846FDF7D0FD21480024016841F06E
:1027A00010010160016801F010010591016841F01C
:1027B00040010160016801F040010591016841F0AC
:1027C00001010160016801F001010591016841F01A
:1027D00008010160016801F008010591016841F4F8
:1027E00080710160016801F480710591016841F018
:1027F0008001016000680B4D00F080000590002210
:1028000002212846FEF76EFF022000900120CDE94C
:102810000104694628460394FEF74AFE07B030BD1E
:10282000303802400018024010B58AB000240794E6
:102830001C2168460894FDF77FFD23484FF0804136
:102840000160A721C0E9011444F61F61C0E9031427
:102850008461FFF7BFFB08B1FEF791F8079407A961
:1028600019480894FFF7C8FA08B1FEF788F8602005
:1028700000904FF4FA60CDE9010400226946124845
:102880000494FFF741FB08B1FEF779F8042269468A
:102890000D48FFF739FB08B1FEF771F808226946C9
:1028A0000948FFF731FB08B1FEF769F80C226946C9
:1028B0000548FFF729FB08B1FEF761F80248FFF76A
:1028C000E3FA0AB010BD00004004002010B592B039
:1028D00000240F941C2108A81094FDF72DFD202141
:1028E0006846FDF729FD21481F490160A721C0E97D
:1028F000011444F61F61C0E9031444618461FFF7C9
:1029000069FB08B1FEF73BF80F940FA91748109424
:10291000FFF772FA08B1FEF732F8602008904FF422
:10292000FA60CDE909040B940C940D94002208A9D7
:102930000E480E94FFF7E8FA08B1FEF720F800946D
:102940004FF40050CDE90440029401940394694689
:1029500006480794FFF726FA08B1FEF710F8034877
:10296000FFF792FA12B010BD000401408804002065
:102970000C4810B50A4901604FF4E1314160002173
:1029800081600C22C160C0E904128161C161FFF75E
:10299000ABFC002803D0BDE81040FDF7F0BF10BD30
:1029A000007C0040D00400200C4810B50A490160AA
:1029B0004FF4E1314160002181600C22C160C0E927
:1029C00004128161C161FFF78FFC002803D0BDE8CC
:1029D0001040FDF7D4BF10BD0014014014050020C5
:1029E000FEE7FEE7A0B1D0ED101AC0ED111A90ED90
:1029F0000F1A80ED101AC0ED060A80ED070A30EEBE
:102A0000C00A80ED0F0A017829B101293BD078E096
:102A10009FED3D0A7047D0ED010A60EE801AC0EDCF
:102A2000091AD0ED0A0A90ED022A42EE000A30EEB1
:102A3000410AC0ED0A0A90ED0D2A80ED0E2A90EDB4
:102A40000C2A80ED0D2A80ED0C0A90ED031A21EE80
:102A5000001A80ED0B1A90ED050AF4EEC00AF1EEB3
:102A600010FA09DCB1EE400AF4EEC00AF1EE10FAF9
:102A700002D390ED0A0A01E080ED0A0A31EE800AE5
:102A800030EE010A2BE070EE410A90ED012A20EEB3
:102A9000822A80ED092AD0ED020A60EE800AC0ED9C
:102AA0000A0AD0ED0D2A72EE200AC0ED0E2AD0EDF2
:102AB0000C2AC0ED0D2AF0EE002A01EE620A30EE7B
:102AC000210A80ED0C0A90ED031A21EE000A80ED38
:102AD0000B0A30EE800AD0ED080A30EE200A80EDB5
:102AE000080AD0ED040AB4EEE00AF1EE10FA06DCB2
:102AF000F1EE600AB4EEE00AF1EE10FA01D2C0ED98
:102B0000080A90ED080A704700000000002828D04D
:102B1000002A26D0017092ED001A80ED011A92ED84
:102B2000011A80ED021A92ED021A80ED031A80ED6F
:102B3000040A9FED0C0AC0ED050A80ED0E0A80ED37
:102B40000D0A80ED0C0A80ED080A80ED0B0A80ED7D
:102B50000A0A80ED090A80ED110A80ED100A80ED65
:102B60000F0A704700000000012001F067FAFBE740
:102B700010B5FEF7C3FD02F001F8012803D0BDE84F
:102B8000104001F07FBF10BD30B593B030216846D2
:102B9000FDF7D2FB14210CA8FDF7CEFB1D48002544
:102BA000016841F080510160006800F08050119090
:102BB0001948016841F4404101600068022400F4B2
:102BC0004040119001200090000401908001CDE967
:102BD000064006200890A820CDE9090404200B90A7
:102BE0006846FEF715FF08B172B6FEE70CA90F2084
:102BF00081E831004FF4A0500F904FF480501090B6
:102C000005210CA8FEF718FE002801D072B6FEE7D9
:102C100013B030BD403802400070004002480168E7
:102C200041F470010160704788ED00E0F0B5026882
:102C3000254C264D264E274F274B4FF0804CA04267
:102C400009D0604507D0A84205D0B04203D0B842B1
:102C500001D0984204D122F0700E4A6842EA0E0276
:102C6000A0421BD0604519D0A84217D0B04215D061
:102C7000B84213D0984211D0184DA8420ED0184D2A
:102C8000A8420BD0174DA84208D0174DA84205D036
:102C9000164DA84202D0164DA84203D122F4407529
:102CA000CA682A434D6922F080022A4302608A687A
:102CB000C2620A688262A04201D0984201D10969C9
:102CC000016301214161F0BD0000014000040040AA
:102CD00000080040000C004000040140004001409A
:102CE000004401400048014000180040001C004022
:102CF00000200040F0B5026A22F001020262036A7D
:102D000042688469124E24F073050C682C4323F04A
:102D100002058B682B430D4DA84201D0B04205D16E
:102D200023F00807CB683B4323F00403A84201D0FB
:102D3000B04205D14D6922F4407215438A692A4395
:102D400042608461496841630362F0BD0000014054
:102D500000040140F0B5026A22F010020262026A29
:102D6000436884690D6824F4E64444EA05248D68C8
:102D700022F0200242EA05120F4D104EA84201D067
:102D8000B04206D1CF6822F0800242EA071222F058
:102D90004002A84201D0B04207D14D6923F44063FC
:102DA00043EA85038D6943EA85034360846149688A
:102DB00081630262F0BD0000000001400004014098
:102DC000F0B5026A22F480720262026A4368C46942
:102DD00022F4007224F073050C68124E2C438D68A7
:102DE00042EA05220E4DA84201D0B04206D1CF687A
:102DF00022F4006242EA072222F48062A84201D053
:102E0000B04207D14D6923F4405343EA05138D695D
:102E100043EA05134360C4614968C1630262F0BDBF
:102E2000000001400004014030B5026A22F48052E3
:102E30000262046A4268C3690D6823F4E64343EA08
:102E400005238D6824F4005444EA0534084DA84253
:102E500002D0084DA84204D14D6922F4804242EAD2
:102E600085124260C36149680164046230BD00009C
:102E700000000140000401400148FFF701B90000D3
:102E8000D004002010B5806B0021C185C184FFF7FC
:102E9000F0F810BD70B5846B2068406994F83D105F
:102EA000C0F3C0100025212904D118B1E5842046C3
:102EB00000F08AF82068406994F83E10C0F3801052
:102EC000222904D118B1E585204600F056F8206C7F
:102ED00040F0100020642046FFF7CBF870BD10B51D
:102EE0000146806B09680968C9052FD40021C18596
:102EF00001680C3151E8002F22F4807241E8002370
:102F0000002BF5D10168143151E8002F22F00102A5
:102F100041E80023002BF5D10168143151E8002F5E
:102F200022F0400241E80023002BF5D1202180F857
:102F30003E10016B012909D101680C3151E8002FC5
:102F400022F0100241E80023002BF5D1016B01298A
:102F500002D0FFF7EBFA10BD818DFFF789F810BDA5
:102F600010B5806B016B012902D0FFF72FFB10BD5C
:102F7000818D4908FFF77CF810BD01680C3151E8DC
:102F8000002F22F4907241E80023002BF5D1016854
:102F9000143151E8002F22F0010241E80023002BF8
:102FA000F5D1016B012909D101680C3151E8002FDD
:102FB00022F0100241E80023002BF5D1202180F8F7
:102FC0003E1000210163704701680C3151E8002F69
:102FD00022F0C00241E80023002BF5D1202180F827
:102FE0003D10704708B590F83E10222901D002200C
:102FF00008BD82684FF480539A4201D1016921B122
:10300000816A9A421BD04AB10AE00268816A52681A
:10301000C2F308020A80816A891C08E0026972B161
:103020000268526802F07F020A70816A491C81625C
:10303000C18D491E0904090CC18503D019E002683D
:103040005268F1E70168CA6822F02002CA6001688C
:10305000CA6822F48072CA6001684A6922F00102DB
:103060004A61202180F83E10016B012903D0FFF74F
:103070005DFA002008BD0021016301680C3151E8B0
:10308000002F22F0100241E80023002BF5D1016847
:103090000A68D20602D50A6849680091818DFEF758
:1030A000E7FFE6E770B5044600680169E26821F4CD
:1030B0004051114301612169A068E26908436169D7
:1030C000114308432168CA6849F20C639A430243DA
:1030D000CA6020684169A26921F4407111434161CD
:1030E00031492068884202D03049884202D1FEF737
:1030F0004DFC01E0FEF73AFCE2690023192164254A
:103100003226B2F5004F626828D0A0FB0101930F70
:103110009200FDF7C7F80146B0FBF5F06FF018021A
:10312000504301EB800006EB0010B0FBF5F000F01F
:10313000F002B1FBF5F002EB0012B1FBF5F06FF01D
:103140001803584301EB800006EB0010B0FBF5F0CC
:1031500000F00F0021681044886070BDA0FB0101E1
:1031600092185B41FDF79EF80146B0FBF5F00201B5
:10317000B1FBF5F06FF01803584301EB800006EB4C
:10318000C000B0FBF5F000F0F80002EB4002B1FB2C
:10319000F5F0584301EB800006EBC000B0FBF5F002
:1031A00000F00700D6E700000010014000140140C5
:1031B00038B58162828500251346044605642220C5
:1031C00084F83E00A26B1C48D063A26B1B481064BD
:1031D000A26B1B48D064A06B0A4605652168A06BF2
:1031E000091DFEF71BF9206801684068009084F80B
:1031F0003C50206948B120680C3050E8001F41F471
:10320000807140E80012002AF5D12068143050E89F
:10321000001F41F0010140E80012002AF5D12068AA
:10322000143050E8001F41F0400140E80012002A2D
:10323000F5D1002038BD0000DF2E0008612F000806
:10324000952E00082DE9F041984617460E46044693
:10325000069D27E0681C25D02DB1FEF749FAA0EBAA
:103260000800A8421ED920680C3050E8001F21F445
:10327000D07140E80012002AF5D12068143050E8DF
:10328000001F21F0010140E80012002AF5D12020A2
:1032900084F83D0084F83E00002084F83C000320C0
:1032A000BDE8F0812068006836EA000004D0002004
:1032B000B842CFD00020F3E70120F9E70148FEF73C
:1032C000DFBE000014050020FEE7000037B51446FD
:1032D0000846064B6A46214600F0ECF8044669466B
:1032E000002000F07EFC20463EBD0000E33B0008CD
:1032F0000907090E002804DB00F1E02080F8001423
:10330000704700F00F0000F1E02080F8141D7047B6
:1033100002E008C8121F08C1002AFAD1704770479E
:10332000002001E001C1121F002AFBD170470000FC
:103330002DE9FF5F82B00021DDE90430020DDDF8E8
:1033400040B0034318D044F61050A2F2FF3242437B
:103350001514119801281FD0A5EB0B00401C5FEA43
:10336000000A4FF000064E4FDFF83891B046504645
:1033700015D5CAF1000413E0119801244AA30128CD
:1033800001D16FEA0B010298119AC0E90031C0E93E
:10339000024206B0BDE8F09FCBF10000DFE7044633
:1033A0000021404A491842EB0450CDE9001012E0D8
:1033B000E00707D032463B4640464946FDF7B6F89F
:1033C0008046894632463B4610461946FDF7AEF820
:1033D00006460F466410002CEAD1DDE90401DDE960
:1033E0000023BAF1000F06DAFDF7A0F842464B467B
:1033F000FDF79CF805E0FDF70BF942464B46FDF75B
:1034000007F904460E460022284BFDF789F903D838
:103410004FF0FF30014607E00022254B20463146A1
:10342000FCF7DDFFFDF763F9102409E0002C0ADB4F
:103430000A220023FCF736FF039B30321A55641E24
:1034400050EA0102F2D1641C039AC4F1110314443E
:10345000119A012A03D0012208430DD10AE0084342
:1034600004D000204FF0110B119072E7A3EB0B0575
:103470006D1E0DE05B4504DD4FF0000205F1010516
:1034800004E003DA4FF00002A5F10105002AECD0B8
:1034900002981199C0E90231C0E9004579E70000BE
:1034A000000014400000F03F300000000000F04336
:1034B0000000E03F2DE9FF4F95B09B468946064648
:1034C00000250FE2252877D100242746F84A01215C
:1034D000059400E0044316F8013F203B01FA03F095
:1034E0001042F7D130782A2811D06FF02F033078AE
:1034F000A0F13002092A16D8059A44F0020402EB22
:10350000820203EB42021044761C0590EFE759F863
:10351000042B0592002A03DA504244F4005405902B
:1035200044F00204761C30782E2816D116F8010FCC
:1035300044F004042A280DD06FF02F023078A0F157
:103540003003092B09D807EB870302EB4303C718A5
:10355000761CF3E759F8047B761C30786C280FD082
:1035600006DC4C2817D068280DD06A2814D104E056
:10357000742810D07A280FD10DE044F400140AE02A
:1035800044F4801401E044F440147278824202D181
:1035900004F58014761C761C307866280BD013DC7A
:1035A000582877D009DC002875D04528F6D0462861
:1035B000F4D047281AD19DE118E0632835D064285B
:1035C00079D0652812D195E1702873D008DC67287E
:1035D000F1D069286FD06E280DD06F2806D1B5E0E4
:1035E00073282CD0752875D0782874D05A4617992E
:1035F00090476D1C75E1C4F30250022809D00328DE
:103600000DD0D9F8001004280DD00D6009F104097F
:1036100067E1D9F80010EA17C1E90052F6E7D9F8D6
:1036200000100D80F2E70D70F0E719F8041B8DF81B
:10363000001000208DF80100EA46012003E059F84F
:1036400004AB4FF0FF3061074FF0000102D40DE0F2
:1036500008F101018846B9420FDA8045F8DB1AF813
:1036600008100029F4D108E008F1010188468142E0
:10367000FADB1AF808100029F6D105985B46A0EB92
:10368000080721463846179A00F094FA284400EBC0
:10369000080507E04DE029E10DE01AF8010B5A4654
:1036A00017999047B8F10108F7D25B462146384692
:1036B000179A13E142E00A220092C4F302524FF03B
:1036C000000A022A08D059F804CB032A4FEAEC7109
:1036D0000AD00DE029E02AE009F1070121F00702F4
:1036E000F2E802C1914609E00FFA8CFC4FEAEC7156
:1036F000042A03D14FFA8CFC4FEAEC71002907DA57
:103700000A460021DCF1000C61EB02012D2202E0EF
:10371000220504D52B228DF80420012203E0E207C4
:1037200001D02022F7E7904659E00A2102E010225A
:103730000DE010214FF0000A00910BE010224FF035
:10374000000A44F004040827009203E008224FF026
:10375000000A0092C4F30252022A05D059F804CBA1
:103760000021032A08D009E009F1070121F007022E
:10377000F2E802C1914605E01FFA8CFC042A01D14F
:103780000CF0FF0C4FF00008220728D5702806D057
:10379000009B83F0100353EA0A0305D00EE0402299
:1037A0008DF80420012208E05CEA010206D03022F4
:1037B0008DF804208DF8050002229046009B83F0CE
:1037C000080353EA0A030AD15CEA010201D1620745
:1037D00005D530228DF804204FF001087F1E5828AF
:1037E00004D034A003900EA802900DE036A0F9E7B3
:1037F00053466046009AFCF755FD84460398825C68
:103800000298401E029002705CEA0100F0D102981A
:1038100006A9081A00F1200A600702D524F48034B2
:1038200000E00127574502DDA7EB0A0000E0002079
:1038300000EB0A01009005984144401A0590E0030E
:1038400006D45B462146179A059800F0B3F9054463
:10385000002706E001A85A46C05D179990476D1CE5
:103860007F1C4745F6DBE0030CD55B462146179AE3
:10387000059800F09FF9054404E030205A46179956
:1038800090476D1C0099481E00900029F5DC08E067
:10389000029802995A460078491C0291179990475C
:1038A0006D1CBAF10001AAF1010AF1DC65E100002A
:1038B0000928010030313233343536373839616206
:1038C00063646566000000003031323334353637CA
:1038D00038394142434445460000000000F058F9A1
:1038E0000544761C307800287FF4ECAD19B02846EA
:1038F000BDE8F08F620700D4062709F1070222F025
:10390000070CFCE80223E14603F000485FEA080CDC
:1039100002D00FF2702C0DE05FEA045C02D50FF2CA
:10392000682C07E05FEAC47C02D00FF2602C01E053
:10393000AFF2700C4FF0FF3823F00043CDF850C0C9
:1039400065280CD006DC452809D046281DD047281C
:103950003DD13DE0662818D067287ED138E00021AF
:10396000112F01DB112000E0781CCDE9000106A930
:103970000EA8FFF7DDFCDDE90F010E9A039100218F
:10398000009207F1010A04914DE04FF000400097CA
:10399000CDE9011006A90EA8FFF7CAFCDDE90F0268
:1039A00003920E9B11990022DDF80CA00093049263
:1039B00011B9791C00EB010AB7EB0A0004D4C0F17D
:1039C000FF3007F1010A0490AAEB0700019044E0E0
:1039D000012F00DA01270021112F01DD112000E065
:1039E0003846CDE9000106A90EA8FFF7A1FCDDE9E4
:1039F0000F010E9A0391002104910092BA4621070B
:103A00000CD40399514500DA8A46BAF1010F05DD5D
:103A1000009AAAF10101515C302908D0B84202DABB
:103A200010F1040F06DA0121CDE9011015E0AAF129
:103A30000101E9E7002805DC049901440491AAEB9F
:103A4000000102E0411C514500DD8A460499401AFC
:103A5000401C01904FF000400290200704D40198D0
:103A6000504501DBCDF8048000208DF84F0002980E
:103A70000DF14F07B0F1004F25D02B200E9002988A
:103A80004FF0020800280CDA404202902D200E90E0
:103A900007E00A210298FCF76DFC3031029007F82C
:103AA000011DB8F10001A8F10108F2DC029800281C
:103AB000EFD1791E0E980870307800F0200040F0A9
:103AC000450007F8020D12A8C01B00F10708149862
:103AD000007800B1012000EB0A01019801EBE071D0
:103AE00005984144401A401E0590E00306D45B4609
:103AF0002146179A059800F05DF80544149800785F
:103B000018B15A46179990476D1CE00324D55B46BF
:103B10002146179A059800F04DF805441CE00498DA
:103B2000002807DBDDE90301884203DD0098405CE3
:103B3000179901E0179930205A469047049805F1EB
:103B40000105401C04900198401E019004D12E20D4
:103B50005A46179990476D1CBAF10001AAF1010A63
:103B6000DDDC05E017F8010B5A46179990476D1CEC
:103B7000B8F10001A8F10108F4DC5B462146179A70
:103B80000598ABE62D0000002B000000200000008F
:103B90002DE9F041044600251E461746880404D44A
:103BA00005E039462020B0476D1C641EF9D5284633
:103BB000BDE8F0812DE9F041044600251E469046FF
:103BC000C80301D5302700E02027880404D505E08C
:103BD00041463846B0476D1C641EF9D52846BDE8FD
:103BE000F0810A68531C0B601070704700B58BB0F1
:103BF00000200121CDE9060108910090019002907A
:103C000003900590049069460548FCF731FF04488D
:103C1000FDF73CFA02210248FCF7B3FE0BB000BDF1
:103C20001804002010B5124800F064F81048103055
:103C300090ED030ABDEEC00A10EE101A90ED020AD4
:103C40000BB2BDEEC00A10EE101A90ED010A0AB2D6
:103C5000BDEEC00A10EE101A90ED000ABDE810404B
:103C6000BDEEC00A09B210EE100A00B2FCF7F8BDB2
:103C7000C84300202DE9F041184D00242DED048BA0
:103C8000A5F13006A5F120079FED159ADFED158A05
:103C90009FED158A04EBC40005EBC000F0EE490A65
:103CA000B0EE680A114A0021FEF730FF06EB8400EF
:103CB00080ED008AE0B200F081F947F82400641C2E
:103CC000042CE7DBBDEC048BB7EE000ABDE8F04145
:103CD0000248DFED070A103800F062B908440020FE
:103CE00000007A4400803B4600000000AC4D000814
:103CF000000048422DE9F04706461848816801EE69
:103D0000101A4168006800EE901A00EE100A00F0E8
:103D100031F8DFF84C80002408F12007A7F13009C2
:103D200006EB8400D0ED000A58F82400B0F9020038
:103D300000EE100A04EBC40007EBC005B8EEC00AA1
:103D40002846FEF74FFE09EB840095ED080A641C37
:103D500080ED000A042CE3DBBDE8F0872846002054
:103D6000E8430020FFF786FFFFF75CFF052000F027
:103D700065F9F9E7B2EE043A9FED2A2A21EE031A1B
:103D800060EE031A60EE830A2B4821EE022AB0EEA1
:103D9000001A20EE430A22EE012A9FED231A30EE8C
:103DA000600A22EE012A9FED211AC2EE012A31EEAD
:103DB000E01A31EE622A9FED1E1A30EE620AC2EE60
:103DC000013A9FED1C2A63EE823AFDEEE33AF8EEEB
:103DD000E33AC0ED003A71EEA03A70EEE11AC0EE9F
:103DE000010A33EEE24AC4EE013A20EE820ABDEE49
:103DF000C00AB8EEC00A63EE823AFDEEE33AF8EE8E
:103E0000E33AC0ED013A71EEE23AC3EE811A61EE97
:103E1000821AFDEEE11AF8EEE11AC0ED021A80ED09
:103E2000030A704700004842DB0F49400000B443DA
:103E3000DD7E3C4300007042C84300208AB000F0A1
:103E4000F3F800F0E7F829A000F082FBDFF8A49077
:103E5000DFF8A4A0DFF8A480D9F804004C4630B104
:103E6000012202215046FDF73DFC00206060D8F899
:103E70000000642301EE100AD8F810000E2200EEB4
:103E8000900AD8F80C00012100EE100A04A800F0F6
:103E90006DF86423132204A91948FEF799FB132136
:103EA00004A800F0A9FBD8F80000FCF750FA064679
:103EB0000F46D8F81000FCF74AFA04460D46D8F829
:103EC0000C00FCF744FA8DE8F00041EC100B0DA05B
:103ED00053EC102B00F0C2FB142000F0AFF80022CE
:103EE00002215046FDF7FEFBB6E700004143543087
:103EF000000000008C000020001802405C460020FA
:103F00001405002025662C25662C25660D0A000068
:103F10000C4902790A7042794A7082798A70C279B2
:103F2000CA70027A0A71427A4A71827A8A71C27AB6
:103F3000CA71027B0A72427B4A72827B8A72C07BA0
:103F4000C872704728460020074950F8022F4A637C
:103F500042688A638268CA63C2680A6402694A6402
:103F60004069886470470000284600203FB5A525B9
:103F70002DED040B10EE104A10EE903A05704170D2
:103F8000BDF81810418011EE102A44608360C260B1
:103F9000BDF81C1001825A21817408B030BD0000A8
:103FA00080ED030A9FED040AC0ED020A80ED000ACD
:103FB00080ED010A704700000000000000F00300DF
:103FC000024900EB800001EB40007047D84600201A
:103FD000FDF79CFBFEF7D8FDFEF7D8FBFEF776FB5E
:103FE000FEF7C6FCFEF7E0FCFEF74EFBFEF71CFCFE
:103FF000FEF76CFCFFF7FAFDFEF79EFB00F026F8DB
:104000001420FDF743FAFBE70021842800D0C11CEF
:1040100008467047222202490248FEF771BA0000A2
:1040200034460020140500203C2202490248FEF7D5
:1040300067BA000074460020D004002010B50028A4
:1040400000D1012000F0F8FB002010BD10B500F0F9
:104050001BFC002010BD30B585B004460D466169DB
:10406000B4F90800002910D0A16971B1FFF7CCFFA5
:104070006269A1690192029100902B462269216830
:10408000606800F04BFD049010E0FFF7BDFF04A94D
:1040900001910090208A2B4682B22168606800F06E
:1040A00007FD012802D005B0002030BD049805B0FE
:1040B00030BD00002DE9F04104460F46194EF56869
:1040C0003068001D00F0EAFA48B93068012190F824
:1040D0002C0001FA00F0316921EA00003061B4F1EE
:1040E000FF3F07D137B13068BDE8F041011D0E48F0
:1040F00000F01BBB2C4430684460AC4206D23068F0
:10410000011DB06BBDE8F04100F0F4BA3068011D4C
:10411000706B00F0EFFAB06A844200D2B462BDE87E
:10412000F081000024000020B407002070B5044690
:1041300000F008FB1C4DA868401CA860286810B15E
:10414000686938B10CE02C60A868012808D100F03B
:10415000EDF805E02868E16AC06A884200D82C6062
:10416000686A401C6862E06A01212A698140114343
:1041700029610E4900EB800001EB8000211D00F059
:10418000D4FA00F0FFFA686900280CD02868E16AC8
:10419000C06A884207D206494FF080500860BFF3DA
:1041A0004F8FBFF36F8F70BD24000020D806002012
:1041B00004ED00E070B50D4C6068002815D00C4E81
:1041C00000F0C0FAF068C568281D00F067FAA06822
:1041D000401EA0606068401E606000F0D3FA284670
:1041E00000F008F860680028EAD170BD24000020C3
:1041F000A007002010B5044694F8511000290BD0F8
:10420000012911D0022914D0502080F31188BFF366
:104210004F8FBFF36F8FFEE7206B00F0C9FA204687
:10422000BDE8104000F0C4BA2046BDE8104000F0E0
:10423000BFBA10BD4FF47051104810F0070F06D0F0
:10424000C01D20F007000D49411AC1F570510C4AFC
:104250001060002353600144083921F00701183A27
:1042600011604B600B600B1A436001604068906006
:1042700050604FF00040506170470000C8070020B8
:1042800078000020074E4FF08054074DFFF792FF53
:1042900030680128FAD92C60BFF34F8FBFF36F8FBE
:1042A000F4E70000D806002004ED00E02DE9F04717
:1042B0008146099E089D0A9C9A46521E206B00EB7F
:1042C000820020F00708002700290CD000202318C6
:1042D0000A5C83F834200A5C12B1401C1028F6D323
:1042E00084F8437001E084F83470072D00D306256C
:1042F000E5626564A764201D00F0F9F904F1180077
:1043000000F0F5F92461C5F10700A0616462E7647B
:1043100084F8507052464946404600F003F9206048
:10432000002E00D03460BDE8F087000070B5002496
:104330000F4D04EB840005EB800000F0CDF9641C08
:10434000072CF6D30B4800F0C7F90B4800F0C4F96E
:104350000A4800F0C1F90A4800F0BEF9094800F027
:10436000BBF90948034941631431816370BD000002
:10437000D806002064070020780700208C07002062
:10438000A0070020B40700202400002010B4144926
:1043900000E011460A688242FBD34B6803EB010C34
:1043A000844503D140681844486008460C68D0F83A
:1043B00004C00CEB0003A3420CD10A4B1B689A42C9
:1043C00006D05268624442600A681268026002E0E5
:1043D000036000E00260814200D0086010BC7047BA
:1043E00078000020600000200749486B0068002822
:1043F00005D0486BC068C0684068886270474FF05D
:10440000FF30886270470000240000200A4840689E
:10441000B0F1FF3F07D0502080F31188BFF34F8FDA
:10442000BFF36F8FFEE7502080F31188BFF34F8FEB
:10443000BFF36F8FFEE70000800000202DE9F04100
:104440000546002600F064FA344F386808B9FFF7D3
:10445000F1FE7869054251D19DB1083515F0070F7D
:104460000FD005F00700C0F10800054415F0070F54
:1044700007D0502080F31188BFF34F8FBFF36F8FA9
:10448000FEE7002D3AD07868854237D8244908469F
:10449000046801E0214604466068A84202D2206810
:1044A0000028F7D13868844228D0086800F108064F
:1044B000206808606068411B10290FD9601910F04E
:1044C000070F07D0502080F31188BFF34F8FBFF341
:1044D0006F8FFEE741606560FFF758FF616878689D
:1044E000401A7860BA68904200D2B8607869084390
:1044F000606000202060F868401CF86000F0B6FBA7
:1045000016F0070F07D0502080F31188BFF34F8FAC
:10451000BFF36F8FFEE73046BDE8F08160000020FA
:1045200078000020001F4FF080730360001F21F00F
:1045300001010160001F0549016014380260001F7D
:104540006FF0020101602038704700000D44000840
:104550000FB40E4870B50C4C05AAA4F108052260F2
:104560000499FEF7B3FE82B26A80002020606423C3
:1045700006490748FEF72CF86988044800F00AF855
:1045800070BC5DF814FB000094000020284500205A
:10459000D004002070B5154A13681C6824F001048B
:1045A0001C6013681C68E407F7D1114E2024B34245
:1045B00002D90F4D4C3D04E00E4DAB4203D90C4DDA
:1045C000503D2C6008E00B4E0A4D603EB83DB342B2
:1045D00001D9EC6000E0AC60D86010684160106800
:1045E000016841F00101016070BD0000B8050020C4
:1045F00058640240B860024070B5154A13681C68E0
:1046000024F001041C6013681C68E407F7D1114E04
:104610004FF40014B34202D90E4D4C3D04E00E4D50
:10462000AB4203D90B4D503D2C6008E00A4E0A4DB9
:10463000603EB83DB34201D9EC6000E0AC60D860A8
:10464000106841601068016841F00101016070BDAF
:104650007806002058640240B86002400FB40D484C
:1046600070B50B4C05AA251F22600499FEF72EFE9B
:1046700082B22A8000202060642306490648FDF7A4
:10468000A7FF29880348FFF7B7FF70BC5DF814FB4C
:1046900004000020C40000201405002001694368C4
:1046A00082689A60836842685A604A68824201D18F
:1046B00082684A60002202610868401E086008683B
:1046C00070470000034B036003F154000860802032
:1046D00010607047C401002000F1080141604FF0F4
:1046E000FF328260C16001610021016070470021DA
:1046F0000161704710B4D1F800C0BCF1FF3F02D097
:1047000000F1080202E0026904E01A4653681C68DE
:104710006445FAD953684B6099608A6051600861BA
:104720000168491C016010BC704742684A60936888
:104730008B6093685960916008610168491C016051
:1047400070470000502080F31188BFF34F8FBFF3F4
:104750006F8F0A494868401C486001280CD10848FE
:10476000006810F0FF0F07D0502080F31188BFF3CE
:104770004F8FBFF36F8FFEE770470000800000206F
:1047800004ED00E009494868002806D0401E486052
:10479000002801D180F311887047502080F31188E0
:1047A000BFF34F8FBFF36F8FFEE700008000002044
:1047B00070B500282AD0A0F10804154D6068696919
:1047C000084207D1502080F31188BFF34F8FBFF309
:1047D0006F8FFEE722683AB1502080F31188BFF353
:1047E0004F8FBFF36F8FFEE78843606000F090F853
:1047F00060686968084468602046FFF7C7FD28695B
:10480000401C2861BDE8704000F030BA70BD000067
:10481000600000204FF0E020002101618161054926
:104820004FF47A720968B1FBF2F1491E4161072128
:10483000016170472000002010B502460020002AC8
:1048400012D00F48006B38B1502080F31188BFF3AD
:104850004F8FBFF36F8FFEE700F05AF8002110462C
:10486000FFF728FC00F002FA002807D105494FF0B5
:1048700080500860BFF34F8FBFF36F8F10BD0000F3
:104880002400002004ED00E010B586B0002405945B
:10489000049403AA04A905A8FFF714FF0598049936
:1048A000019102900023009415A11748039A00F08B
:1048B00035F91649C86208B1012000E0002001283E
:1048C0000AD0B0F1FF3F19D1502080F31188BFF317
:1048D0004F8FBFF36F8FFEE7502080F31188BFF337
:1048E0004F8FBFF36F8F4FF0FF3088620120486118
:1048F000CC6006B0BDE8104000F042B806B010BD74
:1049000049444C4500000000854200082400002076
:104910000248016B491C016370470000240000201D
:10492000154A106B002802D00120D061704700208A
:10493000D0611069B0FA80F0C0F11F000F4900EBA0
:10494000800051F8203073B101EB80004168496864
:10495000416000F10803994201D149684160406813
:10496000C06810607047502080F31188BFF34F8FEC
:10497000BFF36F8FFEE7000024000020D806002060
:1049800010B582B038480168384A914207D15020AA
:1049900080F31188BFF34F8FBFF36F8FFEE700687E
:1049A0003349884207D1502080F31188BFF34F8FDD
:1049B000BFF36F8FFEE72F4908780190FF20087042
:1049C000087800909DF800009DF8002000F0F000AD
:1049D000904207D0502080F31188BFF34F8FBFF370
:1049E0006F8FFEE79DF80000234C00F05000207010
:1049F0000720A0609DF8000010F0800F0BD0A06889
:104A0000401EA0609DF80000400000909DF800004E
:104A100010F0800FF3D1A068032807D0502080F356
:104A20001188BFF34F8FBFF36F8FFEE74FF44070D5
:104A3000A060019808701148016841F4700101609C
:104A4000016841F070410160FFF7E4FE0020606002
:104A5000FBF7DAFB0A48016841F040410160FBF7CF
:104A6000BFFB02B0002010BD00ED00E071C20F419D
:104A700070C20F4100E400E08000002020ED00E063
:104A800034EF00E010B5502080F31188BFF34F8F52
:104A9000BFF36F8F00F080F818B104494FF08050D9
:104AA0000860002080F3118810BD000004ED00E0D4
:104AB0002DE9F04F85B081460F9F0E9E8A469046A5
:104AC0009B464FEA8800FFF7B9FC054628000AD04C
:104AD0005420FFF7B3FC04460CB1256304E02846DC
:104AE000FFF766FE00E000249CB1002084F851002E
:104AF00003905B4642465146019700960294484611
:104B0000FFF7D4FB2046FFF711FB05B00120BDE8FD
:104B1000F08F05B04FF0FF30BDE8F08F70B586B074
:104B20000646DDF828C00C9C0B98002816D0ECB186
:104B3000542504952063022084F85100002005AD1F
:104B40000390CDF800C0019502943046FFF7AEFB0C
:104B50002046FFF7EBFA059806B070BD502080F3B1
:104B60001188BFF34F8FBFF36F8FFEE7502080F3A4
:104B70001188BFF34F8FBFF36F8FFEE70548416980
:104B8000002903D0006B18B1002070470120704746
:104B900002207047240000202DE9F0470026314F05
:104BA000386B002805D0B869401CB8613046BDE8B4
:104BB000F087F868451CFD609DB9786B006838B1D6
:104BC000502080F31188BFF34F8FBFF36F8FFEE744
:104BD000786BB96B7963B863386A401C3862FFF749
:104BE00003FCB86ADFF8808085420FD34FF00109DB
:104BF000786B006838B1786BC068C46860688542BB
:104C000012D2B86202E04FF0FF30B8623868C06A72
:104C100000EB800058F82000012800D90126F8692F
:104C20000028C3D00126C1E7201DFFF737FDA06A89
:104C300018B104F11800FFF731FDE16A3A6909FA89
:104C400001F01043386101EB810008EB8000211D69
:104C5000FFF76BFDE06A3968C96A8842C8D301264C
:104C6000C6E7000024000020D80600202DE9F04708
:104C70000024A0462D4D286B002807D0FFF762FDC9
:104C8000286B401E2863286B40B149E0502080F318
:104C90001188BFF34F8FBFF36F8FFEE7A86800281E
:104CA0003ED0234F3868012600B3A7F1B409F86855
:104CB000C46804F11800FFF7F1FC201DFFF7EEFCBB
:104CC000E06A2A6906FA00F11143296100EB8000CD
:104CD00009EB8000211DFFF728FDE06A2968C96AF9
:104CE000884200D3EE6138680028E0D10CB1FFF7AC
:104CF0007BFBAC6944B1FFF74FFF00B1EE61641E6E
:104D0000002CF8D10020A861E86948B14FF00108F3
:104D100008494FF080500860BFF34F8FBFF36F8F8B
:104D2000FFF730FD4046BDE8F0870000240000207A
:104D30008C07002004ED00E0C44D0008692B00083A
:104D400000000000000000008000000000000000E3
:104D500000000000D04D00083D3E000802000000A9
:104D6000000000000004000000000000000000003F
:104D7000B84D0008653D000802000000000000007A
:104D800000040000000000000000000000061016F3
:104D900000061016000000000000000001020304DD
:104DA000060708090000000001020304CDCCBC4046
:104DB0000000003F000080406368617373697354B2
:104DC00061736B0064656661756C745461736B002C
:104DD000636F6D6D755461736B000000FC4D0008CE
:104DE00000000020C400000010330008C04E00087E
:104DF000C4000020544A00002033000800000000D6
:104E000000000000000000000000000000000000A2
:104E10000100000010000000000000000024F40069
:104E20000000000000000000000000000000000082
:104E30000000000000000000000000000000000072
:104E40000000000000000000000000000000000062
:104E50000000000000000000000000000000000052
:104E60000000000000000000000000000000000042
:104E70000000000000000000000000000000000032
:104E8000AAAAAAAA0000000000000000000000007A
:104E90000000000000000000000000000000000012
:104EA0000000000000000000000000000000000002
:104EB00000000000000000000000000000000000F2
:04000005080001AD41
:00000001FF
