:020000040800F2
:10000000504900200D0300085F200008311D000842
:100010005D20000867050008412600080000000078
:100020000000000000000000000000004D02000879
:100030002106000800000000A90200086120000855
:1000400027030008270300082703000827030008E8
:1000500027030008270300082703000827030008D8
:100060002703000827030008270300087505000878
:1000700027030008270300082703000827030008B8
:10008000270300088105000827030008270300084C
:100090006905000827030008270300082703000854
:1000A0002703000827030008270300082703000888
:1000B0002703000827030008270300082703000878
:1000C0002703000827030008270300082703000868
:1000D0002703000827030008270300082703000858
:1000E0002703000827030008270300082703000848
:1000F0002703000827030008270300082703000838
:100100002703000827030008270300082703000827
:100110002703000827030008270300082703000817
:10012000270300088D05000827030008270300089F
:1001300027030008270300082703000827030008F7
:1001400027030008270300082703000827030008E7
:10015000270300089905000827030008A1250008C7
:1001600027030008270300082703000827030008C7
:1001700027030008270300082703000800000000E9
:100180002703000827030008270300086923000845
:100190002703000827030008270300082703000897
:1001A00000000000000000002703000800F002F833
:1001B00000F03CF80AA090E8000C82448344AAF1C5
:1001C0000107DA4501D100F031F8AFF2090EBAE8C3
:1001D0000F0013F0010F18BFFB1A43F0010318477B
:1001E000A4300000C4300000103A24BF78C878C1A1
:1001F000FAD8520724BF30C830C144BF04680C602D
:10020000704700000023002400250026103A28BF74
:1002100078C1FBD8520728BF30C148BF0B60704778
:100220001FB502F0DDFF1FBD10B510BD00F061F974
:100230001146FFF7F5FF02F016FA00F07FF903B45C
:10024000FFF7F2FF03BC00F087F900002C4B1968A0
:100250000868B0E8F04F80F30988BFF36F8F4FF064
:10026000000080F311887047000000000848006813
:10027000006880F308884FF0000080F3148862B6AD
:1002800061B6BFF34F8FBFF36F8F00DF00BF00BFBA
:1002900008ED00E0DFF80C00016841F47001016036
:1002A000704700BF88ED00E0EFF30980BFF36F8F68
:1002B000134B1A681EF0100F08BF20ED108A20E9BA
:1002C000F04F106009B44FF0500080F31188BFF375
:1002D0004F8FBFF36F8F02F077FD4FF0000080F378
:1002E000118809BC19680868B0E8F04F1EF0100FBB
:1002F00008BFB0EC108A80F30988BFF36F8F704796
:100300001C000020EFF3058070470000094880477B
:1003100009480047FEE7FEE7FEE7FEE7FEE7FEE7E7
:10032000FEE7FEE7FEE7FEE704480549054A064BFF
:10033000704700000D210008AD0100085043002067
:1003400050490020504500205045002053EA020C3F
:1003500000F069802DE9F04B4FF00006002B1FBF25
:10036000B3FA83F503FA05F424FA05F65E4012BFEA
:100370001643B2FA82F502FA05F4C5F120051EBF54
:1003800022FA05FC44EA0C04203556EA044C4FEAF4
:10039000144418BF641C4FF000084FF0000990424D
:1003A00071EB030C39D3002919BFB1FA81F701FAB7
:1003B00007F6B0FA80F700FA07F6C7F120071EBF6C
:1003C00020FA07FC46EA0C062037B6FBF4FCA7EB44
:1003D0000507103F07F01F0BCBF120060CFA0BFBB3
:1003E0002CFA06F644BFB3460026202FA4BF5E4673
:1003F0004FF0000B5BEA060C08BF4FF0010B19EB46
:100400000B09ABFB027C48EB0608C01B06FB02CCC9
:100410000BFB03CC71EB0C01C1E70B4602464146D6
:100420004846BDE8F08B13B54FF000004FF00001D7
:10043000AFF30080BDE81C40704710B5203AC0F013
:100440000B80B1E81850203AA0E81850B1E81850D5
:10045000A0E81850BFF4F5AF5FEA027C24BFB1E812
:100460001850A0E8185044BF18C918C0BDE8104083
:100470005FEA827C24BF51F8043B40F8043B08BF8C
:100480007047D20728BF31F8023B48BF11F8012B53
:1004900028BF20F8023B48BF00F8012B70474FF0FF
:1004A000000200B5134694469646203922BFA0E8C4
:1004B0000C50A0E80C50B1F12001BFF4F7AF0907D0
:1004C00028BFA0E80C5048BF0CC05DF804EB8900C1
:1004D00028BF40F8042B08BF704748BF20F8022B04
:1004E00011F0804F18BF00F8012B7047704770471C
:1004F0007047754600F02CF8AE4605006946534635
:1005000020F00700854618B020B5FFF70DFFBDE8C5
:1005100020404FF000064FF000074FF000084FF06A
:10052000000B21F00701AC46ACE8C009ACE8C009FB
:10053000ACE8C009ACE8C0098D46704710B5044668
:10054000AFF300802046BDE81040FFF778BE000002
:1005500000487047EC42002001491820ABBEFEE77E
:10056000260002007047FEE7014800F05DB8000079
:10057000DC020020014800F087BA00007C04002063
:10058000014800F081BA00001C040020014800F07E
:100590007BBA0000DC040020014800F075BA0000BE
:1005A0003C05002001681823CAB2103AB2FBF3F2EE
:1005B000054B6FF30901032A9B5CC36500D9091D34
:1005C00081650846704700004032000810B50146BA
:1005D00000208B698A6A4FF0C07453B1B3F5005F95
:1005E00015D072B1012A0CD0022A0AD0032A09D1EF
:1005F00004E01AB1012A06D0022A03D1C96AC9014E
:1006000000D5012010BDC96AA142FAD010BD002A50
:10061000F7D0012AF2D0022AF3D0032AF3D010BD7A
:10062000704772B6FEE770472DE9F05F0546006837
:1006300000244669D0F804908768D0F80CB0D0F850
:1006400010A0D0F81880F10748D0F90714D0012184
:100650008160B80703D5284600F0B4F90CE07807AC
:1006600002D54FF4006407E0380702D54FF48054F8
:1006700002E0284600F0A5F9F80516D529684FF4E0
:1006800080708860B80503D5284600F09DF90CE01D
:10069000780502D544F4005407E0380502D544F447
:1006A000804402E0284600F08EF9F80316D5296848
:1006B0004FF480308860B80303D5284600F086F9EF
:1006C0000CE0780302D544F4004407E0380302D577
:1006D00044F4803402E0284600F077F9300707D56B
:1006E0005FEACB6004D52968102044F40074C86028
:1006F00070074FF0080707D55FEA0B7004D528682C
:10070000C760284600F058F9B00706D52868C068C9
:10071000800702D0284600F050F9700607D55FEA3E
:10072000CA6004D52968102044F480640861B006CA
:1007300007D55FEA0A7004D528680761284600F0EB
:100740003DF9F00606D528680069800702D02846E2
:1007500000F035F9B00308D55FEAC96005D529680E
:1007600010204860284600F02BF9F00307D55FEA17
:10077000097004D528684760284600F028F930043D
:1007800046D55FEA497040D5F00504D55FEAC870E8
:1007900001D044F00104B00504D55FEA887001D5AA
:1007A00044F00204700504D55FEA487001D544F0B6
:1007B0000404300529D518F0700F26D008F0700019
:1007C000402815D006DC102809D020280AD030286F
:1007D00016D10AE050280ED0602811D10EE044F066
:1007E00008040DE044F010040AE044F0200407E09F
:1007F00044F0400404E044F0800401E044F48074D8
:100800002868816921F070018161296804204860AD
:10081000002C05D0686A204368622846FFF703FF72
:10082000BDE8F09F70B5040003D094F8200010B12B
:1008300004E0012070BD204600F082F820680168C5
:1008400041F00101016000F073FB0546052604E05C
:1008500000F06EFB401B0A2811D820684068C007D2
:10086000F6D02068016821F00201016000F060FB11
:1008700005460BE000F05CFB401B0A2806D9606AC5
:1008800040F40030606284F82060D2E7206840685D
:100890008007EFD4207E0128206801683DD021F038
:1008A00080010160607E01282068016838D021F055
:1008B00040010160A07E01282068016833D021F04A
:1008C00020010160E07E0128206801682ED041F0FF
:1008D00010010160207F01282068016829D021F0E3
:1008E00008010160607F01282068016824D021F0A0
:1008F00004010160D4E902010843D4E90412114360
:1009000008436168491E08432168C861002060628D
:10091000012084F82000002070BD41F08001C0E774
:1009200041F04001C5E741F02001CAE721F0100184
:10093000CFE741F00801D4E741F00401D9E7000016
:1009400010B586B0044614216846FFF7A8FD174984
:100950002068884227D116480021026842F00072C0
:100960000260006800F000700590114810380268BD
:1009700042F0080202600068022200F008000590C0
:100980000320CDE90210CDE9000209200490694658
:10099000084800F0B3F900220521142000F03AFBCA
:1009A000142000F029FB06B010BD000000640040D8
:1009B00040380240000C0240704770477047704753
:1009C000704770477047704770477047704770476F
:1009D0002DE9F0410446876D00F0AAFA064694F826
:1009E00035000025022806D08020606584F8345048
:1009F0000120BDE8F0812068016821F01601016046
:100A00002068416921F080014161206C08B9A06C27
:100A100020B12068016821F00801016020680168A8
:100A200021F0010101600CE000F082FA801B052832
:100A300007D920206065032084F8350084F83450FD
:100A4000D7E720680068C007EED194F85C103F201B
:100A50008840B860012084F8350084F834500020C4
:100A6000C7E790F83510022903D0802141650120A5
:100A70007047052180F835100068016821F00101F8
:100A800001600020704700002DE9F84304464FF054
:100A90000009CDF8009063484FF41651A56D006829
:100AA000B0FBF1F72E6894F85C10082000FA01F111
:100AB00031420FD021680A6852070BD50A6822F02C
:100AC00004020A6094F85C108840A860606D40F0F1
:100AD0000100606594F85C104FF0010808FA01F01D
:100AE000304208D021684969090604D5A860606DC4
:100AF00040F00200606594F85C10042088403042A9
:100B000008D021680968890704D5A860606D40F0A5
:100B10000400606594F85C1010208840304218D0C2
:100B200021680968090714D5A8602068016849038D
:100B300004D50068000308D5A16C07E00168C90569
:100B400003D4016821F008010160216C09B120463D
:100B5000884794F85C1020208840304231D02168CA
:100B60000968C9062DD5A86094F8350005282068C5
:100B7000016806D0490347D5006800031DD4616CA5
:100B80001CE021F0160101602068416921F080011C
:100B90004161206C08B9A06C20B12068016821F087
:100BA0000801016094F85C103F208840A86084F838
:100BB000358084F83490216D1FE0E16B09B1204647
:100BC0008847606D00282BD0606DC00714D00520C9
:100BD00084F835002068016821F001010160009867
:100BE000401C0090B84203D820680068C007F6D1C6
:100BF00084F8358084F83490E16C002910D001B07D
:100C00002046BDE8F04308470168C905D5D401680E
:100C100021F01001016084F8358084F83490CCE72D
:100C2000BDE8F883180000202DE9F041044600F0EB
:100C30007FF906465CB1022084F83500002584F86F
:100C400034502068016821F0010101600DE00120AD
:100C5000BDE8F08100F06CF9801B052805D9202043
:100C60006065032084F83500F2E720680068C0075B
:100C7000F0D12268116820480140D4E901031843EB
:100C8000D4E903363343184363691843A36918430F
:100C9000E3691843236A18430843616A042903D1AE
:100CA000D4E90B1319430843106020684069666A51
:100CB00020F0070130460E43012704280CD1A06A1A
:100CC0000643E06A40B12046FFF780FC20B1402097
:100CD000606584F83570BAE7206846612046FFF702
:100CE00061FC94F85C203F2191408160656584F847
:100CF00035700020ACE700003F8010F02DE9F84F80
:100D0000DFF8F8A10022012403254FF00F090AF1B2
:100D1000040BAAF1040E00BF0B6804FA02F633407C
:100D2000B34270D10F7907F00307012F01D0022FD2
:100D300016D187684FEA420805FA08FC27EA0C0733
:100D4000D1F80CC00CFA08FC4CEA070CC0F808C03B
:100D50004768B7430E79C6F3001696403E43466097
:100D60000E79F643B6070AD0C7684FEA420C05FA77
:100D70000CF6B7438E6806FA0CF63E43C6600E7951
:100D800006F00306022E10D1D60800EB8608D8F82C
:100D9000206057074FEAD76C09FA0CF7BE430F697A
:100DA00007FA0CF73743C8F8207006684FEA420C80
:100DB00005FA0CF7BE430F7907F0030707FA0CF7A3
:100DC000374307604E6816F4403F1CD04C4E3768DE
:100DD00047F480473760366822F0030706F4804600
:100DE0000096484E07EB060CDCF8086897073F0FA3
:100DF00009FA07F826EA0806DFF80C81404503D116
:100E00004FF0000841E072E0DFF80081404502D178
:100E10004FF0010839E0DFF8F880404502D14FF08B
:100E2000020832E0DFF8EC80404502D14FF00308C1
:100E30002BE0DFF8E480404502D14FF0040824E0C5
:100E4000DFF8D880404502D14FF005081DE0DFF8FB
:100E5000D080404502D14FF0060816E0DFF8C4808C
:100E6000404502D14FF007080FE0DFF8BC80404555
:100E700002D14FF0080808E0DFF8B080404502D109
:100E80004FF0090801E04FF00A0808FA07F848EAAD
:100E90000608CCF80888DAF800605746D1F804C094
:100EA0009E435FEACC2C00D51E433E60DBF8006019
:100EB0005F46D1F804C09E435FEA8C2C00D51E43E8
:100EC0003E60DEF800607746D1F804C09E435FEADA
:100ED0008C3C00D51E433E60084F083F3E68D1F869
:100EE00004C09E435FEACC3C00D51E433E60521CCA
:100EF000102AFFF411AFBDE8F88F0000083C014054
:100F0000443802400030014000000240000402402A
:100F100000080240000C0240001002400014024091
:100F200000180240001C0240002002400024024041
:100F300001488068704700000C000020024881686A
:100F400002781144816070470C0000200B4810B5F6
:100F5000016841F400710160016841F48061016041
:100F6000016841F480710160032000F073F80F20E4
:100F700000F006F800F024F8002010BD003C02400C
:100F800070B50D4D04464FF47A712878B1FBF0F03E
:100F90000A490968B1FBF0F000F010FB48B9102CC9
:100FA00007D200222146501E00F034F800206C6069
:100FB00070BD012070BD00000C0000201800002052
:100FC0000C4882B0016841F480410160006800F47F
:100FD000804000900748001F016841F08051016087
:100FE0000068002200F0805000900F21901E02B097
:100FF00000F010B844380240002809DB00F01F025E
:10100000012191404009800000F1E020C0F800116A
:1010100070470000F0B40E4B1B680C46C3F302236C
:10102000C3F10705042D00D90425191D072901D294
:10103000002300E0DB1E012606FA05F1491E2140CF
:1010400099409E40761E16403143F0BC01F0F9BA3B
:101050000CED00E0064900F0070208684FF6FF03B8
:10106000184040EA0220034A10430860704700001D
:101070000CED00E00000FA052DE9F0470E460500F2
:1010800065D0DFF81481D8F80000F7B200F00F0047
:10109000B04207D288F80070D8F8000000F00F00C6
:1010A000B04254D128683D4C810712D5400703D582
:1010B000206840F4E05020602878000703D52068BD
:1010C00040F4604020602068A96820F0F0000843E8
:1010D00020602878C0072DD0304968680839012879
:1010E00012D0022813D0032811D0096889070029DB
:1010F0002DDA216821F0030101432160FFF718FF79
:10110000814641F2883A0EE009688903EFE70968F1
:101110008901ECE7FFF70CFFA0EB0901514502D96B
:101120000320BDE8F0872068696800F00C00B0EB90
:10113000810FEFD1D8F80010404601F00F01B14205
:1011400007D90770006800F00F00B04201D00120FD
:10115000E7E72878400705D52068E96820F4E050E3
:10116000084320602878000706D52068296920F404
:10117000604040EAC100206000F038F82168084A69
:10118000C1F30311515CC840064908600648006875
:10119000FFF7F6FE0020C4E7003C0240083802409A
:1011A00048320008180000201000002004480549BB
:1011B00000680968044AC1F38221515CC840704745
:1011C0001800002008380240583200080448054939
:1011D00000680968044AC1F34231515CC840704755
:1011E000180000200838024058320008154810B591
:1011F000006810F00C02144813D01449042A0FD0D0
:10120000082A0ED10F4C241F2268236802F03F02E7
:101210005B0207D52068C0F38810A0FB010106E03F
:10122000084610BD2168C1F38811A1FB000100230D
:10123000FFF78CF82168C1F30141491C4900B0FB5C
:10124000F1F010BD083802400024F400001BB70084
:101250002DE9F84F04006ED02078DFF84C93C007DA
:10126000A9F104054AD009F104000168C1F3810124
:10127000012908D00068C0F3810002280AD1D9F8FA
:101280000000400206D52868800337D56068002832
:10129000E1D033E06068B0F5803F10D0B0F5A02F0A
:1012A000286810D020F480302860286820F480203E
:1012B00028606068A8B1FFF73BFE06460DE028688D
:1012C00040F48030F4E740F480202860F7E700BF66
:1012D000FFF72EFE801B642873D828688003F7D59B
:1012E0000CE0FFF725FE064605E000BFFFF720FEF5
:1012F000801B6428F0D828688003F7D42078DFF8B2
:10130000AC8280074FF0000A3ED5A748001D016857
:1013100011F00C0F08D00068C0F3810002280BD137
:10132000D9F80000400207D42868800716D5E06885
:10133000012800D112E033E1E068B8B10120C8F81B
:101340000000FFF7F5FD064605E000BFFFF7F0FDE2
:10135000801B0228C0D828688007F7D52868216933
:1013600020F0F80040EAC10028600DE0C8F800A0B5
:10137000FFF7DEFD064604E0FFF7DAFD801B0228DA
:101380001FD828688007F7D42078000722D5864F19
:1013900087486169703771B101210160FFF7C8FDAD
:1013A000064604E0FFF7C4FD801B022809D8386810
:1013B0008007F7D50EE0C0F800A0FFF7B9FD06469C
:1013C00005E082E0FFF7B4FD801B02287DD8386875
:1013D0008007F7D42078400768D5DFF8CCB1002724
:1013E0000BF13C0BDBF80000C0000BD4DBF8001065
:1013F00041F08051CBF80010DBF80000012700F02D
:10140000805000906B4E3068C00510D4306840F4B6
:1014100080703060FFF78CFD009005E0FFF788FDDD
:101420000099401A022850D83068C005F6D55E4EA3
:10143000A0686C3601280FD00528306810D020F045
:1014400001003060306820F004003060A068B8B15E
:10145000FFF76EFD00900FE0306840F00100F4E708
:1014600040F004003060F7E7FFF762FD0099411A91
:1014700041F28830814266D830688007F4D50EE0AA
:10148000FFF756FD009007E0FFF752FD0099411A63
:1014900041F28830814256D830688007F4D42FB1A9
:1014A000DBF8001021F08051CBF80010A069C8B320
:1014B0003D49091D0968C1F3810102294AD002286A
:1014C000504607D0C8F8600000E03CE0FFF730FD70
:1014D00004463BE04746C8F86000FFF729FD064692
:1014E00005E000BFFFF724FD801B02282BD82868E9
:1014F0008001F7D4D4E907010843A16A2E4A4908BC
:1015000002EB0141626A41EA8211084394F82C100F
:1015100040EA0161C9F8001001203866FFF708FDB4
:10152000044606E03EE000BFFFF702FD001B022874
:1015300009D828688001F7D534E000BFFFF7F8FC30
:10154000001B022802D90320BDE8F88F286880011B
:10155000F4D427E00128F7D0D9F80000E26900F4BC
:10156000800191421CD1226A00F03F01914217D1C3
:1015700047F6C071626A0140B1EB821F10D1A26AC6
:101580004FF0FF3300F4403103EB5202B1EB024F56
:1015900006D194F82C1000F07060B0EB016F01D010
:1015A0000120D1E70020CFE7043802400000474285
:1015B000800E4742007000400000FFFF10B5401E43
:1015C000B0F1807F01D3012010BD4FF0E0246061B5
:1015D0000F21601701F035F80020A061072020617D
:1015E000002010BD10B590F83C20012A22D0012225
:1015F00080F83C20CA688C6822F4407222434C6810
:1016000022F4806222430C6822F4006222430C69B7
:1016100022F4805222434C6922F400522243C969C9
:10162000002322F480420A4301684A6480F83C3077
:10163000002010BD022010BD70B590F83C20012A9A
:1016400032D0012480F83C40022280F83D2003681B
:101650005A689D6822F070060A6832435A60134B3C
:1016600002689A4214D0B2F1804F11D0104B9A42C6
:101670000ED0104B9A420BD00F4B9A4208D00F4B12
:101680009A4205D00E4B9A4202D00E4B9A4204D198
:10169000496825F080031943916080F83D4000219E
:1016A00080F83C10084670BD022070BD000001406B
:1016B0000004004000080040000C0040000401400D
:1016C000004001400018004010B586B004461421C7
:1016D0006846FEF7E4FE2368002117480222B3F1B2
:1016E000804F17D0154CA34212D1036843F4807386
:1016F0000360006800F48070059020200090CDE920
:1017000001210320CDE9031069460D48FFF7F6FAE1
:1017100006B010BD036843F001030360006800F0E9
:10172000010005900F200090CDE901210120CDE9B5
:10173000031069460348E9E73038024000040140DD
:10174000002002400000024070B5044690F83C00C2
:1017500000260D4601280FD0012084F83C006AB114
:10176000042A1DD0082A2FD00C2A3FD001260020A1
:1017700084F83C00304670BD022070BD206800F047
:1017800031FD2068816941F008018161206881692B
:1017900021F004018161206881692A69114311E007
:1017A000206800F04FFD2068816941F4006181618B
:1017B0002068816921F480618161206881692A69DA
:1017C00041EA02218161D2E7206800F071FD2068C2
:1017D000C16941F00801C1612068C16921F00401BB
:1017E000C1612068C1692A69114311E0206800F0D5
:1017F00093FD2068C16941F40061C1612068C1693D
:1018000021F48061C1612068C1692A6941EA02212D
:10181000C161ACE710B5040003D094F83D0010B1ED
:1018200007E0012010BD002084F83C00204600F0B5
:101830001FF8022084F83D00211D206800F06EFC96
:10184000012084F8460084F83E0084F83F0084F8C4
:10185000400084F8410084F8420084F8430084F892
:10186000440084F8450084F83D00002010BD0000CD
:1018700008B50068B0F1804F0CD00B49884208D100
:101880000A48016841F002010160006800F00200AE
:10189000009008BD0548001F016841F0010101608A
:1018A000006800F00100F3E7000401404438024002
:1018B00070477047F8B5016804460868CA684B6904
:1018C00010F00F0F4FF0000559D003F0010602F49D
:1018D0009077374365D0C10705D0D10503D5216C7A
:1018E00041F001012164410705D5D90703D0216CDE
:1018F00041F002012164810705D5D90703D0216C8D
:1019000041F004012164010707D502F020013143B1
:1019100003D0216C41F008012164216C00293AD0E8
:10192000800604D5900602D5204600F052FD2068BE
:101930004069216CC0F38010090700D460B32046D1
:1019400000F020FD20684069400621D52068143051
:1019500050E8001F21F0400140E80012002AF5D1B4
:10196000A06BA8B16C490165A06BFFF77AF800285D
:1019700011D0A06B016D01B0BDE8F04008478306AF
:101980000FD593060DD52046BDE8F84000F021BDE7
:101990002046FFF78EFFF8BD2046FFF78AFF25643B
:1019A000F8BD266B2023012E79D1C60677D5D60641
:1019B00075D50868486800904869400640D5A16B15
:1019C000086840680004000CEAD0A28D8242E7D982
:1019D000E085C869B0F5807F2DD020680C3050E8D4
:1019E000001F21F4807140E80012002AF5D1206820
:1019F000143050E8001F21F0010140E80012002AD5
:101A0000F5D12068143050E8001F21F0400140E873
:101A10000012002AF5D184F83E30256320680C308E
:101A200050E8001F21F0100140E80012002AF5D113
:101A3000A06BFEF7CDFFA08DE18D401A81B229E0A9
:101A4000A08DE18D401A81B2E08D0028A8D0002938
:101A5000A6D020680C3050E8002F22F4907240E8A5
:101A60000026002EF5D12068143050E8002F22F017
:101A7000010240E80026002EF5D184F83E302563AF
:101A800020680C3050E8002F22F0100240E80023BC
:101A9000002BF5D12046FFF70BFFF8BDFFE7050649
:101AA0002BD5150629D594F83D002128F5D1A0683D
:101AB000B0F5805F01D12069B0B1206A411C21627C
:101AC000216800784860E08C401E0004000CE0842F
:101AD000E3D12068C16821F08001C1602068C1683D
:101AE00041F04001C160D8E7206A0088C0F30800D7
:101AF0004860206A801C2062E5E74006CDD550068C
:101B0000CBD5CA68204622F04002CA6084F83D3036
:101B100000F00DF9C1E700007523000870B504005E
:101B200004D094F83D00002510B106E0012070BDFE
:101B300084F83C50204600F023F8242084F83D002F
:101B40002068C16821F40051C160204600F0A2FC69
:101B50002068016921F4904101612068416921F008
:101B60002A0141612068C16841F40051C1602564C7
:101B7000202084F83D0084F83E00002070BD000065
:101B80002DE9F04F87B0044614216846FEF787FC24
:101B9000DFF874C126685D4803210222082300256E
:101BA0004FF4003A4FF0400B4FF020674FF480693C
:101BB00066454ED1554E1036D6F800C04CF0004C5C
:101BC000C6F800C0366806F000460596066846F07E
:101BD00010060660006800F0100005908DE82600F1
:101BE000CDE9031369464A48FFF788F84A4E494849
:101BF000C8463060C6E90175C6E903597561B5612B
:101C0000C6E9075A30467562FFF70EF808B1FEF7CD
:101C100008FDA663B463404E3E4860369038C6E97E
:101C200003587561B56186E881084FF48030C6E9D4
:101C3000075030467562FEF7F7FF08B1FEF7F1FC7A
:101C40006663002205215320B463FFF7E3F95320B4
:101C500054E0DFF8C8C0664552D12C4E1436D6F891
:101C600000C04CF0200CC6F800C0366806F0200614
:101C70000596066846F040060660006800F04000E1
:101C80000590CDE903134FF484408DE825006946A3
:101C90002348FFF733F8204E2248C036B84630605C
:101CA000C6E90175C6E903597561B561C6E9075A08
:101CB0004F4630467562FEF7B7FF08B1FEF7B1FC3C
:101CC000A663B463184E1748C6E9035775617830A8
:101CD000B56186E801094FF48030C6E90750304607
:101CE0007562FEF7A1FF08B1FEF79BFC6663002258
:101CF00005214720B463FFF78DF94720FFF77CF9F2
:101D000007B0BDE8F08F0000007C00403038024092
:101D100000100240A06002401C040020001401409A
:101D200000180240286402403C05002070477047BC
:101D3000FEE700000F4810B50D4901600321416026
:101D400000214FF410228160C0E903124FF4001209
:101D50004261017641768176C17601774177FEF75F
:101D600061FD002803D0BDE81040FEF75ABC10BD4D
:101D700000640040DC020020194808B5016841F405
:101D800000110160016801F400110091016841F443
:101D9000800101600068002200F4800000900521AD
:101DA0000B20FFF737F90B20FFF726F9002205215A
:101DB0001120FFF72FF91120FFF71EF9002205214E
:101DC0003920FFF727F93920FFF716F900220521FE
:101DD0004520FFF71FF9BDE808404520FFF70CB983
:101DE0003038024010B596B01C2211496846FEF703
:101DF00024FB0021684600F05AFC0E4C0C491C22C2
:101E000020601C3107A8FEF718FB002107A800F08E
:101E10004EFC074960601C2238310EA8FEF70DFB0E
:101E200000210EA800F043FCA06016B010BD000019
:101E3000EC31000800000020194808B5016841F0A5
:101E400010010160016801F010010091016841F08A
:101E500040010160016801F040010091016841F01A
:101E600001010160016801F001010091016841F088
:101E700008010160016801F008010091016841F466
:101E800080710160016801F480710091016841F086
:101E900080010160006800F08000009008BD000033
:101EA0003038024010B58AB0002407941C216846DF
:101EB0000894FEF7F4FA23484FF080410160A7210F
:101EC000C0E9011444F61F61C0E903148461FFF7FF
:101ED000A1FC08B1FEF7A5FB079407A919480894CF
:101EE000FFF7AAFB08B1FEF79CFB602000904FF4BF
:101EF000FA60CDE901040022694612480494FFF714
:101F000023FC08B1FEF78DFB042269460D48FFF75C
:101F10001BFC08B1FEF785FB082269460948FFF75C
:101F200013FC08B1FEF77DFB0C2269460548FFF75C
:101F30000BFC08B1FEF775FB0248FFF7C5FB0AB0C2
:101F400010BD00000403002010B592B000240F94CF
:101F50001C2108A81094FEF7A2FA20216846FEF77B
:101F60009EFA21481F490160A721C0E9011444F6E7
:101F70001F61C0E9031444618461FFF74BFC08B1A1
:101F8000FEF74FFB0F940FA917481094FFF754FB6F
:101F900008B1FEF746FB602008904FF4FA60CDE9E7
:101FA00009040B940C940D94002208A90E480E9479
:101FB000FFF7CAFB08B1FEF734FB00944FF4005062
:101FC000CDE90440029401940394694606480794BD
:101FD000FFF708FB08B1FEF724FB0348FFF774FB8B
:101FE00012B010BD000401404C0300200C4810B595
:101FF0000A4901604FF4E1314160002181600C2207
:10200000C160C0E904128161C161FFF787FD00284A
:1020100003D0BDE81040FEF704BB10BD007C0040BB
:10202000940300200C4810B50A4901604FF4E131D7
:102030004160002181600C22C160C0E9041281610D
:10204000C161FFF76BFD002803D0BDE81040FEF72B
:10205000E8BA10BD00140140D8030020FEE7FEE7F7
:1020600010B5FEF76BFF00F0DDFF012803D0BDE8DF
:10207000104000F05BBF10BD30B593B03021684612
:10208000FEF70DFA14210CA8FEF709FA1D480025E9
:10209000016841F080510160006800F080501190AB
:1020A0001948016841F4404101600068022400F4CD
:1020B0004040119001200090000401908001CDE982
:1020C000064006200890A820CDE9090404200B90C2
:1020D0006846FFF7BDF808B172B6FEE70CA90F20FD
:1020E00081E831004FF4A0500F904FF480501090D1
:1020F00005210CA8FEF7C0FF002801D072B6FEE74C
:1021000013B030BD40380240007000400248016802
:1021100041F470010160704788ED00E0F0B502689D
:10212000254C264D264E274F274B4FF0804CA04282
:1021300009D0604507D0A84205D0B04203D0B842CC
:1021400001D0984204D122F0700E4A6842EA0E0291
:10215000A0421BD0604519D0A84217D0B04215D07C
:10216000B84213D0984211D0184DA8420ED0184D45
:10217000A8420BD0174DA84208D0174DA84205D051
:10218000164DA84202D0164DA84203D122F4407544
:10219000CA682A434D6922F080022A4302608A6895
:1021A000C2620A688262A04201D0984201D10969E4
:1021B000016301214161F0BD0000014000040040C5
:1021C00000080040000C00400004014000400140B5
:1021D000004401400048014000180040001C00403D
:1021E00000200040F0B5026A22F001020262036A98
:1021F00042688469124E24F073050C682C4323F066
:1022000002058B682B430D4DA84201D0B04205D189
:1022100023F00807CB683B4323F00403A84201D016
:10222000B04205D14D6922F4407215438A692A43B0
:1022300042608461496841630362F0BD000001406F
:1022400000040140F0B5026A22F010020262026A44
:10225000436884690D6824F4E64444EA05248D68E3
:1022600022F0200242EA05120F4D104EA84201D082
:10227000B04206D1CF6822F0800242EA071222F073
:102280004002A84201D0B04207D14D6923F4406317
:1022900043EA85038D6943EA8503436084614968A5
:1022A00081630262F0BD00000000014000040140B3
:1022B000F0B5026A22F480720262026A4368C4695D
:1022C00022F4007224F073050C68124E2C438D68C2
:1022D00042EA05220E4DA84201D0B04206D1CF6895
:1022E00022F4006242EA072222F48062A84201D06E
:1022F000B04207D14D6923F4405343EA05138D6979
:1023000043EA05134360C4614968C1630262F0BDDA
:10231000000001400004014030B5026A22F48052FE
:102320000262046A4268C3690D6823F4E64343EA23
:1023300005238D6824F4005444EA0534084DA8426E
:1023400002D0084DA84204D14D6922F4804242EAED
:1023500085124260C36149680164046230BD0000B7
:1023600000000140000401400148FFF7A3BA00004B
:102370009403002010B5806B0021C185C184FFF754
:1023800098FA10BD01680C3151E8002F22F49072C8
:1023900041E80023002BF5D10168143151E8002FEA
:1023A00022F0010241E80023002BF5D1016B012945
:1023B00009D101680C3151E8002F22F0100241E8E8
:1023C0000023002BF5D1202180F83E10002101636D
:1023D000704708B590F83E10222901D0022008BDB0
:1023E00082684FF480539A4201D1016921B1816A18
:1023F0009A421BD04AB10AE00268816A5268C2F36D
:1024000008020A80816A891C08E0026972B10268C8
:10241000526802F07F020A70816A491C8162C18D94
:10242000491E0904090CC18503D019E002685268ED
:10243000F1E70168CA6822F02002CA600168CA6830
:1024400022F48072CA6001684A6922F001024A617E
:10245000202180F83E10016B012903D0FFF766FCB4
:10246000002008BD0021016301680C3151E8002FF4
:1024700022F0100241E80023002BF5D101680A6820
:10248000D20602D50A6849680091818DFFF710FADB
:10249000E6E7000070B5044600680169E26821F4CF
:1024A0004051114301612169A068E26908436169F3
:1024B000114308432168CA6849F20C639A430243F6
:1024C000CA6020684169A26921F4407111434161E9
:1024D00031492068884202D03049884202D1FEF753
:1024E00075FE01E0FEF762FEE26900231921642512
:1024F0003226B2F5004F626828D0A0FB0101930F8D
:102500009200FDF723FF0146B0FBF5F06FF01802D3
:10251000504301EB800006EB0010B0FBF5F000F03B
:10252000F002B1FBF5F002EB0012B1FBF5F06FF039
:102530001803584301EB800006EB0010B0FBF5F0E8
:1025400000F00F0021681044886070BDA0FB0101FD
:1025500092185B41FDF7FAFE0146B0FBF5F002016F
:10256000B1FBF5F06FF01803584301EB800006EB68
:10257000C000B0FBF5F000F0F80002EB4002B1FB48
:10258000F5F0584301EB800006EBC000B0FBF5F01E
:1025900000F00700D6E700000010014000140140E1
:1025A000224818B400680168890604D501684068AB
:1025B000009018BC70471E490968C906F9D5016822
:1025C000406800901B4801680A684FF02803140314
:1025D000194A0C6824F001040C6001684C68C4F1CD
:1025E0002804A4B214804B6001680A680DD442F438
:1025F00000220A600068016841F001010160142CAA
:10260000D7D10E4901F110000CE022F400220A603B
:102610000068016841F001010160142CC9D107492B
:1026200001F1380018BC00F083BA0000D803002084
:1026300000140140DC040020840000208C420020B3
:10264000FEE70907090E002804DB00F1E02080F80E
:102650000014704700F00F0000F1E02080F8141D16
:10266000704770477047FEF771FCFFF705FDFFF7F5
:10267000E3FBFFF781FBFFF7B9FCFFF7D3FCFFF7A4
:1026800059FBFFF70FFCFFF75FFC00F07FFAFFF745
:10269000A9FB00F007F8FEE70021842800D0C11C48
:1026A0000846704710B500F043FB002010BD30B560
:1026B00085B004460D466169B4F90800002910D0C0
:1026C000A16971B1FFF7E8FF6269A1690192029106
:1026D00000902B4622692168606800F073FC04902A
:1026E00010E0FFF7D9FF04A901910090208A2B4642
:1026F00082B22168606800F02FFC012802D005B08A
:10270000002030BD049805B030BD000070B504460F
:1027100000F094FA1C4DA868401CA860286810B10D
:10272000686938B10CE02C60A868012808D100F075
:10273000EDF805E02868E16AC06A884200D82C609C
:10274000686A401C6862E06A01212A69814011437D
:1027500029610E4900EB800001EB8000211D00F093
:1027600061FA00F08BFA686900280CD02868E16AE9
:10277000C06A884207D206494FF080500860BFF314
:102780004F8FBFF36F8F70BD1C0000209C05002091
:1027900004ED00E070B50D4C6068002815D00C4EBB
:1027A00000F04CFAF068C568281D00F00FFAA06828
:1027B000401EA0606068401E606000F05FFA28461E
:1027C00000F008F860680028EAD170BD1C00002005
:1027D0006406002010B5044694F8511000290BD06F
:1027E000012911D0022914D0502080F31188BFF3A1
:1027F0004F8FBFF36F8FFEE7206B00F055FA204636
:10280000BDE8104000F050BA2046BDE8104000F08E
:102810004BBA10BD4FF47051104810F0070F06D09E
:10282000C01D20F007000D49411AC1F570510C4A36
:102830001060002353600144083921F00701183A61
:1028400011604B600B600B1A436001604068906040
:1028500050604FF000405061704700008C0600202F
:1028600070000020074E4FF08054074DFFF792FF95
:1028700030680128FAD92C60BFF34F8FBFF36F8FF8
:10288000F4E700009C05002004ED00E02DE9F0478E
:102890008146099E089D0A9C9A46521E206B00EBB9
:1028A000820020F00708002700290CD00020231800
:1028B0000A5C83F834200A5C12B1401C1028F6D35D
:1028C00084F8437001E084F83470072D00D30625A6
:1028D000E5626564A764201D00F0A1F904F1180009
:1028E00000F09DF92461C5F10700A0616462E7640E
:1028F00084F8507052464946404600F003F9206083
:10290000002E00D03460BDE8F087000070B50024D0
:102910000F4D04EB840005EB800000F075F9641C9A
:10292000072CF6D30B4800F06FF90B4800F06CF958
:102930000A4800F069F90A4800F066F9094800F011
:1029400063F90948034941631431816370BD000094
:102950009C050020280600203C0600205006002090
:1029600064060020780600201C00002010B41449E2
:1029700000E011460A688242FBD34B6803EB010C6E
:10298000844503D140681844486008460C68D0F874
:1029900004C00CEB0003A3420CD10A4B1B689A4203
:1029A00006D05268624442600A681268026002E01F
:1029B000036000E00260814200D0086010BC7047F4
:1029C00070000020580000200749486B006800286C
:1029D00005D0486BC068C0684068886270474FF097
:1029E000FF308862704700001C0000200A484068E1
:1029F000B0F1FF3F07D0502080F31188BFF34F8F15
:102A0000BFF36F8FFEE7502080F31188BFF34F8F25
:102A1000BFF36F8FFEE70000780000202DE9F04142
:102A20000546002600F0C8F9344F386808B9FFF7AA
:102A3000F1FE7869054251D19DB1083515F0070FB7
:102A40000FD005F00700C0F10800054415F0070F8E
:102A500007D0502080F31188BFF34F8FBFF36F8FE3
:102A6000FEE7002D3AD07868854237D824490846D9
:102A7000046801E0214604466068A84202D220684A
:102A80000028F7D13868844228D0086800F1080689
:102A9000206808606068411B10290FD9601910F088
:102AA000070F07D0502080F31188BFF34F8FBFF37B
:102AB0006F8FFEE741606560FFF758FF61687868D7
:102AC000401A7860BA68904200D2B86078690843CA
:102AD000606000202060F868401CF86000F01AFB7D
:102AE00016F0070F07D0502080F31188BFF34F8FE7
:102AF000BFF36F8FFEE73046BDE8F081580000203D
:102B000070000020001F4FF080730360001F21F051
:102B100001010160001F0549016014380260001FB7
:102B20006FF002010160203870470000ED290008B5
:102B30000278A52A0FD1C278837802EB032212B261
:102B4000024412795A2A06D14278022A04D0032A72
:102B500001D100790873704702790A7042794A708E
:102B600082798A70C279CA70027A0A71427A4A718D
:102B7000827A8A71C27ACA71027B0A72427B4A7275
:102B8000827B8A72C07BC872704770470C480068AD
:102B9000416941F0800141610A4801680A6822F0F8
:102BA00001020A6001680A68D207F7D10268064983
:102BB000916002680021D1600068416070470000A8
:102BC000D80300203C05002004140140016943683B
:102BD00082689A60836842685A604A68824201D17A
:102BE00082684A60002202610868401E0860086826
:102BF00070470000034B036003F15400086080201D
:102C0000106070478800002000F1080141604FF01B
:102C1000FF328260C16001610021016070470021C4
:102C20000161704742684A6093688B60936859609D
:102C3000916008610168491C01607047502080F371
:102C40001188BFF34F8FBFF36F8F0A494868401C4C
:102C5000486001280CD10848006810F0FF0F07D029
:102C6000502080F31188BFF34F8FBFF36F8FFEE7C3
:102C7000704700007800002004ED00E00949486832
:102C8000002806D0401E4860002801D180F311883A
:102C90007047502080F31188BFF34F8FBFF36F8FC1
:102CA000FEE700007800002070B500282AD0A0F1CF
:102CB0000804154D60686969084207D1502080F307
:102CC0001188BFF34F8FBFF36F8FFEE722683AB1D1
:102CD000502080F31188BFF34F8FBFF36F8FFEE753
:102CE0008843606000F068F860686968084468605C
:102CF0002046FFF73BFE2869401C2861BDE8704074
:102D000000F008BA70BD0000580000204FF0E0202D
:102D100000210161816105494FF47A720968B1FBB4
:102D2000F2F1491E4161072101617047180000203E
:102D300010B586B000240594049403AA04A905A83C
:102D4000FFF758FF05980499019102900023009421
:102D500015A11748039A00F035F91649C86208B161
:102D6000012000E0002001280AD0B0F1FF3F19D176
:102D7000502080F31188BFF34F8FBFF36F8FFEE7B2
:102D8000502080F31188BFF34F8FBFF36F8F4FF048
:102D9000FF30886201204861CC6006B0BDE8104079
:102DA00000F042B806B010BD49444C450000000098
:102DB000652800081C0000200248016B491C0163C3
:102DC000704700001C000020154A106B002802D03C
:102DD0000120D06170470020D0611069B0FA80F006
:102DE000C0F11F000F4900EB800051F8203073B193
:102DF00001EB800041684968416000F10803994295
:102E000001D1496841604068C06810607047502037
:102E100080F31188BFF34F8FBFF36F8FFEE7000081
:102E20001C0000209C05002010B582B038480168C5
:102E3000384A914207D1502080F31188BFF34F8F59
:102E4000BFF36F8FFEE700683349884207D15020F7
:102E500080F31188BFF34F8FBFF36F8FFEE72F49C9
:102E600008780190FF200870087800909DF8000015
:102E70009DF8002000F0F000904207D0502080F331
:102E80001188BFF34F8FBFF36F8FFEE79DF80000EF
:102E9000234C00F0500020700720A0609DF8000037
:102EA00010F0800F0BD0A068401EA0609DF80000BD
:102EB000400000909DF8000010F0800FF3D1A06852
:102EC000032807D0502080F31188BFF34F8FBFF342
:102ED0006F8FFEE74FF44070A060019808701148B2
:102EE000016841F470010160016841F070410160C6
:102EF000FFF70CFF00206060FDF7CCF90A4801687D
:102F000041F040410160FDF7B1F902B0002010BD71
:102F100000ED00E071C20F4170C20F4100E400E01B
:102F20007800002020ED00E034EF00E010B55020E4
:102F300080F31188BFF34F8FBFF36F8F00F080F8DD
:102F400018B104494FF080500860002080F31188C8
:102F500010BD000004ED00E02DE9F04F85B0814682
:102F60000F9F0E9E8A4690469B464FEA8800FFF7C9
:102F700055FD054628000AD05420FFF74FFD0446B2
:102F80000CB1256304E02846FFF78EFE00E0002424
:102F90009CB1002084F8510003905B4642465146A4
:102FA0000197009602944846FFF770FC2046FFF711
:102FB000ADFB05B00120BDE8F08F05B04FF0FF304C
:102FC000BDE8F08F70B586B00646DDF828C00C9CD1
:102FD0000B98002816D0ECB15425049520630220EC
:102FE00084F85100002005AD0390CDF800C0019594
:102FF00002943046FFF74AFC2046FFF787FB05980E
:1030000006B070BD502080F31188BFF34F8FBFF31F
:103010006F8FFEE7502080F31188BFF34F8FBFF30F
:103020006F8FFEE705484169002903D0006B18B196
:103030000020704701207047022070471C000020CC
:103040002DE9F0470026314F386B002805D0B869CC
:10305000401CB8613046BDE8F087F868451CFD604B
:103060009DB9786B006838B1502080F31188BFF3A8
:103070004F8FBFF36F8FFEE7786BB96B7963B863DF
:10308000386A401C3862FFF79FFCB86ADFF880801E
:1030900085420FD34FF00109786B006838B1786B27
:1030A000C068C4686068854212D2B86202E04FF01E
:1030B000FF30B8623868C06A00EB800058F8200022
:1030C000012800D90126F8690028C3D00126C1E7EC
:1030D000201DFFF77BFDA06A18B104F11800FFF76F
:1030E00075FDE16A3A6909FA01F01043386101EBB4
:1030F000810008EB8000211DFFF794FDE06A39682C
:10310000C96A8842C8D30126C6E700001C00002017
:103110009C0500202DE9F0470024A0462D4D286B8A
:10312000002807D0FFF78AFD286B401E2863286B14
:1031300040B149E0502080F31188BFF34F8FBFF3B7
:103140006F8FFEE7A86800283ED0234F386801261D
:1031500000B3A7F1B409F868C46804F11800FFF7D8
:1031600035FD201DFFF732FDE06A2A6906FA00F1FD
:103170001143296100EB800009EB8000211DFFF75E
:1031800051FDE06A2968C96A884200D3EE61386857
:103190000028E0D10CB1FFF717FCAC6944B1FFF790
:1031A0004FFF00B1EE61641E002CF8D10020A86131
:1031B000E86948B14FF0010808494FF080500860B5
:1031C000BFF34F8FBFF36F8FFFF758FD4046BDE849
:1031D000F08700001C0000205006002004ED00E0F5
:1031E0004FF04070E1EE100A7047000060320008B6
:1031F0008B2B00080200000000000000000400000B
:1032000000000000000000006C3200086326000887
:1032100002000000000000000004000000000000A8
:103220000000000078320008652600080200000057
:10323000000000000004000000000000000000008A
:103240000006101600061016000000000000000026
:10325000010203040607080900000000010203043C
:10326000736572766F5461736B00000063686173FD
:103270007369735461736B00636F6D6D7574617303
:103280006B000000A432000800000020880000004D
:10329000E80100082C33000888000020C84800001E
:1032A0000402000800000000000000000000000010
:1032B0000100000010000000000000000024F400E5
:1032C00000000000000000000000000000000000FE
:1032D00000000000000000000000000000000000EE
:1032E00000000000000000000000000000000000DE
:1032F00000000000000000000000000000000000CE
:1033000000000000000000000000000000000000BD
:1033100000000000000000000000000000000000AD
:0C332000AAAAAAAA0000000000000000F9
:04000005080001AD41
:00000001FF
