:020000040800F2
:10000000781100200D0300088329000887250008C7
:100010008129000867050008F92E0008000000008B
:100020000000000000000000000000004D02000879
:10003000D506000800000000A90200088529000874
:1000400027030008270300082703000827030008E8
:100050002703000827030008D70600082703000825
:10006000DD06000827030008270300081106000822
:100070001D060008270300082906000827030008BA
:100080002703000835060008270300082703000897
:100090006905000827030008270300082703000854
:1000A0002703000827030008270300082703000888
:1000B0002703000827030008270300082703000878
:1000C0002703000827030008270300082703000868
:1000D0002703000827030008270300082703000858
:1000E0002703000827030008270300082703000848
:1000F0002703000827030008270300082703000838
:100100002703000827030008270300082703000827
:100110002703000827030008270300082703000817
:1001200027030008410600082703000827030008EA
:1001300027030008270300082703000827030008F7
:100140007505000827030008270300082703000897
:10015000270300084D06000827030008ED2E0008BD
:1001600027030008270300082703000827030008C7
:1001700027030008270300082703000800000000E9
:100180002703000827030008A92C0008B52C000845
:100190002703000827030008270300082703000897
:1001A00000000000000000002703000800F002F833
:1001B00000F03CF80AA090E8000C82448344AAF1C5
:1001C0000107DA4501D100F031F8AFF2090EBAE8C3
:1001D0000F0013F0010F18BFFB1A43F0010318477B
:1001E000B0310000D0310000103A24BF78C878C187
:1001F000FAD8520724BF30C830C144BF04680C602D
:10020000704700000023002400250026103A28BF74
:1002100078C1FBD8520728BF30C148BF0B60704778
:100220001FB503F09FF81FBD10B510BD00F061F9B8
:100230001146FFF7F5FF02F0CBFE00F07FF903B4A3
:10024000FFF7F2FF03BC00F087F900002C4B1968A0
:100250000868B0E8F04F80F30988BFF36F8F4FF064
:10026000000080F311887047000000000848006813
:10027000006880F308884FF0000080F3148862B6AD
:1002800061B6BFF34F8FBFF36F8F00DF00BF00BFBA
:1002900008ED00E0DFF80C00016841F47001016036
:1002A000704700BF88ED00E0EFF30980BFF36F8F68
:1002B000134B1A681EF0100F08BF20ED108A20E9BA
:1002C000F04F106009B44FF0500080F31188BFF375
:1002D0004F8FBFF36F8F02F087FF4FF0000080F366
:1002E000118809BC19680868B0E8F04F1EF0100FBB
:1002F00008BFB0EC108A80F30988BFF36F8F704796
:1003000014000020EFF30580704700000948804783
:1003100009480047FEE7FEE7FEE7FEE7FEE7FEE7E7
:10032000FEE7FEE7FEE7FEE704480549054A064BFF
:1003300070470000312A0008AD010008780B00204A
:1003400078110020780D0020780D002053EA020C6F
:1003500000F069802DE9F04B4FF00006002B1FBF25
:10036000B3FA83F503FA05F424FA05F65E4012BFEA
:100370001643B2FA82F502FA05F4C5F120051EBF54
:1003800022FA05FC44EA0C04203556EA044C4FEAF4
:10039000144418BF641C4FF000084FF0000990424D
:1003A00071EB030C39D3002919BFB1FA81F701FAB7
:1003B00007F6B0FA80F700FA07F6C7F120071EBF6C
:1003C00020FA07FC46EA0C062037B6FBF4FCA7EB44
:1003D0000507103F07F01F0BCBF120060CFA0BFBB3
:1003E0002CFA06F644BFB3460026202FA4BF5E4673
:1003F0004FF0000B5BEA060C08BF4FF0010B19EB46
:100400000B09ABFB027C48EB0608C01B06FB02CCC9
:100410000BFB03CC71EB0C01C1E70B4602464146D6
:100420004846BDE8F08B13B54FF000004FF00001D7
:10043000AFF30080BDE81C40704710B5203AC0F013
:100440000B80B1E81850203AA0E81850B1E81850D5
:10045000A0E81850BFF4F5AF5FEA027C24BFB1E812
:100460001850A0E8185044BF18C918C0BDE8104083
:100470005FEA827C24BF51F8043B40F8043B08BF8C
:100480007047D20728BF31F8023B48BF11F8012B53
:1004900028BF20F8023B48BF00F8012B70474FF0FF
:1004A000000200B5134694469646203922BFA0E8C4
:1004B0000C50A0E80C50B1F12001BFF4F7AF0907D0
:1004C00028BFA0E80C5048BF0CC05DF804EB8900C1
:1004D00028BF40F8042B08BF704748BF20F8022B04
:1004E00011F0804F18BF00F8012B7047704770471C
:1004F0007047754600F02CF8AE4605006946534635
:1005000020F00700854618B020B5FFF70DFFBDE8C5
:1005100020404FF000064FF000074FF000084FF06A
:10052000000B21F00701AC46ACE8C009ACE8C009FB
:10053000ACE8C009ACE8C0098D46704710B5044668
:10054000AFF300802046BDE81040FFF778BE000002
:1005500000487047140B002001491820ABBEFEE78D
:10056000260002007047FEE7014800F02EBA0000A6
:1005700090000020014800F028BA0000B8000020D8
:1005800003B50E4A81B00021916010600820C2E9D5
:1005900003100B48A6226B46027041708170C17037
:1005A0009DF8082002719DF8092042718171C17186
:1005B00002460249034800F0A8F80EBD7C0800205E
:1005C000860000209000002008B564220D4B5143A6
:1005D00000229A6018600820C3E903200A48A72374
:1005E000037042708270C27001710A0A42710A0C73
:1005F0008271090EC17102466B460249034800F040
:1006000084F808BD7C0800208600002090000020AF
:10061000014800F0CDBC00005C030020014800F060
:10062000C7BC00003C020020014800F0C1BC000033
:100630009C020020014800F0BBBC0000FC0200202E
:10064000014800F0B5BC0000BC030020014800F0E8
:10065000AFBC00001C04002001681823CAB2103A85
:10066000B2FBF3F2054B6FF30901032A9B5CC365F0
:1006700000D9091D81650846704700006E330008E7
:1006800010B5014600208B698A6A4FF0C07453B1DF
:10069000B3F5005F15D072B1012A0CD0022A0AD03E
:1006A000032A09D104E01AB1012A06D0022A03D193
:1006B000C96AC90100D5012010BDC96AA142FAD09A
:1006C00010BD002AF7D0012AF2D0022AF3D0032A63
:1006D000F3D010BD7047012000F0B8BD042000F039
:1006E000B5BD72B6FEE790F82020012A07D0022A95
:1006F00005D0416A41F480214162012070470068C1
:1007000042690A43426100207047F0B590F82050DA
:100710000468A468012D05D0022D03D0416A41F47C
:10072000802153E014F0406F01D1E5004BD5C4F3B4
:100730000164022C03D9416A41F4000146E001251D
:10074000A5401D608D684FF4C0739DB1CE683543E0
:100750004E6845EAC605066803EB0417F5514FF4E9
:10076000C275076805EB04150E697E51097D0129E4
:1007700005D009E00E88CD6845EA4655EBE70168EB
:100780004E5946F480764E511179D2F805504FF407
:10079000C67641EA0525016806EB04168D511178ED
:1007A000D2F801204FF4C47541EA0221026805EB3A
:1007B00004155151006803EB0411425842F0010244
:1007C00042500020F0BD416A41F400114162012015
:1007D000F0BD000010B590F82020012A07D0022AB1
:1007E00005D0416A41F480214162012010BD3B489F
:1007F000D0F8002242F00102C0F80022D0F8002216
:1008000022F47C52C0F80022D0F800224B6A42EA5F
:100810000322C0F800220A7D02F01F0301229A4041
:10082000D0F81C329343C0F81C32CB69B3B9D0F86E
:100830000C329343C0F80C328C894B6864F31F432D
:100840004C6900EBC404C4F840320C890B6864F3B3
:100850001F434C6900EBC404C4F84432CB69012B3C
:1008600016D1D0F80C321343C0F80C320C884B6808
:1008700064F31F434C6900EBC404C4F840320C8994
:10088000CB6864F31F434C6900EBC404C4F84432E2
:100890008B69002BD0F804320ED01343C0F8043219
:1008A0000B69002BD0F8143208D01343C0F814326F
:1008B000096A012904D008E09343EFE79343F5E781
:1008C000D0F81C121143C0F81C12D0F8001221F00D
:1008D0000101C0F80012002010BD000000640040BB
:1008E000704730B590F82040012C05D0022C03D081
:1008F000416A41F480215DE00468002955D02469F3
:10090000A40754D04FF4D874056804EB01142D5992
:1009100015F00405956005682D594ED0ED08556019
:1009200005682C5904F00204D4604FF4DA740568A9
:1009300004EB01142D5905F00F05156105682D59BB
:10094000C5F30725956105682C59240C54614FF4B3
:10095000DC72046802EB0112A4581C700468A458ED
:10096000240A5C700468A458240C9C700468A25883
:10097000120EDA704FF4DE72046802EB0112A45812
:100980001C710468A458240A5C710468A458240CDF
:100990009C710468A258120EDA71006881B1016975
:1009A00041F020010161002030BDE468A8E7416A00
:1009B00041F400114162012030BD6D0D1560AFE7BB
:1009C000C16841F02001C160EDE72DE9F05F054607
:1009D000006800244669D0F804908768D0F80CB00D
:1009E000D0F810A0D0F81880F10748D0F90714D03B
:1009F00001218160B80703D5284600F078FA0CE0A1
:100A0000780702D54FF4006407E0380702D54FF4A9
:100A1000805402E0284600F069FAF80516D52968E6
:100A20004FF480708860B80503D5284600F061FA5D
:100A30000CE0780502D544F4005407E0380502D5EF
:100A400044F4804402E0284600F052FAF80316D538
:100A500029684FF480308860B80303D5284600F039
:100A60004AFA0CE0780302D544F4004407E0380366
:100A700002D544F4803402E0284600F03BFA300707
:100A800007D55FEACB6004D52968102044F40074D0
:100A9000C86070074FF0080707D55FEA0B7004D5F0
:100AA0002868C760284600F099F9B00706D528687D
:100AB000C068800702D0284600F092F9700607D57A
:100AC0005FEACA6004D52968102044F48064086194
:100AD000B00607D55FEA0A7004D528680761284682
:100AE00000F0D4F9F00606D528680069800702D026
:100AF000284600F0CCF9B00308D55FEAC96005D5F7
:100B0000296810204860284600F0C2F9F00307D594
:100B10005FEA097004D528684760284600F0ECF9C0
:100B2000300446D55FEA497040D5F00504D55FEA48
:100B3000C87001D044F00104B00504D55FEA8870A4
:100B400001D544F00204700504D55FEA487001D570
:100B500044F00404300529D518F0700F26D008F0B1
:100B60007000402815D006DC102809D020280AD0B3
:100B7000302816D10AE050280ED0602811D10EE09E
:100B800044F008040DE044F010040AE044F02004AE
:100B900007E044F0400404E044F0800401E044F441
:100BA00080742868816921F07001816129680420BE
:100BB0004860002C05D0686A204368622846FFF729
:100BC0008FFEBDE8F09F70B5040003D094F82000BC
:100BD00010B104E0012070BD204600F081F82068CB
:100BE000016841F00101016000F05CFC054605264A
:100BF00004E000F057FC401B0A2811D82068406828
:100C0000C007F6D02068016821F00201016000F001
:100C100049FC05460BE000F045FC401B0A2806D9BC
:100C2000606A40F40030606284F82060D2E7206897
:100C300040688007EFD4207E0128206801683DD0FD
:100C400021F080010160607E01282068016838D0B1
:100C500021F040010160A07E01282068016833D0A6
:100C600021F020010160E07E0128206801682ED07B
:100C700041F010010160207F01282068016829D01F
:100C800021F008010160607F01282068016824D0FC
:100C900021F004010160D4E902010843D4E90412FF
:100CA000114308436168491E08432168C861002058
:100CB0006062012084F82000002070BD41F08001B6
:100CC000C0E741F04001C5E741F02001CAE721F04B
:100CD0001001CFE741F00801D4E741F00401D9E762
:100CE000F0B587B0044614216846FFF7D8FB364BB1
:100CF0003648DFF8D0E01968D4F800C0334A03253D
:100D00000226092710300024491CF44522D119601D
:100D1000012907D1016841F000710160006800F00D
:100D200000700590106840F0080010601068CDE970
:100D3000005600F00800CDE9047069462448CDE96A
:100D4000024500F08FFA00220521142000F01CFC5F
:100D5000142033E0DFF87CE0F44531D1D0F800C056
:100D60004CF0806CC0F800C0D0F800C001290CF035
:100D7000806CCDF814C0196007D1016841F0007192
:100D80000160006800F000700590106840F00200FB
:100D90001060106802AB00F0020005904FF4405064
:100DA000CDE9000683E8B00069460B4800F05AFA26
:100DB00000220521402000F0E7FB402000F0D6FB98
:100DC00007B0F0BD00640040000000203038024051
:100DD000000C024000680040000402407047000020
:100DE00010B588B0274B6A460021FFF77AFD2548E9
:100DF000009AA0F11601B2F5017F0AD011DCA2F52C
:100E00008072413A32D0C02A03D0C12A01D0C22A0E
:100E10002AD1009A521ED2B20A7002EB82031A4AF9
:100E200011E0A2F50072053A05D0012A03D0022A8A
:100E300001D0032A18D1009A521FD2B24A7002EB95
:100E40008203114A283202EB430132F813400C812D
:100E5000048864BA22F81340428852BA4A808288D1
:100E600052BA8A808079887108B010BD05494278ED
:100E700008390A7042884A8082888A80C088C8807F
:100E8000F2E700007E0000202C0800207047704729
:100E90007047000070B5044690F82000012804D087
:100EA000606A40F40020606218E0022084F82000AC
:100EB0002068016821F00101016000F0F3FA0546A5
:100EC0000EE000BF00F0EEFA401B0A2808D9606A65
:100ED00040F400306062052084F82000012070BDDD
:100EE00020684068C007EDD1606270BD70477047F0
:100EF000704770477047704770472DE9F0410446CE
:100F0000876D00F0CFFA064694F8350000250228D8
:100F100006D08020606584F834500120BDE8F0815F
:100F20002068016821F0160101602068416921F004
:100F300080014161206C08B9A06C20B12068016873
:100F400021F0080101602068016821F001010160C1
:100F50000CE000F0A7FA801B052807D92020606567
:100F6000032084F8350084F83450D7E720680068FF
:100F7000C007EED194F85C103F208840B860012093
:100F800084F8350084F834500020C7E790F8351015
:100F9000022903D08021416501207047052180F896
:100FA00035100068016821F00101016000207047E0
:100FB0002DE9F84304464FF00009CDF8009063484E
:100FC0004FF41651A56D0068B0FBF1F72E6894F848
:100FD0005C10082000FA01F131420FD021680A6844
:100FE00052070BD50A6822F004020A6094F85C10DC
:100FF0008840A860606D40F00100606594F85C1066
:101000004FF0010808FA01F0304208D02168496920
:10101000090604D5A860606D40F00200606594F890
:101020005C1004208840304208D021680968890794
:1010300004D5A860606D40F00400606594F85C1011
:1010400010208840304218D021680968090714D55B
:10105000A86020680168490304D50068000308D52A
:10106000A16C07E00168C90503D4016821F00801FB
:101070000160216C09B12046884794F85C1020205B
:101080008840304231D021680968C9062DD5A86052
:1010900094F8350005282068016806D0490347D533
:1010A000006800031DD4616C1CE021F01601016092
:1010B0002068416921F080014161206C08B9A06C71
:1010C00020B12068016821F00801016094F85C10EB
:1010D0003F208840A86084F8358084F83490216DE2
:1010E0001FE0E16B09B120468847606D00282BD0D6
:1010F000606DC00714D0052084F8350020680168B1
:1011000021F0010101600098401C0090B84203D812
:1011100020680068C007F6D184F8358084F83490E0
:10112000E16C002910D001B02046BDE8F04308472B
:101130000168C905D5D4016821F01001016084F867
:10114000358084F83490CCE7BDE8F88310000020A7
:101150002DE9F041044600F0A5F906465CB10220F5
:1011600084F83500002584F834502068016821F0A7
:10117000010101600DE00120BDE8F08100F092F96D
:10118000801B052805D920206065032084F83500E0
:10119000F2E720680068C007F0D122681168204893
:1011A0000140D4E901031843D4E90336334318431B
:1011B00063691843A3691843E3691843236A184312
:1011C0000843616A042903D1D4E90B131943084386
:1011D000106020684069666A20F0070130460E43BF
:1011E000012704280CD1A06A0643E06A40B12046DA
:1011F000FFF746FA20B14020606584F83570BAE701
:10120000206846612046FFF727FA94F85C203F21CA
:1012100091408160656584F835700020ACE700007E
:101220003F8010F070B5044600F03CF90546601CA4
:1012300002D004480078044400F034F9401BA04276
:10124000FAD370BD0400002070470000044910B5B7
:101250000A68024202D00860FFF7F6FF10BD0000E6
:10126000143C01402DE9F84FDFF8F8A100220124D9
:1012700003254FF00F090AF1040BAAF1040E00BF79
:101280000B6804FA02F63340B34270D10F7907F0CD
:101290000307012F01D0022F16D187684FEA4208B9
:1012A00005FA08FC27EA0C07D1F80CC00CFA08FC78
:1012B0004CEA070CC0F808C04768B7430E79C6F37C
:1012C000001696403E4346600E79F643B6070AD0B4
:1012D000C7684FEA420C05FA0CF6B7438E6806FA67
:1012E0000CF63E43C6600E7906F00306022E10D1BE
:1012F000D60800EB8608D8F8206057074FEAD76C6D
:1013000009FA0CF7BE430F6907FA0CF73743C8F820
:10131000207006684FEA420C05FA0CF7BE430F79BD
:1013200007F0030707FA0CF7374307604E6816F417
:10133000403F1CD04C4E376847F4804737603668D2
:1013400022F0030706F480460096484E07EB060C91
:10135000DCF8086897073F0F09FA07F826EA08063D
:10136000DFF80C81404503D14FF0000841E072E006
:10137000DFF80081404502D14FF0010839E0DFF885
:10138000F880404502D14FF0020832E0DFF8EC80EF
:10139000404502D14FF003082BE0DFF8E4804045E0
:1013A00002D14FF0040824E0DFF8D880404502D194
:1013B0004FF005081DE0DFF8D080404502D14FF026
:1013C000060816E0DFF8C480404502D14FF0070858
:1013D0000FE0DFF8BC80404502D14FF0080808E07C
:1013E000DFF8B080404502D14FF0090801E04FF02E
:1013F0000A0808FA07F848EA0608CCF80888DAF874
:1014000000605746D1F804C09E435FEACC2C00D55B
:101410001E433E60DBF800605F46D1F804C09E4387
:101420005FEA8C2C00D51E433E60DEF800607746F4
:10143000D1F804C09E435FEA8C3C00D51E433E6059
:10144000084F083F3E68D1F804C09E435FEACC3C99
:1014500000D51E433E60521C102AFFF411AFBDE8B8
:10146000F88F0000083C0140443802400030014041
:10147000000002400004024000080240000C02404C
:10148000001002400014024000180240001C0240FC
:1014900000200240002402400AB181617047090423
:1014A000FBE700000148806870470000040000204E
:1014B000024881680278114481607047040000206E
:1014C0000B4810B5016841F400710160016841F4F6
:1014D00080610160016841F480710160032000F0C7
:1014E00073F80F2000F006F800F024F8002010BD7B
:1014F000003C024070B50D4D04464FF47A712878D7
:10150000B1FBF0F00A490968B1FBF0F000F010FB04
:1015100048B9102C07D200222146501E00F034F8A2
:1015200000206C6070BD012070BD00000400002030
:10153000100000200C4882B0016841F48041016035
:10154000006800F4804000900748001F016841F0E7
:10155000805101600068002200F0805000900F214F
:10156000901E02B000F010B844380240002809DB99
:1015700000F01F02012191404009800000F1E020AD
:10158000C0F8001170470000F0B40E4B1B680C4609
:10159000C3F30223C3F10705042D00D90425191D47
:1015A000072901D2002300E0DB1E012606FA05F11F
:1015B000491E214099409E40761E16403143F0BCA2
:1015C00001F09BBC0CED00E0064900F00702086842
:1015D0004FF6FF03184040EA0220034A1043086018
:1015E000704700000CED00E00000FA052DE9F0471F
:1015F0000E46050065D0DFF81481D8F80000F7B278
:1016000000F00F00B04207D288F80070D8F8000050
:1016100000F00F00B04254D128683D4C810712D52C
:10162000400703D5206840F4E05020602878000788
:1016300003D5206840F4604020602068A96820F04D
:10164000F000084320602878C0072DD03049686832
:101650000839012812D0022813D0032811D00968B4
:10166000890700292DDA216821F003010143216057
:10167000FFF718FF814641F2883A0EE009688903B6
:10168000EFE709688901ECE7FFF70CFFA0EB090120
:10169000514502D90320BDE8F0872068696800F051
:1016A0000C00B0EB810FEFD1D8F80010404601F0EC
:1016B0000F01B14207D90770006800F00F00B04277
:1016C00001D00120E7E72878400705D52068E968C0
:1016D00020F4E050084320602878000706D52068F1
:1016E000296920F4604040EAC100206000F038F829
:1016F0002168084AC1F30311515CC84006490860DB
:1017000006480068FFF7F6FE0020C4E7003C0240F0
:10171000083802407633000810000020080000203E
:101720000448054900680968044AC1F38221515CF4
:10173000C840704710000020083802408633000877
:101740000448054900680968044AC1F34231515C04
:10175000C840704710000020083802408633000857
:10176000154810B5006810F00C02144813D0144945
:10177000042A0FD0082A0ED10F4C241F2268236898
:1017800002F03F025B0207D52068C0F38810A0FB7F
:10179000010106E0084610BD2168C1F38811A1FBD4
:1017A00000010023FEF7D2FD2168C1F30141491C6D
:1017B0004900B0FBF1F010BD083802400024F400ED
:1017C000001BB7002DE9F84F04006ED02078DFF839
:1017D0004C93C007A9F104054AD009F1040001683F
:1017E000C1F38101012908D00068C0F381000228FB
:1017F0000AD1D9F80000400206D52868800337D501
:1018000060680028E1D033E06068B0F5803F10D018
:10181000B0F5A02F286810D020F480302860286808
:1018200020F4802028606068A8B1FFF73BFE0646E0
:101830000DE0286840F48030F4E740F48020286010
:10184000F7E700BFFFF72EFE801B642873D82868D7
:101850008003F7D50CE0FFF725FE064605E000BF44
:10186000FFF720FE801B6428F0D828688003F7D497
:101870002078DFF8AC8280074FF0000A3ED5A748F9
:10188000001D016811F00C0F08D00068C0F3810042
:1018900002280BD1D9F80000400207D4286880073D
:1018A00016D5E068012800D112E033E1E068B8B154
:1018B0000120C8F80000FFF7F5FD064605E000BF6F
:1018C000FFF7F0FD801B0228C0D828688007F7D5F5
:1018D0002868216920F0F80040EAC10028600DE086
:1018E000C8F800A0FFF7DEFD064604E0FFF7DAFDCA
:1018F000801B02281FD828688007F7D420780007AB
:1019000022D5864F87486169703771B10121016026
:10191000FFF7C8FD064604E0FFF7C4FD801B022860
:1019200009D838688007F7D50EE0C0F800A0FFF7A7
:10193000B9FD064605E082E0FFF7B4FD801B0228F2
:101940007DD838688007F7D42078400768D5DFF85D
:10195000CCB100270BF13C0BDBF80000C0000BD42E
:10196000DBF8001041F08051CBF80010DBF80000EC
:10197000012700F0805000906B4E3068C00510D4F5
:10198000306840F480703060FFF78CFD009005E017
:10199000FFF788FD0099401A022850D83068C0052A
:1019A000F6D55E4EA0686C3601280FD00528306849
:1019B00010D020F001003060306820F0040030606A
:1019C000A068B8B1FFF76EFD00900FE0306840F0FE
:1019D0000100F4E740F004003060F7E7FFF762FD34
:1019E0000099411A41F28830814266D830688007F8
:1019F000F4D50EE0FFF756FD009007E0FFF752FD2B
:101A00000099411A41F28830814256D830688007E7
:101A1000F4D42FB1DBF8001021F08051CBF8001086
:101A2000A069C8B33D49091D0968C1F381010229B4
:101A30004AD00228504607D0C8F8600000E03CE0D9
:101A4000FFF730FD04463BE04746C8F86000FFF76B
:101A500029FD064605E000BFFFF724FD801B022894
:101A60002BD828688001F7D4D4E907010843A16A7C
:101A70002E4A490802EB0141626A41EA8211084399
:101A800094F82C1040EA0161C9F800100120386672
:101A9000FFF708FD044606E03EE000BFFFF702FD49
:101AA000001B022809D828688001F7D534E000BF60
:101AB000FFF7F8FC001B022802D90320BDE8F88FCD
:101AC00028688001F4D427E00128F7D0D9F8000075
:101AD000E26900F4800191421CD1226A00F03F01CA
:101AE000914217D147F6C071626A0140B1EB821F83
:101AF00010D1A26A4FF0FF3300F4403103EB5202E1
:101B0000B1EB024F06D194F82C1000F07060B0EBEE
:101B1000016F01D00120D1E70020CFE70438024057
:101B200000004742800E4742007000400000FFFF67
:101B300010B5401EB0F1807F01D3012010BD4FF0E1
:101B4000E02460610F21601701F0D7F90020A06147
:101B500007202061002010BD10B590F83C20012A1C
:101B600022D0012280F83C20CA688C6822F440729E
:101B700022434C6822F4806222430C6822F4006203
:101B800022430C6922F4805222434C6922F4005211
:101B90002243C969002322F480420A4301684A644F
:101BA00080F83C30002010BD022010BD70B590F8C8
:101BB0003C20012A32D0012480F83C40022280F8E7
:101BC0003D2003685A689D6822F070060A68324317
:101BD0005A60134B02689A4214D0B2F1804F11D070
:101BE000104B9A420ED0104B9A420BD00F4B9A4298
:101BF00008D00F4B9A4205D00E4B9A4202D00E4BA2
:101C00009A4204D1496825F080031943916080F815
:101C10003D40002180F83C10084670BD022070BD98
:101C2000000001400004004000080040000C00409B
:101C300000040140004001400018004090F83D10B1
:101C4000012901D001207047022180F83D10006871
:101C50001149884214D0B0F1804F11D00F49884209
:101C60000ED00F4988420BD00E49884208D00E4949
:101C7000884205D00D49884202D00D49884204D1DE
:101C8000816801F00701062903D0016841F00101D4
:101C90000160002070470000000001400004004087
:101CA00000080040000C00400004014000400140DA
:101CB0000018004010B586B0044614216846FEF7AF
:101CC000EEFB2368002117480222B3F1804F17D0A2
:101CD000154CA34212D1036843F48073036000687B
:101CE00000F48070059020200090CDE901210320B0
:101CF000CDE9031069460D48FFF7B4FA06B010BDF0
:101D0000036843F001030360006800F001000590E0
:101D10000F200090CDE901210120CDE90310694693
:101D20000348E9E730380240000401400020024047
:101D30000000024070B5044690F83C0000260D46B5
:101D400001280FD0012084F83C006AB1042A1DD07C
:101D5000082A2FD00C2A3FD00126002084F83C000E
:101D6000304670BD022070BD206800F0DBFE2068A8
:101D7000816941F0080181612068816921F00401D5
:101D80008161206881692A69114311E0206800F0AF
:101D9000F9FE2068816941F40061816120688169F0
:101DA00021F480618161206881692A6941EA022108
:101DB0008161D2E7206800F01BFF2068C16941F013
:101DC0000801C1612068C16921F00401C161206876
:101DD000C1692A69114311E0206800F03DFF2068C5
:101DE000C16941F40061C1612068C16921F4806169
:101DF000C1612068C1692A6941EA0221C161ACE779
:101E000010B5040003D094F83D0010B107E00120A4
:101E100010BD002084F83C00204600F01FF802208E
:101E200084F83D00211D206800F00AFE012084F89E
:101E3000460084F83E0084F83F0084F8400084F8AF
:101E4000410084F8420084F8430084F8440084F898
:101E5000450084F83D00002010BD000008B5006872
:101E6000B0F1804F0CD00B49884208D10A48016874
:101E700041F002010160006800F00200009008BD1E
:101E80000548001F016841F001010160006800F091
:101E90000100F3E7000401404438024010B5044655
:101EA000022249B104290ED0082913D094F8410028
:101EB000012816D0012010BD94F83E000128F9D168
:101EC00084F83E200FE094F83F000128F2D184F816
:101ED0003F2008E094F840000128EBD184F840202E
:101EE00001E084F841200122206800F00DFE16492F
:101EF0002068164A884201D0904203D1436C43F4D3
:101F0000004343642068884213D0B0F1804F10D062
:101F10000F4988420DD00F4988420AD00E498842A5
:101F200007D0904205D00D49884202D00C49884222
:101F300004D1816801F00701062903D0016841F04E
:101F400001010160002010BD0000014000040140BB
:101F50000004004000080040000C00400040014028
:101F6000001800407047016C090702D5006801683D
:101F700040687047F8B5016804460868CA684B694C
:101F800010F00F0F4FF0000559D003F0010602F4D6
:101F90009077374365D0C10705D0D10503D5216CB3
:101FA00041F001012164410705D5D90703D0216C17
:101FB00041F002012164810705D5D90703D0216CC6
:101FC00041F004012164010707D502F020013143EB
:101FD00003D0216C41F008012164216C00293AD022
:101FE000800604D5900602D5204600F098FE2068B1
:101FF0004069216CC0F38010090700D460B320460B
:1020000000F066FE20684069400621D52068143043
:1020100050E8001F21F0400140E80012002AF5D1ED
:10202000A06BA8B16C490165A06BFEF7AFFF00285B
:1020300011D0A06B016D01B0BDE8F04008478306E8
:102040000FD593060DD52046BDE8F84000F067BED9
:102050002046FFF788FFF8BD2046FFF784FF256480
:10206000F8BD266B2023012E79D1C60677D5D6067A
:1020700075D50868486800904869400640D5A16B4E
:10208000086840680004000CEAD0A28D8242E7D9BB
:10209000E085C869B0F5807F2DD020680C3050E80D
:1020A000001F21F4807140E80012002AF5D1206859
:1020B000143050E8001F21F0010140E80012002A0E
:1020C000F5D12068143050E8001F21F0400140E8AD
:1020D0000012002AF5D184F83E30256320680C30C8
:1020E00050E8001F21F0100140E80012002AF5D14D
:1020F000A06BFEF702FFA08DE18D401A81B229E0AE
:10210000A08DE18D401A81B2E08D0028A8D0002971
:10211000A6D020680C3050E8002F22F4907240E8DE
:102120000026002EF5D12068143050E8002F22F050
:10213000010240E80026002EF5D184F83E302563E8
:1021400020680C3050E8002F22F0100240E80023F5
:10215000002BF5D12046FFF705FFF8BDFFE7050688
:102160002BD5150629D594F83D002128F5D1A06876
:10217000B0F5805F01D12069B0B1206A411C2162B5
:10218000216800784860E08C401E0004000CE08468
:10219000E3D12068C16821F08001C1602068C16876
:1021A00041F04001C160D8E7206A0088C0F3080010
:1021B0004860206A801C2062E5E74006CDD55006C5
:1021C000CBD5CA68204622F04002CA6084F83D3070
:1021D00000F0D8F9C1E70000C12C000870B5040078
:1021E00004D094F83D00002510B106E0012070BD38
:1021F00084F83C50204600F023F8242084F83D0069
:102200002068C16821F40051C160204600F0E8FD5B
:102210002068016921F4904101612068416921F041
:102220002A0141612068C16841F40051C160256400
:10223000202084F83D0084F83E00002070BD00009E
:102240002DE9F04F87B0054614216846FEF727F9BF
:102250009B48DFF868821038D5F800C0DFF860B21C
:10226000022203210823DFF85CE2002406154FF068
:1022700040094FF02067C44557D1DBF8008048F093
:102280008048CBF80080DBF800C00CF0804CCDF823
:1022900014C0D0F800C04CF0100CC0F800C00068AA
:1022A00000F010000590CDE90313C8018DE815007A
:1022B00069467046FEF7D6FFDFF810A28249504605
:1022C000B846C0E90346CAF81440CAF81840CAF82C
:1022D0001C40CAF820408AE80203CAF82440FEF7EE
:1022E00037FF08B1FEF7FDF9784F7748C5F834A0FD
:1022F00060373030CAF838503860C7E90184C7E920
:1023000003467C61BC61FC613C6238467C62FEF73E
:102310001FFF08B1FEF7E5F9AF6300220521522047
:10232000BD63FFF731F952205FE0DFF8A481C445B7
:1023300060D1DBF80080A24648F00048CBF800806E
:10234000DBF800C00CF0004CCDF814C0D0F800C091
:102350004CF0100CC0F800C0006800F010000590B0
:102360008DE81600CDE9031369467046FEF77AFF43
:10237000DFF85881544908F1C00878314046C8F860
:102380000010C0E90174C0E903468915C8F814407B
:10239000C0E906414902C8E90814FEF7D9FE08B1B0
:1023A000FEF79FF948484B4CC5F838801838C8F8F4
:1023B000385084E88102C4E903A6C4F814A04FF49D
:1023C0008031C4F818A0C4E907A12046C4F824A0AD
:1023D000FEF7BEFE08B1FEF784F96C63002205210A
:1023E0005320A563FFF7D0F85320FFF7BFF807B0DD
:1023F000BDE8F08FDFF8E080C445F8D1DFF8C0C059
:102400000CF1040CDCF8008048F02008CCF80080C7
:10241000DCF800C00CF0200CCDF814C0D0F800C0DF
:102420004CF0400CC0F800C0006800F0400005907F
:10243000CDE903134FF484408DE815006946274821
:10244000FEF710FFDFF88CA025490AF1600A50461C
:10245000CAF80010C0E90174C0E903468915CAF83A
:102460001440C0E906414902CAE90814B846FEF71B
:102470006FFE08B1FEF735F9164FC5F838A0C03722
:10248000CAF83850C7E9034615487C617830BC610A
:1024900087E801034FF48030C7E9074038467C6283
:1024A000FEF756FE08B1FEF71CF96F630022052106
:1024B0004720BD63FFF768F8472096E700780040A3
:1024C0004038024000100240286002403C020020D8
:1024D000007C00405C030020001401400018024012
:1024E0002864024070B505460068224988421BD125
:1024F000214901200023214C886003E003F11B00E7
:102500003C2811DAE05C0D280BD1E01841780A294B
:1025100007D1817E0A2904D1C17E0D2901D100F0A5
:1025200045FD5B1C212BE9DB15492868884220D139
:10253000124C00236434E05CA52817D1E0184578DC
:102540005A2D13D08278191D5618222E0EDA2244E5
:10255000515C5A290AD1022D02D0032D06D102E086
:1025600000F008FD02E00449007908705B1C222B92
:10257000E1DB70BD007C0040500000206C070020B3
:10258000001401407047FEE70F4810B50D49016087
:102590000321416000214FF410228160C0E9031241
:1025A0004FF400124261017641768176C17601775F
:1025B0004177FEF708FB002803D0BDE81040FEF786
:1025C00090B810BD00640040900000200F4810B586
:1025D0000D4901600321416000214FF41022816008
:1025E000C0E903124FF40012426101764176817610
:1025F000C17601774177FEF7E6FA002803D0BDE8FF
:102600001040FEF76EB810BD00680040B800002012
:10261000214808B5016841F400110160016801F426
:1026200000110091016841F48001016000680022FE
:1026300000F48000009005210B20FEF7A5FF0B2081
:10264000FEF794FF002205210C20FEF79DFF0C20D1
:10265000FEF78CFF002205210E20FEF795FF0E20CD
:10266000FEF784FF002205211120FEF78DFF1120C7
:10267000FEF77CFF002205213920FEF785FF392077
:10268000FEF774FF002205214520FEF77DFFBDE81F
:1026900008404520FEF76ABF30380240F0B587B0E9
:1026A00014216846FDF7FBFE36480024016841F01E
:1026B00010010160016801F010010591016841F00D
:1026C00040010160016801F040010591016841F09D
:1026D00001010160016801F001010591016841F00B
:1026E00008010160016801F008010591016841F4E9
:1026F00080710160016801F480710591016841F009
:1027000080010160016801F080010591016841F0DC
:102710000201016000681C4F00F0020005900022D9
:1027200002213846FEF7B8FE01254FF44416009505
:10273000CDE9016469461548FEF794FD0420CDE912
:102740000006694602941248FEF78CFD0220CDE98E
:102750000005CDE9025469463846FEF783FD0022A4
:1027600005210620FEF710FF0620FEF7FFFE0022DF
:1027700005210820FEF708FF0820FEF7F7FE07B046
:10278000F0BD000030380240001802400020024036
:102790000004024010B58AB0002407941C2168464A
:1027A0000894FDF77CFE22484FF080410160A7218C
:1027B000C0E9011444F61F61C0E903148461FFF706
:1027C0001FFB08B1FDF78DFF079407A9184808946F
:1027D000FFF7ECF908B1FDF784FF6020CDE90004B4
:1027E00002940022694612480494FFF7A3FA08B144
:1027F000FDF777FF042269460D48FFF79BFA08B101
:10280000FDF76FFF082269460948FFF793FA08B100
:10281000FDF767FF0C2269460548FFF78BFA08B100
:10282000FDF75FFF0248FFF745FA0AB010BD000050
:10283000E000002010B592B000240F941C2108A8DD
:102840001094FDF72CFE20216846FDF728FE214854
:102850001F490160A721C0E9011444F61F61C0E9C6
:10286000031444618461FFF7CBFA08B1FDF739FF27
:102870000F940FA917481094FFF798F908B1FDF7C6
:1028800030FF602008904FF4FA60CDE909040B9402
:102890000C940D94002208A90E480E94FFF74AFAF2
:1028A00008B1FDF71EFF00944FF40050CDE904403D
:1028B000029401940394694606480794FFF74CF983
:1028C00008B1FDF70EFF0348FFF7F4F912B010BD91
:1028D00000040140280100200C4810B50A4901609D
:1028E0004FF4E1314160002181600C22C160C0E9F8
:1028F00004128161C161FFF771FC002803D0BDE8BB
:102900001040FDF7EEBE10BD0078004070010020C1
:102910000C4810B50A4901604FF4E13141600021D3
:1029200081600C22C160C0E904128161C161FFF7BE
:1029300055FC002803D0BDE81040FDF7D2BE10BD05
:10294000007C0040B40100200C4810B50A49016029
:102950004FF4E1314160002181600C22C160C0E987
:1029600004128161C161FFF739FC002803D0BDE882
:102970001040FDF7B6BE10BD00140140F801002064
:10298000FEE7FEE710B5FEF793FD00F073FC0128AB
:1029900003D0BDE8104000F057BC10BD30B593B077
:1029A00030216846FDF77BFD14210CA8FDF777FD6B
:1029B0001D480025016841F080510160006800F069
:1029C000805011901948016841F44041016000684D
:1029D000022400F440401190012000900004019076
:1029E0008001CDE9064006200890A820CDE9090421
:1029F00004200B906846FEF7E5FE08B172B6FEE7CC
:102A00000CA90F2081E831004FF4A0500F904FF433
:102A10008050109005210CA8FEF7E8FD002801D099
:102A200072B6FEE713B030BD40380240007000407F
:102A30000248016841F470010160704788ED00E0D0
:102A4000F0B50268254C264D264E274F274B4FF0F8
:102A5000804CA04209D0604507D0A84205D0B042C2
:102A600003D0B84201D0984204D122F0700E4A68D7
:102A700042EA0E02A0421BD0604519D0A84217D0EE
:102A8000B04215D0B84213D0984211D0184DA84288
:102A90000ED0184DA8420BD0174DA84208D0174DA4
:102AA000A84205D0164DA84202D0164DA84203D127
:102AB00022F44075CA682A434D6922F080022A43F5
:102AC00002608A68C2620A688262A04201D09842AB
:102AD00001D10969016301214161F0BD000001409C
:102AE0000004004000080040000C004000040140C9
:102AF00000400140004401400048014000180040EF
:102B0000001C00400020004010B501F01F0301210F
:102B1000046A99408C430462016A9A40114301623D
:102B200010BD0000F0B5026A22F001020262036AE1
:102B300042688469124E24F073050C682C4323F01C
:102B400002058B682B430D4DA84201D0B04205D140
:102B500023F00807CB683B4323F00403A84201D0CD
:102B6000B04205D14D6922F4407215438A692A4367
:102B700042608461496841630362F0BD0000014026
:102B800000040140F0B5026A22F010020262026AFB
:102B9000436884690D6824F4E64444EA05248D689A
:102BA00022F0200242EA05120F4D104EA84201D039
:102BB000B04206D1CF6822F0800242EA071222F02A
:102BC0004002A84201D0B04207D14D6923F44063CE
:102BD00043EA85038D6943EA85034360846149685C
:102BE00081630262F0BD000000000140000401406A
:102BF000F0B5026A22F480720262026A4368C46914
:102C000022F4007224F073050C68124E2C438D6878
:102C100042EA05220E4DA84201D0B04206D1CF684B
:102C200022F4006242EA072222F48062A84201D024
:102C3000B04207D14D6923F4405343EA05138D692F
:102C400043EA05134360C4614968C1630262F0BD91
:102C5000000001400004014030B5026A22F48052B5
:102C60000262046A4268C3690D6823F4E64343EADA
:102C700005238D6824F4005444EA0534084DA84225
:102C800002D0084DA84204D14D6922F4804242EAA4
:102C900085124260C36149680164046230BD00006E
:102CA00000000140000401400148FFF763B9000043
:102CB000700100200148FFF75DB90000B401002059
:102CC00010B5806B0021C185C184FFF74CF910BDA0
:102CD00001680C3151E8002F22F4907241E8002382
:102CE000002BF5D10168143151E8002F22F00102C8
:102CF00041E80023002BF5D1016B012909D10168BE
:102D00000C3151E8002F22F0100241E80023002B83
:102D1000F5D1202180F83E1000210163704708B5ED
:102D200090F83E10222901D0022008BD82684FF49D
:102D300080539A4201D1016921B1816A9A421BD024
:102D40004AB10AE00268816A5268C2F308020A8046
:102D5000816A891C08E0026972B10268526802F057
:102D60007F020A70816A491C8162C18D491E090473
:102D7000090CC18503D019E002685268F1E70168C7
:102D8000CA6822F02002CA600168CA6822F4807210
:102D9000CA6001684A6922F001024A61202180F874
:102DA0003E10016B012903D0FFF79CFB002008BDFA
:102DB0000021016301680C3151E8002F22F010025C
:102DC00041E80023002BF5D101680A68D20602D53C
:102DD0000A6849680091818DFFF7C4F8E6E70000B2
:102DE00070B5044600680169E26821F4405111435E
:102DF00001612169A068E2690843616911430843E0
:102E00002168CA6849F20C639A430243CA60206889
:102E10004169A26921F4407111434161314920683F
:102E2000884202D03049884202D1FEF789FC01E095
:102E3000FEF776FCE2690023192164253226B2F5FB
:102E4000004F626828D0A0FB0101930F9200FDF7AC
:102E50007DFA0146B0FBF5F06FF01802504301EB2C
:102E6000800006EB0010B0FBF5F000F0F002B1FBC3
:102E7000F5F002EB0012B1FBF5F06FF018035843C8
:102E800001EB800006EB0010B0FBF5F000F00F0046
:102E900021681044886070BDA0FB010192185B415D
:102EA000FDF754FA0146B0FBF5F00201B1FBF5F075
:102EB0006FF01803584301EB800006EBC000B0FB35
:102EC000F5F000F0F80002EB4002B1FBF5F05843DA
:102ED00001EB800006EBC000B0FBF5F000F007004E
:102EE000D6E7000000100140001401400148FFF740
:102EF00041B80000F8010020FEE70907090E00288C
:102F000004DB00F1E02080F80014704700F00F00AF
:102F100000F1E02080F8141D7047000000B58BB070
:102F200000200121CDE90601089100900190029056
:102F300003900590049069460C48FDF74BFC0B4844
:102F4000FDF7A8FF02210948FDF7CDFB0E200990EF
:102F5000059069460648FDF73DFC0548FDF79AFFD8
:102F600002210348FDF7BFFB0BB000BD900000201D
:102F7000B80000200C4902790A7042794A708279BF
:102F80008A70C279CA70027A0A71427A4A71827A68
:102F90008A71C27ACA71027B0A72427B4A72827B50
:102FA0008A72C07BC872704710080020074950F829
:102FB000022FCA6042680A6182684A61C2688A61F7
:102FC0000269CA614069086270470000EC0700208E
:102FD000FEF776FAFFF7E2FCFFF760FBFFF718FB5E
:102FE000FFF796FCFFF7B0FCFFF7CEFAFFF7D2FB36
:102FF000FFF720FCFFF770FCFFF7E8FAFFF78EFF02
:1030000000F028F840F2411400212046FDF7B8FAFC
:10301000651C4FF4FA6678212046FDF7D5FAB421F5
:103020002846FDF7D1FA3046FEF7FCF8F3E700003A
:103030000749486B0068002805D0486BC068C06825
:103040004068886270474FF0FF3088627047000028
:10305000140000202DE9F0415048FEF7EFFD00215B
:103060004E48FEF71BFF04214C48FEF717FF0821CE
:103070004A48FEF713FF0C214848FEF70FFF484867
:10308000FEF7DCFD00214648FEF708FF0421444816
:10309000FEF704FF08214248FEF700FF0C214048DC
:1030A000FEF7FCFE3D4FDFF8F8803E4E002500BFE6
:1030B00005EB850006EB00143D2238492046FDF75C
:1030C000BCF997F83D0084F83D0097F83E0084F87D
:1030D0003E0097F83F0084F83F0097F8400084F8DE
:1030E000400097F8410084F8410097F8420084F8C6
:1030F000420097F8430084F8430097F8440084F8AE
:10310000440097F8450084F8450097F8460084F895
:103110004600681C84F84C0004F5A0703D2220494C
:10312000FDF78BF9404610F83D1F84F87D1141787A
:1031300084F87E11817884F87F11C17884F8801139
:10314000017984F88111417984F88211817984F8B8
:103150008311C17984F88411017A84F88511407A49
:1031600084F88601681D6D1C84F88C01042D9FDB9A
:10317000002004210822B064C6F898100C23C6F879
:10318000E820C6F83831C6F87832C6F82822C6F8E2
:10319000D811C6F88801BDE8F0810000E0000020E9
:1031A00028010020940800200169436882689A6021
:1031B000836842685A604A68824201D182684A60E4
:1031C000002202610868401E086008687047426873
:1031D0004A6093688B6093685960916008610168E8
:1031E000491C016070470000154A106B002802D08E
:1031F0000120D06170470020D0611069B0FA80F0E2
:10320000C0F11F000F4900EB800051F8203073B16E
:1032100001EB800041684968416000F10803994270
:1032200001D1496841604068C06810607047502013
:1032300080F31188BFF34F8FBFF36F8FFEE700005D
:10324000140000207C04002010B5502080F3118869
:10325000BFF34F8FBFF36F8F00F01AF818B1044916
:103260004FF080500860002080F3118810BD0000EE
:1032700004ED00E005484169002903D0006B18B156
:103280000020704701207047022070471400002082
:103290002DE9F0470026314F386B002805D0B8697A
:1032A000401CB8613046BDE8F087F868451CFD60F9
:1032B0009DB9786B006838B1502080F31188BFF356
:1032C0004F8FBFF36F8FFEE7786BB96B7963B8638D
:1032D000386A401C3862FFF7ABFEB86ADFF88080BE
:1032E00085420FD34FF00109786B006838B1786BD5
:1032F000C068C4686068854212D2B86202E04FF0CC
:10330000FF30B8623868C06A00EB800058F82000CF
:10331000012800D90126F8690028C3D00126C1E799
:10332000201DFFF741FFA06A18B104F11800FFF754
:103330003BFFE16A3A6909FA01F01043386101EB99
:10334000810008EB8000211DFFF741FFE06A39682A
:10335000C96A8842C8D30126C6E7000014000020CD
:103360007C0400204FF04070E1EE100A7047000628
:1033700010160006101600000000000000000102F8
:10338000030406070809000000000102030400000E
:10339000B03300080000002090000000E8010008A1
:1033A0004034000890000020E810000004020008EB
:1033B00000000000010000001000000000000000FC
:1033C0000024F400000000000000000000000000E5
:1033D00000000000000000000000000000000000ED
:1033E00000000000000000000000000000000000DD
:1033F00000000000000000000000000000000000CD
:1034000000000000000000000000000000000000BC
:1034100000000000000000000000000000000000AC
:10342000000000000000000000000000000000009C
:10343000000000000000000000000000000000008C
:04000005080001AD41
:00000001FF
