:020000040800F2
:10000000904E0020B9030008BB420008B93E00082A
:10001000B9420008551F0008294C000800000000E4
:10002000000000000000000000000000F9020008CD
:1000300099200008000000005503000867440008EC
:10004000D3030008D3030008D3030008D303000838
:10005000D3030008D3030008D3030008D303000828
:100060009B200008D3030008D3030008AD1F00083D
:10007000B91F0008D3030008C51F0008D3030008F8
:10008000D3030008D11F0008D3030008D3030008DE
:10009000591F0008D3030008D3030008D303000846
:1000A000D3030008D3030008D3030008D3030008D8
:1000B000D3030008D3030008D3030008D3030008C8
:1000C000D3030008D3030008D3030008D3030008B8
:1000D000D3030008D3030008D3030008D3030008A8
:1000E000D3030008D3030008D3030008D303000898
:1000F000D3030008D3030008D3030008D303000888
:10010000D3030008D3030008D3030008D303000877
:10011000D3030008D3030008D3030008D303000867
:10012000D3030008DD1F0008D3030008D303000831
:10013000D3030008D3030008D3030008D303000847
:10014000D3030008D3030008D3030008D303000837
:10015000D3030008E91F0008D3030008C14B0008BF
:10016000D3030008D3030008D3030008D303000817
:10017000D3030008D3030008D303000800000000E5
:10018000D3030008D3030008714700087D47000827
:10019000D3030008D3030008D3030008D3030008E7
:1001A0000000000000000000D303000800F002F887
:1001B00000F092F80AA090E8000C82448344AAF16F
:1001C0000107DA4501D100F087F8AFF2090EBAE86D
:1001D0000F0013F0010F18BFFB1A43F0010318477B
:1001E000546F0000746F0000103A24BF78C878C1C3
:1001F000FAD8520724BF30C830C144BF04680C602D
:10020000704700000023002400250026103A28BF74
:1002100078C1FBD8520728BF30C148BF0B60704778
:100220006E2900F06D82702900F0AF83662906F018
:100230009282652906F08F82672906F08C826129F7
:1002400006F08B8203681B0A28BF41F080016929F0
:1002500000F01A82642900F01782752900F01482D8
:100260006F2900F03C83782900F07B83E92900F0B6
:10027000D782E42900F0D482F52900F0D182EF2959
:1002800000F03983F82900F07A830368DB0928BF7E
:1002900041F08001632901F07D80732901F08280A3
:1002A000E32901F08D80F32901F09280002070474E
:1002B0001FB506F046FA01F0DDF804000020002129
:1002C00005F0F6FE401C60600020002105F0DAFE1B
:1002D000E0601FBD10B510BD01F09EF81146FFF79C
:1002E000E7FF04F0BDFF01F07BF903B4FFF7F2FF75
:1002F00003BC01F0C3F900002C4B19680868B0E892
:10030000F04F80F30988BFF36F8F4FF0000080F348
:10031000118870470000000008480068006880F3FA
:1003200008884FF0000080F3148862B661B6BFF30E
:100330004F8FBFF36F8F00DF00BF00BF08ED00E0FD
:10034000DFF80C00016841F470010160704700BFE4
:1003500088ED00E0EFF30980BFF36F8F134B1A684D
:100360001EF0100F08BF20ED108A20E9F04F10603A
:1003700009B44FF0500080F31188BFF34F8FBFF3E3
:100380006F8F05F073FC4FF0000080F3118809BCFB
:1003900019680868B0E8F04F1EF0100F08BFB0EC05
:1003A000108A80F30988BFF36F8F70472000002008
:1003B000EFF305807047000009488047094800476F
:1003C000FEE7FEE7FEE7FEE7FEE7FEE7FEE7FEE705
:1003D000FEE7FEE704480549054A064B7047000062
:1003E00015450008AD01000890480020904E0020FF
:1003F000904A0020904A002053EA020C00F06980E5
:100400002DE9F04B4FF00006002B1FBFB3FA83F528
:1004100003FA05F424FA05F65E4012BF1643B2FA59
:1004200082F502FA05F4C5F120051EBF22FA05FC8B
:1004300044EA0C04203556EA044C4FEA144418BF31
:10044000641C4FF000084FF00009904271EB030C60
:1004500039D3002919BFB1FA81F701FA07F6B0FACA
:1004600080F700FA07F6C7F120071EBF20FA07FC45
:1004700046EA0C062037B6FBF4FCA7EB0507103F55
:1004800007F01F0BCBF120060CFA0BFB2CFA06F63B
:1004900044BFB3460026202FA4BF5E464FF0000B9A
:1004A0005BEA060C08BF4FF0010B19EB0B09ABFB25
:1004B000027C48EB0608C01B06FB02CC0BFB03CCFE
:1004C00071EB0C01C1E70B46024641464846BDE8C8
:1004D000F08B13B54FF000004FF00001AFF3008038
:1004E000BDE81C40704700001CB50C46064B7B4421
:1004F00069460090204600F01CF904460020694639
:1005000000F02AF920461CBD6702000010B5203A11
:10051000C0F00B80B1E81850203AA0E81850B1E8BC
:100520001850A0E81850BFF4F5AF5FEA027C24BF72
:10053000B1E81850A0E8185044BF18C918C0BDE869
:1005400010405FEA827C24BF51F8043B40F8043B32
:1005500008BF7047D20728BF31F8023B48BF11F8E7
:10056000012B28BF20F8023B48BF00F8012B704741
:100570004FF0000200B5134694469646203922BF3C
:10058000A0E80C50A0E80C50B1F12001BFF4F7AF87
:10059000090728BFA0E80C5048BF0CC05DF804EB69
:1005A000890028BF40F8042B08BF704748BF20F8D7
:1005B000022B11F0804F18BF00F8012B70477047D5
:1005C0007047704770B5044685690068C10601D55B
:1005D000302600E02026C00707D070BDD4E90121F5
:1005E00030469047206A401C20626D1EF6D570BDD3
:1005F00070B5044685690078C00707D170BDD4E99D
:10060000012120209047206A401C20626D1EF6D5F3
:1006100070BD09684A0501D540B27047C905FCD5CF
:1006200000B2704709684A0501D5C0B27047C905D4
:10063000FCD580B2704770B50C460546012A05D03E
:100640002878800600D5EA69002302E0012305E04E
:100650005B1C934202D2E05C0028F9D1A869E6183D
:10066000C01AA861286A184428622846FFF7AAFF22
:1006700004E0D5E9012114F8010B9047B442F8D306
:100680002846FFF7B5FF70BD2DE9F041064600246E
:1006900010687529314616A510D0FFF7BAFF00285B
:1006A00002DA404213A507E031688A0701D512A596
:1006B00002E0490704D511A5012401E0FFF7B2FFCC
:1006C00000210A2206F1240709E0B0FBF2FCB0FB8E
:1006D000F2F302FB1C00303078541846491C002805
:1006E000F3D123462A463046BDE8F04100F061BA16
:1006F000000000002D0000002B0000002000000082
:1007000011680268006A530501D508700AE0D30534
:1007100001D5088006E0130603D5C217C1E900021F
:1007200000E008600120704701694A1C02610878F6
:10073000704700B58FB0CDE9013100210591054921
:100740007944CDE903101146684600F029F90FB04D
:1007500000BD0000E5FFFFFF0A6802F8010B0A6018
:10076000704700002DE9FF5F15468A460446DFF812
:10077000AC80F8440027D8E900103E46CDE90010CF
:1007800010E03AF816106A4602A800F025FE411C57
:1007900007D02178890603D5E269391891420DD82E
:1007A0000744761C2078800602D5E069B84205DD52
:1007B000AE42E6DB3AF816000028E2D1A069C01B81
:1007C000A0612046FFF7FEFED8E90010CDE9001039
:1007D000002017E03AF818106A4602A800F0FCFD65
:1007E000B0F1FF3F81460BD000250DF1080B05E06D
:1007F000D4E901211BF8050090476D1C4D45F7D346
:1008000008F10100B0428046E4DB206A38442062EF
:100810002046FFF7EDFEBDE8FF9F00008E60000060
:100820002DE9F0418046D21D22F007020025D2E9D1
:100830000002F52915A614D0011E72F1000106DA96
:100840000023D0EB030063EB020211A608E0D8F806
:1008500000108B0701D50FA602E0490701D50EA6AF
:1008600001251146002408F1240704E000F05CF99A
:1008700030323A55641C50EA0102F7D12B46324619
:1008800021464046BDE8F04100F093B90000000069
:100890002D0000002B0000002000000030B40021DB
:1008A00000F1240408E002F00705D208303542EADE
:1008B0004372DB086554491C52EA0305F3D104680E
:1008C000002310A2250707D5A40600D421B1C469CE
:1008D00001230DA2641EC46130BC00F06AB910B5DA
:1008E000044621461068FFF79DFE02462046BDE8FB
:1008F00010400023D2E7D21D22F00701D1E90023E6
:10090000CCE700000000000030000000F0B40D460D
:100910000188090502D5214C7C4402E01F4C7C442F
:100920000E34002100F1240608E002F00F0712093E
:10093000E75D42EA03721B097754491C52EA030738
:10094000F3D102780023120704D5702D06D009B127
:10095000022311342246F0BC00F02BB901231034DD
:10096000F8E770B504460D4621461068FFF75AFEB9
:10097000024629462046BDE870400023C6E7D21D46
:1009800022F00703D3E90023C0E70368126843F0AD
:10099000200303600823C3610023B7E7F05E000073
:1009A0002DE9F05F894604464FF0000ADFF874B184
:1009B000FB44C0F820A02046E1688847002874D096
:1009C000252806D0D4E901219047206A401C2062E6
:1009D000F1E700265F462046E16888472028054663
:1009E00007DB312D05D2781910F8200C08B1064329
:1009F000F1E7B00701D526F00406C4F81CA00027D3
:100A0000C4F818A02A2D09D0284604F036F938B3C6
:100A100004EB8708303DC8F8185019E059F8041B5A
:100A2000204604EB87029161E1688847012F054663
:100A300018D1E069002820DA26F020061DE0D8F859
:100A4000180000EB800005EB40003038C8F81800B3
:100A50002046E1688847054604F00FF90028EED1EA
:100A6000012F0AD02E2D08D12046E16888477F1C2F
:100A70000546022F46F02006C4DBA069002803DAF1
:100A8000404246F00106A061F00701D026F01006B2
:100A90006C2D0BD0682D09D04C2D39D06A2D35D056
:100AA000742D35D07A2D33D016E038E0E1682F462A
:100AB00020468847B842054609D16C2F26D04FF40E
:100AC0008060E168064320468847054604E06C2FB5
:100AD0001AD04FF4807006430DB3A5F141001928D8
:100AE00002D8203546F400664A462946204626604C
:100AF0004E46FFF795FB80B101280BD0F61D26F07E
:100B0000070000F1080956E74020E4E78020D8E715
:100B10000020D6E706F104094DE7284652E7206A8F
:100B2000BDE8F09F805E000030B5B0F10A024FEAE8
:100B3000900E71F100034EEA817EB0EB0E0061EB86
:100B400091014FEA101E4EEA017E10EB0E0041EBC0
:100B500011114FEA102E4EEA016E10EB0E0041EB20
:100B600011214FEA104E4EEA014E10EB0E0041EB00
:100B70001141401841F100014FEAD00040EA4170B4
:100B80004FEAD10110EB80054FEA810444EA9074EA
:100B900044EB01046D1944EB0404521BA3414FF0D4
:100BA000000348BF0A3200D530BD401C41F10001AE
:100BB00030BD2DE9F0470D4699469246044600F1B6
:100BC00024080168880604D5E06921F0100121603D
:100BD00000E00120A84201DD471B00E00027A169D9
:100BE0007A1902EB0900081AA0612078C00602D425
:100BF0002046FFF7E7FC002608E0D4E901211AF8B7
:100C000006009047206A401C761C20624E45F4DBAB
:100C10002078C0060AD52046FFF7D4FC06E0D4E9C8
:100C2000012130209047206A401C2062381EA7F125
:100C30000107F4DC07E0D4E9012118F8050090472A
:100C4000206A401C2062281EA5F10105F3DC204625
:100C5000FFF7CEFC2078000602D50220BDE8F08721
:100C60000120FBE770472DE9FF4F0C461E464FF071
:100C7000FF378BB0D2E90001DDF860800A908A4628
:100C8000C1F30A5505B93D46002108464FF0000062
:100C9000BAF1000F00F4400005DA00EB80004FF4D9
:100CA000400101EA50004FEA9059B9F1010F00DD0F
:100CB000B9460A9850EA4A000ED044F61050A5F200
:100CC000FF3545432F14B8F1000F1ED07542291E81
:100CD0001EDDC9F100021CE0B8F1010F4FF0000069
:100CE00001D0302103E0F24305E02154401CB04222
:100CF000FBDB30460022002121540B99C1F808800B
:100D0000C1E900200FB0BDE8F08FBD1B6D1CDEE710
:100D10004A4600DA694206A800F0F0FB06AB93E809
:100D2000070003AB83E8070050460A9900F04AFD2C
:100D30008DE80700A0F500501F3800900398002DA3
:100D40000ADD42F21F014A460844002303A903902A
:100D5000684600F0B3FF09E0A0F500504A461F388E
:100D6000002303A90390684600F0BDFF8DE807004B
:100D70000004000C03D04FF0FF30410800E01046A3
:100D8000B8F1000F03D00022009215461EE0751E38
:100D900005D4FFF7C9FE303262556D1EF9D5B34652
:100DA0000122084302D000227F1C04E02078302872
:100DB00001D100227F1E002A099784D01DE0112D49
:100DC00007DAFFF7B1FE303262556D1C50EA0102BE
:100DD000F5D1084302D00098C8B10EE00021681E8A
:100DE00005E0235C625C63542254401E491C81422E
:100DF000F7DBAB46A81B401E0990002004F80B004F
:100E00000B98099AC0F80880C0E9002B7AE71126F0
:100E10004FF0000857E72DE9F04F88460446D21DF1
:100E200022F0070191B0D1E90001CDE90A0103F0F8
:100E3000FCFE02460B98C00F01D02D2007E0206871
:100E4000810701D52B2002E0202101EAC000032AFE
:100E5000099001D0072A05DB03464146204600F0F1
:100E60000DFB0BE12078800601D5E06900E006204B
:100E7000B8F1650F814606D0B8F1660F18D0B8F109
:100E8000670F70D131E00020B9F1110F009001DB44
:100E9000112301E009F101030AAA01A90CA8FFF737
:100EA000E2FEDDE90C70002609F10105834647E00A
:100EB00001204B4600904FF000470AAA01A90CA858
:100EC000FFF7D1FEDDE90DB00C995D46002610B9A3
:100ED00009F101000D18B9EB050003D4C0F1FF368C
:100EE00009F10105A5EB09002BE0B9F1010F01DAC9
:100EF0004FF001090020B9F1110F0090484601DDC3
:100F0000112300E003460AAA01A90CA8FFF7ABFED3
:100F1000DDE90C704D4600268346207800070AD490
:100F2000AB4500DA5D4601A8012D04DD411911F839
:100F3000011C302907D04F4502DA17F1040F04DAFB
:100F4000012082460FE06D1EEEE7002F02DCED1B54
:100F50003E4403E0781CA84200DD7D1CB81B00F174
:100F6000010A4FF000472078000703D4AA4501DBAF
:100F70004FF0FF3A0021B7F1004F0DF143088DF813
:100F8000431024D002202B23002F01DA7F422D238F
:100F90000A21021EA0F1010000DC5FB197FBF1FC09
:100FA00097FBF1F201FB1C7C17460CF1300C08F8A2
:100FB00001CDEEE7A8F1010003702188090501D5F4
:100FC000452100E06521A0F1010800F8011C099805
:100FD0000FA9A1EB0807FF1D00B10120411901EB8A
:100FE000EA70A1693844081A401EA0612078C00642
:100FF00002D42046FFF7E6FA099828B1D4E9012186
:101000009047206A401C20622078C00622D52046E6
:10101000FFF7D8FA1EE0002E04DBB34502DD01A87D
:10102000805D00E03020D4E901219047206A401C17
:101030002062761CAAF101005FEA000A0AD100F0E2
:1010400019FAC0680168405CD4E901219047206A20
:10105000401C2062281EA5F10105DCDC07E0D4E974
:10106000012118F8010B9047206A401C2062381EAD
:10107000A7F10107F3DC2046FFF7BAFA032011B00D
:1010800041E600002DE9F04F04460D46D21D22F046
:10109000070089B0D0E900974846394603F0C5FDFE
:1010A0000246F80F01D02D2307E02068810701D503
:1010B0002B2302E0202101EAC0038DF820300BB180
:1010C000012000E00020032A824601D0072A04DB29
:1010D0002946204600F0D2F93FE12078800601D46D
:1010E0000D2500E0E569C7F30A560D2D49DA002108
:1010F0004FEA175B08464FF00000002F00F4400055
:1011000007DA00EB80004FF4400100EBD07001EAF9
:1011100060008115012901DD4FF0FF3100224FEA07
:10112000850CBCF1180F06D31346ACF118004FF034
:101130008052C24003E04FF4801323FA0CF30CF109
:101140000C0CBCF1200F04D3ACF1200C09FA0CF00C
:1011500001E007FA0CF000294FF0004801DD18B952
:101160000FE00ED140450CD319EB02095F4121B9C4
:10117000404502D19F4329EA0209BBEB175F00D02B
:10118000761C2088000502D57B48784402E07A4826
:101190007844193808AA302302F80A30037C0AF18F
:1011A0000101002E0AF1020A53546A4602DC4FF094
:1011B000300101E04FF031014FF001088DF80010CF
:1011C00002D0A6F2FF3603E059EA470100D06B4E89
:1011D000002D02DC2178090704D54FF002082E21EA
:1011E0008DF80110C44600210BE0C7F303433F0113
:1011F000C35C491C6D1E02F80830052908F101087E
:1012000001DA002DF1DC00210CE000EB1973491C20
:101210001B786D1E082902F808304FEA091908F1F9
:10122000010801DA002DF0DC21688B0602D516E0FA
:10123000A8F10108E04505DD02EB080313F8013CC5
:10124000302BF5D0B8F1000F09DD02EB080313F8DD
:10125000013C2E2B03D1090701D4A8F10108002D70
:1012600005DD3E2102F808106D1E08F10108407CE2
:10127000002E02F8080008F1010804DA2D20764259
:1012800002F8080002E02B2002F808000A214FF4BF
:101290007A70864208F101080BDB96FBF0F33033DD
:1012A00002F8083096FBF0F308F1010800FB136622
:1012B00001E0642E0CDB642096FBF0F3303302F87F
:1012C000083096FBF0F308F1010800FB136601E01B
:1012D0000A2E06DB96FBF1F0303002F8080008F128
:1012E000010896FBF1F001FB1060303002F80800B5
:1012F000A16908F1010808EB050202EB0A00081ACF
:10130000A0612078C00602D42046FFF75BF9216A6D
:1013100008AE01EB0A00206204E0D4E9012116F8CE
:10132000010B9047BAF1010AF7D22078C00602D526
:101330002046FFF747F96E4609E016F8010B3E28F4
:101340000FD0D4E901219047206A401C2062B8F1F7
:101350000108F2D22046FFF74BF909B00320BDE89F
:10136000F08F206A2844206203E0D4E90121302074
:1013700090476D1EEBD3F8E7CA56000002FCFFFF52
:1013800010B5436913B1AFF3008001E0FFF753F9E3
:10139000012010BD127800F124010A7000224A7069
:1013A0000122EDE711684FF0FF32E9E710B543691C
:1013B00013B1AFF3008001E0FFF7D4F9012010BDB5
:1013C000128800F1240182840022C2840122EDE708
:1013D00011684FF0FF32E9E770B516460C46054636
:1013E00000F040F8036893F80101012806D0FF2CB3
:1013F0000FD8185D68B101202C7070BDD3F80701BB
:101400003246214603F2071303442846BDE87040E4
:1014100018474FF0FF3070BD754600F0EBF8AE4650
:1014200005006946534620F00700854618B020B5F0
:10143000FEF7D0FFBDE820404FF000064FF0000758
:101440004FF000084FF0000B21F00701AC46ACE86C
:10145000C009ACE8C009ACE8C009ACE8C0098D46D9
:101460007047000010B500F005F8001D10BD00BF6A
:10147000414C000000487047504800202DE9F041E1
:101480001F46044603260168072A01F4006004DBB6
:1014900008B116A505E016A503E008B115A500E002
:1014A00015A521F010002060A069C01EA0610FB139
:1014B000401EA0612046FFF785F84FB1D4E9012115
:1014C00038469047206A401C2062C01C206206E01B
:1014D000206AFAE7D4E9012115F8010B9047761E3E
:1014E000F8D22046FFF784F8BDE8F0814E414E0067
:1014F0006E616E00494E4600696E66002DE9F04748
:10150000814616468AB0354878440DC88DE80D00EE
:1015100032487844801C03AC0DC884E80D0041F6C5
:101520009B300844372190FBF1F290FBF1F5A5F1D7
:10153000800501FB12041B3C02D56442012000E03F
:101540000020DFF898A080460027FA44AAF1BE0ADE
:101550000EE0E0070AD03246684607EB4701012358
:101560000AEB810100F0BFFB8DE8070064107F1CCF
:10157000002CEED1194F7F44AE3F19E0E80715D09B
:1015800007EB04100DF1180A90E80E008AE80E002F
:10159000C068F04201D1981908903246012306A98B
:1015A00003A800F0A0FB03AB83E807006D10641CE8
:1015B000002DE3D14FF0010332466946B8F1000F28
:1015C00003A802D000F07AFB01E000F08CFBC9E92F
:1015D0000001C9F808200AB0BDE8F087DC5300001C
:1015E00010B50446AFF300802046BDE81040FEF77A
:1015F0007CBE000000487047304800204FF0013C9E
:1016000050F8042B51F8043B9A4221D1A2EB0C0371
:10161000934313EACC1317D150F8042B51F8043B31
:101620009A4215D1A2EB0C03934313EACC130BD1CE
:1016300050F8042B51F8043B9A4209D1A2EB0C0359
:10164000934313EACC13DBD04FF00000704700BF88
:10165000D01A01BAB1FA81F101F0180122FA01F0B1
:10166000CB40C1F12001DBB2C0B2C01A2CFA01F3A9
:10167000D11A914311EAC311E6D1704701491820EC
:10168000ABBEFEE726000200704700009FED241A63
:10169000B5EE002A46F630130021B7EE004AC0F638
:1016A000000320EE010A30EE020ABDEEC01AB5EECC
:1016B000C00A11EE100AF1EE10FA9FED1A1AB8BF27
:1016C000013802EE100AB8EEC22A30EE420A9FED4F
:1016D000162A20EE010ABDEEC01A11EE100A30EEF5
:1016E000021A0246B1EB502F18BF002202EE102A58
:1016F00003EB8203B1EB502F18BFB0EE410AB8EEF6
:10170000421A93ED002A93ED013A30EE410A34EE8D
:10171000401A20EE030A21EE021A31EE000A704749
:1017200083F9223E00000044000000C49FED221A0D
:1017300046F630130021B7EE004AC0F6000320EE53
:10174000010ABDEEC01AB5EEC00A11EE100AF1EEA4
:1017500010FA9FED1A1AB8BF013802EE100AB8EE5F
:10176000C22A30EE420A9FED162A20EE010ABDEE93
:10177000C01A11EE100A30EE021A0246B1EB502FD9
:1017800018BF002202EE102A03EB8203B1EB502FA8
:1017900018BFB0EE410AB8EE421A93ED002A93ED5D
:1017A000013A30EE410A34EE401A20EE030A21EEEF
:1017B000021A31EE000A704783F9223E000000440D
:1017C000000000C45FEA400C08BF91F0000F4FEA30
:1017D0008C234FEAC12243EA51514FEA1C5018BFF3
:1017E00000F5F0404FEA300018BF41F000415FEAD9
:1017F0006C5C00F02980BCF1FF3F08BF40F08040E6
:101800007047130C06BF12044FF0100C4FF0000C81
:10181000130E04BF12020CF1080C130F04BF1201C7
:101820000CF1040C930F04BF92000CF1020CD30FC7
:1018300004BF52000CF1010C11464FF00002A0F160
:101840001F00A0EB0C00704711F0004F08BF70475D
:1018500031F000413FF4D5AF0B0C06BF09044FF047
:10186000100C4FF0000C0B0E04BF09020CF1080C19
:101870000B0F04BF09010CF1040C8B0F04BF89008E
:101880000CF1020CCB0F04BF49000CF1010CCCF1A0
:101890002003A0EB0C0022FA03F302FA0CF241EA57
:1018A000030100F10100704720F07F4C80EA030043
:1018B00023F07F47ACEB070303F57C5300F00040B7
:1018C00003F1FF032DE980494FEA154B09B44FEAB4
:1018D000144325EA0B4E24EA03480FF2042606EBD4
:1018E000132749083E785FEA320203FB0667C7F513
:1018F000000707FB06F64FEA54374FEAD64606F1D3
:10190000020607FB066CCCF1005C4FEA1C472CEA90
:10191000074C07FB06F40CFB06F504EB15464FEAF3
:10192000961634BF00204FF000404FEAD13706FB37
:1019300007FC4FEA1C4C0CFB0BF7D21B03FB0CF70C
:1019400061EB07010CFB0EF7B0EB074072EB17429F
:101950000CFB08F734BFA2EB0742B2EB074261EB86
:1019600017414FEA0C444FEA910706FB07FC4FEA88
:101970001C4C0CFB0BF7B0EBC74072EB573203FB70
:101980000CF734BFA2EBC742B2EBC74261EB573151
:101990000CFB0EF7B0EBC70072EB57720CFB08F7AD
:1019A00034BFA2EBC702B2EBC70261EB5771039FD2
:1019B0004FEA816141EA921104EBCC044FEAD1373E
:1019C0004FEA826206FB07FC42EA90124FEA80600F
:1019D0004FEA1C4C0CFB0BF7D21B03FB0CF761EB23
:1019E00007010CFB0EF7B0EB074072EB17420CFB44
:1019F00008F734BFA2EB0742B2EB074261EB174195
:101A00004FEA8C554FEA910704EB9C2406FB07FC38
:101A10004FEA1C4C0CFB0BF7B0EBC74072EB573294
:101A200003FB0CF734BFA2EBC742B2EBC74261EB3A
:101A300057310CFB0EF7B0EBC70072EB57720CFB83
:101A400008F734BFA2EBC702B2EBC70261EB5771D4
:101A500015EB4C254FEA816141EA92114FEA82620F
:101A60004FEAD13742EA901206FB07FC44F100042A
:101A70004FEA80604FEA1C4C0CFB0BF7D21B03FBB8
:101A80000CF761EB07010CFB0EF7B0EB074072EBB4
:101A900017420CFB08F734BFA2EB0742B2EB074238
:101AA00061EB174115EB1C154FEA813141EA924178
:101AB0004FEA823242EA90424FEA80304FEA0C7697
:101AC00044F1000448EA03434EEA0B484FF0000E8D
:101AD000B2EB080C71EB030724BF624639464EEBAC
:101AE0000E0E4FF0000B0018524149414BEB0B0B0F
:101AF000B2EB080C71EB03077BF1000B24BF6246CD
:101B000039464EEB0E0E4FF0000B00185241494182
:101B10004BEB0B0BB2EB080C71EB03077BF1000BEB
:101B200024BF624639464EEB0E0E51EA020718BF3B
:101B300046F0010616EB0E7655F1000254F1000155
:101B400003D5BDE88901BDE80088BDE88901BDE88D
:101B50000048B619524141EB0101A3F1010370475E
:101B600080807F7E7D7C7B7A7978777676757473DA
:101B7000727171706F6E6E6D6C6C6B6A6A69686899
:101B8000676666656464636362616160605F5F5E2F
:101B90005E5D5D5C5C5B5B5A5A59595858575756A5
:101BA000565555555454535352525251515050500A
:101BB0004F4F4F4E4E4D4D4D4C4C4C4B4B4B4A4A5C
:101BC0004A494949484848474747474646464545A0
:101BD00045444444444343434342424242414141D9
:101BE000002B9C4630D477002BD01CB54FEA37072A
:101BF00003B44FF010004FF01001BAF1000F06D0FF
:101C0000BCF1000FDCBF40F0080040F008014FF0CD
:101C100000000FBCBDE810400BF1010BBBF1010F40
:101C200008BF5FEA170722BF12F1010211F101019B
:101C30004FF0004143F1000300F0004043EA000090
:101C40007047F9D35708D0E746EA064613F1400F2C
:101C50004FEA16461FDD13F1200FDFBF16430A4679
:101C6000002120335B42BED0C3F1200746EA06467E
:101C700002FA07F74FEA164646EA0706C3F12007BD
:101C800022FA03F201FA07F721FA03F14FF00003F9
:101C900042EA0702A7E746EA020646EA06464FEA94
:101CA000164646EA0106BCBF46EA0646360C4FF029
:101CB00000034FF000024FF0000194E72DE9804C43
:101CC0009A46934670B491E8380007C831EA400C50
:101CD00048BF34EA430C03D5FFF7E6FDFFF780FF6A
:101CE000F0BCBDE8008C2DE9804C9A46934670B458
:101CF00091E8380007C810F0804F08BF13F0804FFC
:101D000003D100F005F8FFF76BFFF0BCBDE8008CD5
:101D100020F07F4780EA030023F07F4C07EB0C03A1
:101D2000A3F57C5300F00040A3F1FE0392F0000FF6
:101D300000F0B38095F0000F00F077802DE90149A5
:101D40004FEA11404FEA144621EA004800FB06FC26
:101D500024EA064708FB06F607FB08F800FB07F72E
:101D600018EB06484CEB164C4FEA124B18EB0748A1
:101D70004FEA15464CEB174022EA0B4E0BFB06FCD4
:101D800025EA06470EFB06F607FB0EFE0BFB07F7E0
:101D90001EEB064E4CEB164C4FF000061EEB074EAA
:101DA0004CEB174B18EB0B0840F1000018EB0E0B37
:101DB00058EB000840F100008F1A4FF000013CBFC3
:101DC000C943661B14BFB5EB040C00213CBFC943DB
:101DD000F61B4FEA17444EEA8E0E27EA04454FEAF7
:101DE0001C4704FB07622CEA074C05FB07F70CFBBA
:101DF00005F604FB0CFC16EB074642EB174216EB0C
:101E00000C4642EB1C421BEB060658EB020241411A
:101E100046EA9E0601D5BDE80189B619524141EB5B
:101E20000101A3F10103BDE801894FEA14454FEA1E
:101E3000114724EA054621EA074C05FB07F406FB97
:101E400007F70CFB06F105FB0CFC11EB074144EB1B
:101E500017444FEA124711EB0C4144EB1C4422EAB1
:101E6000074C05FB07F206FB07F70CFB06F605FB24
:101E70000CFC16EB074642EB174216EB0C4642EB06
:101E80001C456A1854F1000148BF7047B619524109
:101E900041EB0101A3F10103704795F0000F37D02A
:101EA0004FEA11424FEA144721EA024624EA074C5E
:101EB00002FB07F106FB07F70CFB06F402FB0CFC28
:101EC00014EB074441EB17414FEA154714EB0C4460
:101ED00041EB1C4125EA074C02FB07F506FB07F71F
:101EE0000CFB06F602FB0CFC16EB074645EB174510
:101EF00016EB0C4645EB1C42121951F1000148BF8C
:101F00007047B619524141EB0101A3F1010370473B
:101F10004FEA14454FEA114724EA054621EA074CE7
:101F200005FB07F106FB07F70CFB06F24FF0000676
:101F300005FB0CFC12EB074241EB174112EB0C4284
:101F400051EB1C4148BF7047921841EB0101A3F1CE
:101F500001037047FEE70000014800F014BA0000DA
:101F60001C03002038B50E4C4FF400752560002589
:101F7000A560E560082525610A4C050A257060709A
:101F8000080AA070E170100A20716271180AA0712D
:101F9000E3716B4622460249034800F095F838BDCC
:101FA00018480020BE0000201C030020014800F05B
:101FB0008BBC0000C0050020014800F085BC00007B
:101FC000A0040020014800F07FBC000000050020B4
:101FD000014800F079BC000060050020014800F0D5
:101FE00073BC000020060020014800F06DBC00001A
:101FF0008006002001681823CAB2103AB2FBF3F23F
:10200000054B6FF30901032A9B5CC36500D9091DC9
:102010008165084670470000D067000810B501468A
:1020200000208B698A6A4FF0C07453B1B3F5005F2A
:1020300015D072B1012A0CD0022A0AD0032A09D184
:1020400004E01AB1012A06D0022A03D1C96AC901E3
:1020500000D5012010BDC96AA142FAD010BD002AE6
:10206000F7D0012AF2D0022AF3D0032AF3D010BD10
:1020700030B50468256825F4802525600468636010
:102080008368402B036803D099600068C26030BD4C
:102090009A600068C16030BD7047042000F09ABDAE
:1020A00072B6FEE790F82020012A07D0022A05D058
:1020B000416A41F480214162012070470068426911
:1020C0000A43426100207047F0B590F82050046840
:1020D000A468012D05D0022D03D0416A41F480216E
:1020E00053E014F0406F01D1E5004BD5C4F3016417
:1020F000022C03D9416A41F4000146E00125A540C4
:102100001D608D684FF4C0739DB1CE6835434E6835
:1021100045EAC605066803EB0417F5514FF4C2758E
:10212000076805EB04150E697E51097D012905D06C
:1021300009E00E88CD6845EA4655EBE701684E593F
:1021400046F480764E511179D2F805504FF4C67698
:1021500041EA0525016806EB04168D511178D2F885
:1021600001204FF4C47541EA0221026805EB041511
:102170005151006803EB0411425842F001024250F1
:102180000020F0BD416A41F4001141620120F0BD20
:1021900010B590F82020012A07D0022A05D0416A04
:1021A00041F480214162012010BD3B48D0F800225B
:1021B00042F00102C0F80022D0F8002222F47C5242
:1021C000C0F80022D0F800224B6A42EA0322C0F88D
:1021D00000220A7D02F01F0301229A40D0F81C322F
:1021E0009343C0F81C32CB69B3B9D0F80C32934397
:1021F000C0F80C328C894B6864F31F434C6900EBC8
:10220000C404C4F840320C890B6864F31F434C6962
:1022100000EBC404C4F84432CB69012B16D1D0F8CA
:102220000C321343C0F80C320C884B6864F31F4324
:102230004C6900EBC404C4F840320C89CB6864F3E9
:102240001F434C6900EBC404C4F844328B69002B73
:10225000D0F804320ED01343C0F804320B69002BBF
:10226000D0F8143208D01343C0F81432096A012997
:1022700004D008E09343EFE79343F5E7D0F81C124E
:102280001143C0F81C12D0F8001221F00101C0F86F
:102290000012002010BD000000640040704730B5FF
:1022A00090F82040012C05D0022C03D0416A41F463
:1022B00080215DE00468002955D02469A40754D02A
:1022C0004FF4D874056804EB01142D5915F004057A
:1022D000956005682D594ED0ED08556005682C595C
:1022E00004F00204D4604FF4DA74056804EB0114BE
:1022F0002D5905F00F05156105682D59C5F3072502
:10230000956105682C59240C54614FF4DC72046803
:1023100002EB0112A4581C700468A458240A5C70D3
:102320000468A458240C9C700468A258120EDA7039
:102330004FF4DE72046802EB0112A4581C710468A9
:10234000A458240A5C710468A458240C9C71046885
:10235000A258120EDA71006881B1016941F02001C2
:102360000161002030BDE468A8E7416A41F4001132
:102370004162012030BD6D0D1560AFE7C16841F0CD
:102380002001C160EDE72DE9F05F054600680024FB
:102390004669D0F804908768D0F80CB0D0F810A047
:1023A000D0F81880F10748D0F90714D001218160D6
:1023B000B80703D5284600F026FA0CE0780702D5C6
:1023C0004FF4006407E0380702D54FF4805402E070
:1023D000284600F017FAF80516D529684FF48070E2
:1023E0008860B80503D5284600F00FFA0CE07805A0
:1023F00002D544F4005407E0380502D544F4804483
:1024000002E0284600F000FAF80316D529684FF4D8
:1024100080308860B80303D5284600F0F8F90CE056
:10242000780302D544F4004407E0380302D544F4AD
:10243000803402E0284600F0E9F9300707D55FEA6A
:10244000CB6004D52968102044F40074C86070077C
:102450004FF0080707D55FEA0B7004D52868C760FE
:10246000284600F057F9B00706D52868C0688007ED
:1024700002D0284600F050F9700607D55FEACA601E
:1024800004D52968102044F480640861B00607D59B
:102490005FEA0A7004D528680761284600F082F9CF
:1024A000F00606D528680069800702D0284600F0AB
:1024B0007AF9B00308D55FEAC96005D5296810200C
:1024C0004860284600F070F9F00307D55FEA09700C
:1024D00004D528684760284600F09AF9300446D5AC
:1024E0005FEA497040D5F00504D55FEAC87001D0B5
:1024F00044F00104B00504D55FEA887001D544F0CA
:102500000204700504D55FEA487001D544F0040464
:10251000300529D518F0700F26D008F0700040283B
:1025200015D006DC102809D020280AD0302816D172
:102530000AE050280ED0602811D10EE044F00804C3
:102540000DE044F010040AE044F0200407E044F0F9
:10255000400404E044F0800401E044F480742868FE
:10256000816921F070018161296804204860002C94
:1025700005D0686A204368622846FFF78FFEBDE8F1
:10258000F09F70B5040003D094F8200010B104E06F
:10259000012070BD204600F081F82068016841F0FC
:1025A0000101016000F046FC0546052604E000F04C
:1025B00041FC401B0A2811D820684068C007F6D0AB
:1025C0002068016821F00201016000F033FC05463B
:1025D0000BE000F02FFC401B0A2806D9606A40F48B
:1025E0000030606284F82060D2E72068406880078D
:1025F000EFD4207E0128206801683DD021F08001C1
:102600000160607E01282068016838D021F0400117
:102610000160A07E01282068016833D021F02001EC
:102620000160E07E0128206801682ED041F0100191
:102630000160207F01282068016829D021F008016D
:102640000160607F01282068016824D021F0040126
:102650000160D4E902010843D4E90412114308439C
:102660006168491E08432168C8610020606201203A
:1026700084F82000002070BD41F08001C0E741F0E7
:102680004001C5E741F02001CAE721F01001CFE782
:1026900041F00801D4E741F00401D9E710B586B054
:1026A000044614216846FDF763FF174920688842F5
:1026B00027D116480021026842F0007202600068CB
:1026C00000F00070059011481038026842F00802CE
:1026D00002600068022200F0080005900320CDE9A6
:1026E0000210CDE90002092004906946084800F074
:1026F0007DFA00220521142000F00EFC142000F0C9
:10270000FDFB06B010BD00000064004040380240F0
:10271000000C02407047000010B588B01F4B6A469D
:102720000021FFF7BCFD009940F202231B48A1F2F3
:10273000022299420BD006DCA1F58071413922D0EA
:10274000C0291ED103E0012A01D0022A19D1009923
:10275000124A491E163AC9B21170114A01EB81039F
:1027600002EB430132F813400C81048864BA22F86A
:102770001340428852BA4A80828852BA8A8080794D
:10278000887108B010BD0549427808390A7042883E
:102790004A8082888A80C088C880F2E7B60000201C
:1027A000F0470020704770477047000070B504463E
:1027B00090F82000012804D0606A40F40020606294
:1027C00018E0022084F820002068016821F001014F
:1027D000016000F02FFB05460EE000BF00F02AFB71
:1027E000401B0A2808D9606A40F400306062052066
:1027F00084F82000012070BD20684068C007EDD13A
:10280000606270BD7047704770477047704770478F
:1028100070472DE9F0410446876D00F00BFB06463A
:1028200094F835000025022806D08020606584F8E1
:1028300034500120BDE8F0812068016821F01601C4
:1028400001602068416921F080014161206C08B974
:10285000A06C20B12068016821F0080101602068A7
:10286000016821F0010101600CE000F0E3FA801B37
:10287000052807D920206065032084F8350084F8F6
:102880003450D7E720680068C007EED194F85C1098
:102890003F208840B860012084F8350084F8345027
:1028A0000020C7E790F83510022903D08021416548
:1028B00001207047052180F835100068016821F07B
:1028C00001010160002070472DE9F84304464FF0F4
:1028D0000009CDF8009063484FF41651A56D0068CB
:1028E000B0FBF1F72E6894F85C10082000FA01F1B3
:1028F00031420FD021680A6852070BD50A6822F0CE
:1029000004020A6094F85C108840A860606D40F092
:102910000100606594F85C104FF0010808FA01F0BE
:10292000304208D021684969090604D5A860606D65
:1029300040F00200606594F85C100420884030424A
:1029400008D021680968890704D5A860606D40F047
:102950000400606594F85C1010208840304218D064
:1029600021680968090714D5A8602068016849032F
:1029700004D50068000308D5A16C07E00168C9050B
:1029800003D4016821F008010160216C09B12046DF
:10299000884794F85C1020208840304231D021686C
:1029A0000968C9062DD5A86094F835000528206867
:1029B000016806D0490347D5006800031DD4616C47
:1029C0001CE021F0160101602068416921F08001BE
:1029D0004161206C08B9A06C20B12068016821F029
:1029E0000801016094F85C103F208840A86084F8DA
:1029F000358084F83490216D1FE0E16B09B12046E9
:102A00008847606D00282BD0606DC00714D005206A
:102A100084F835002068016821F001010160009808
:102A2000401C0090B84203D820680068C007F6D167
:102A300084F8358084F83490E16C002910D001B01E
:102A40002046BDE8F04308470168C905D5D40168B0
:102A500021F01001016084F8358084F83490CCE7CF
:102A6000BDE8F8831C0000202DE9F041044600F089
:102A7000E1F906465CB1022084F83500002584F8AF
:102A800034502068016821F0010101600DE001204F
:102A9000BDE8F08100F0CEF9801B052805D9202083
:102AA0006065032084F83500F2E720680068C007FD
:102AB000F0D12268116820480140D4E9010318438D
:102AC000D4E903363343184363691843A3691843B1
:102AD000E3691843236A18430843616A042903D150
:102AE000D4E90B1319430843106020684069666AF3
:102AF00020F0070130460E43012704280CD1A06ABC
:102B00000643E06A40B12046FFF788FA20B1402032
:102B1000606584F83570BAE7206846612046FFF7A3
:102B200069FA94F85C203F2191408160656584F8E2
:102B300035700020ACE700003F8010F02DE9F04137
:102B40000446866D90F83400002501280DD0012040
:102B500084F8340094F835700020012F07D084F8F1
:102B6000340002252846BDE8F0810220FBE7022759
:102B700084F8357060652046FFF77AFA94F85C10A7
:102B80003F208840B0602068016841F01601016074
:102B9000206C20B12068016841F0080101602068C4
:102BA000016841F001010160DCE7000070B50446F6
:102BB00000F040F90546601C02D004480078044447
:102BC00000F038F9401BA042FAD370BD100000207D
:102BD00070470000044910B50A68024202D008603C
:102BE000FFF7F6FF10BD0000143C01402DE9F84F3F
:102BF000DFF8F8A10022012403254FF00F090AF1A4
:102C0000040BAAF1040E00BF0B6804FA02F633406D
:102C1000B34270D10F7907F00307012F01D0022FC3
:102C200016D187684FEA420805FA08FC27EA0C0724
:102C3000D1F80CC00CFA08FC4CEA070CC0F808C02C
:102C40004768B7430E79C6F3001696403E43466088
:102C50000E79F643B6070AD0C7684FEA420C05FA68
:102C60000CF6B7438E6806FA0CF63E43C6600E7942
:102C700006F00306022E10D1D60800EB8608D8F81D
:102C8000206057074FEAD76C09FA0CF7BE430F696B
:102C900007FA0CF73743C8F8207006684FEA420C71
:102CA00005FA0CF7BE430F7907F0030707FA0CF794
:102CB000374307604E6816F4403F1CD04C4E3768CF
:102CC00047F480473760366822F0030706F48046F1
:102CD0000096484E07EB060CDCF8086897073F0F94
:102CE00009FA07F826EA0806DFF80C81404503D107
:102CF0004FF0000841E072E0DFF80081404502D16A
:102D00004FF0010839E0DFF8F880404502D14FF07C
:102D1000020832E0DFF8EC80404502D14FF00308B2
:102D20002BE0DFF8E480404502D14FF0040824E0B6
:102D3000DFF8D880404502D14FF005081DE0DFF8EC
:102D4000D080404502D14FF0060816E0DFF8C4807D
:102D5000404502D14FF007080FE0DFF8BC80404546
:102D600002D14FF0080808E0DFF8B080404502D1FA
:102D70004FF0090801E04FF00A0808FA07F848EA9E
:102D80000608CCF80888DAF800605746D1F804C085
:102D90009E435FEACC2C00D51E433E60DBF800600A
:102DA0005F46D1F804C09E435FEA8C2C00D51E43D9
:102DB0003E60DEF800607746D1F804C09E435FEACB
:102DC0008C3C00D51E433E60084F083F3E68D1F85A
:102DD00004C09E435FEACC3C00D51E433E60521CBB
:102DE000102AFFF411AFBDE8F88F0000083C014045
:102DF000443802400030014000000240000402401C
:102E000000080240000C0240001002400014024082
:102E100000180240001C0240002002400024024032
:102E20000069084000D0012070470AB181617047F5
:102E30000904FBE70148806870470000100000208B
:102E400002488168027811448160704710000020B8
:102E50000B4810B5016841F400710160016841F44C
:102E600080610160016841F480710160032000F01D
:102E700073F80F2000F006F800F024F8002010BDD1
:102E8000003C024070B50D4D04464FF47A7128782D
:102E9000B1FBF0F00A490968B1FBF0F000F010FB5B
:102EA00048B9102C07D200222146501E00F034F8F9
:102EB00000206C6070BD012070BD0000100000207B
:102EC0001C0000200C4882B0016841F48041016080
:102ED000006800F4804000900748001F016841F03E
:102EE000805101600068002200F0805000900F21A6
:102EF000901E02B000F010B844380240002809DBF0
:102F000000F01F02012191404009800000F1E02003
:102F1000C0F8001170470000F0B40E4B1B680C465F
:102F2000C3F30223C3F10705042D00D90425191D9D
:102F3000072901D2002300E0DB1E012606FA05F175
:102F4000491E214099409E40761E16403143F0BCF8
:102F500001F083BE0CED00E0064900F007020868AE
:102F60004FF6FF03184040EA0220034A104308606E
:102F7000704700000CED00E00000FA052DE9F04775
:102F80000E46050065D0DFF81481D8F80000F7B2CE
:102F900000F00F00B04207D288F80070D8F80000A7
:102FA00000F00F00B04254D128683D4C810712D583
:102FB000400703D5206840F4E050206028780007DF
:102FC00003D5206840F4604020602068A96820F0A4
:102FD000F000084320602878C0072DD03049686889
:102FE0000839012812D0022813D0032811D009680B
:102FF000890700292DDA216821F0030101432160AE
:10300000FFF718FF814641F2883A0EE0096889030C
:10301000EFE709688901ECE7FFF70CFFA0EB090176
:10302000514502D90320BDE8F0872068696800F0A7
:103030000C00B0EB810FEFD1D8F80010404601F042
:103040000F01B14207D90770006800F00F00B042CD
:1030500001D00120E7E72878400705D52068E96816
:1030600020F4E050084320602878000706D5206847
:10307000296920F4604040EAC100206000F038F87F
:103080002168084AC1F30311515CC8400649086031
:1030900006480068FFF7F6FE0020C4E7003C024047
:1030A00008380240D86700081C00002014000020E7
:1030B0000448054900680968044AC1F38221515C4B
:1030C000C84070471C00002008380240E86700082C
:1030D0000448054900680968044AC1F34231515C5B
:1030E000C84070471C00002008380240E86700080C
:1030F000154810B5006810F00C02144813D014499C
:10310000042A0FD0082A0ED10F4C241F22682368EE
:1031100002F03F025B0207D52068C0F38810A0FBD5
:10312000010106E0084610BD2168C1F38811A1FB2A
:1031300000010023FDF760F92168C1F30141491C3A
:103140004900B0FBF1F010BD083802400024F40043
:10315000001BB7002DE9F84F04006ED02078DFF88F
:103160004C93C007A9F104054AD009F10400016895
:10317000C1F38101012908D00068C0F38100022851
:103180000AD1D9F80000400206D52868800337D557
:1031900060680028E1D033E06068B0F5803F10D06F
:1031A000B0F5A02F286810D020F48030286028685F
:1031B00020F4802028606068A8B1FFF73BFE064637
:1031C0000DE0286840F48030F4E740F48020286067
:1031D000F7E700BFFFF72EFE801B642873D828682E
:1031E0008003F7D50CE0FFF725FE064605E000BF9B
:1031F000FFF720FE801B6428F0D828688003F7D4EE
:103200002078DFF8AC8280074FF0000A3ED5A7484F
:10321000001D016811F00C0F08D00068C0F3810098
:1032200002280BD1D9F80000400207D42868800793
:1032300016D5E068012800D112E033E1E068B8B1AA
:103240000120C8F80000FFF7F5FD064605E000BFC5
:10325000FFF7F0FD801B0228C0D828688007F7D54B
:103260002868216920F0F80040EAC10028600DE0DC
:10327000C8F800A0FFF7DEFD064604E0FFF7DAFD20
:10328000801B02281FD828688007F7D42078000701
:1032900022D5864F87486169703771B1012101607D
:1032A000FFF7C8FD064604E0FFF7C4FD801B0228B7
:1032B00009D838688007F7D50EE0C0F800A0FFF7FE
:1032C000B9FD064605E082E0FFF7B4FD801B022849
:1032D0007DD838688007F7D42078400768D5DFF8B4
:1032E000CCB100270BF13C0BDBF80000C0000BD485
:1032F000DBF8001041F08051CBF80010DBF8000043
:10330000012700F0805000906B4E3068C00510D44B
:10331000306840F480703060FFF78CFD009005E06D
:10332000FFF788FD0099401A022850D83068C00580
:10333000F6D55E4EA0686C3601280FD0052830689F
:1033400010D020F001003060306820F004003060C0
:10335000A068B8B1FFF76EFD00900FE0306840F054
:103360000100F4E740F004003060F7E7FFF762FD8A
:103370000099411A41F28830814266D8306880074E
:10338000F4D50EE0FFF756FD009007E0FFF752FD81
:103390000099411A41F28830814256D8306880073E
:1033A000F4D42FB1DBF8001021F08051CBF80010DD
:1033B000A069C8B33D49091D0968C1F3810102290B
:1033C0004AD00228504607D0C8F8600000E03CE030
:1033D000FFF730FD04463BE04746C8F86000FFF7C2
:1033E00029FD064605E000BFFFF724FD801B0228EB
:1033F0002BD828688001F7D4D4E907010843A16AD3
:103400002E4A490802EB0141626A41EA82110843EF
:1034100094F82C1040EA0161C9F8001001203866C8
:10342000FFF708FD044606E03EE000BFFFF702FD9F
:10343000001B022809D828688001F7D534E000BFB6
:10344000FFF7F8FC001B022802D90320BDE8F88F23
:1034500028688001F4D427E00128F7D0D9F80000CB
:10346000E26900F4800191421CD1226A00F03F0120
:10347000914217D147F6C071626A0140B1EB821FD9
:1034800010D1A26A4FF0FF3300F4403103EB520237
:10349000B1EB024F06D194F82C1000F07060B0EB45
:1034A000016F01D00120D1E70020CFE704380240AE
:1034B00000004742800E4742007000400000FFFFBE
:1034C00010B5401EB0F1807F01D3012010BD4FF038
:1034D000E02460610F21601701F0BFFB0020A061B4
:1034E00007202061002010BD10B590F83C20012A73
:1034F00022D0012280F83C20CA688C6822F44072F5
:1035000022434C6822F4806222430C6822F4006259
:1035100022430C6922F4805222434C6922F4005267
:103520002243C969002322F480420A4301684A64A5
:1035300080F83C30002010BD022010BD70B590F81E
:103540003C20012A32D0012480F83C40022280F83D
:103550003D2003685A689D6822F070060A6832436D
:103560005A60134B02689A4214D0B2F1804F11D0C6
:10357000104B9A420ED0104B9A420BD00F4B9A42EE
:1035800008D00F4B9A4205D00E4B9A4202D00E4BF8
:103590009A4204D1496825F080031943916080F86C
:1035A0003D40002180F83C10084670BD022070BDEF
:1035B000000001400004004000080040000C0040F2
:1035C00000040140004001400018004010B586B0E2
:1035D000044614216846FCF7CBFF236800211748F6
:1035E0000222B3F1804F17D0154CA34212D10368C9
:1035F00043F480730360006800F48070059020201D
:103600000090CDE901210320CDE9031069460D4862
:10361000FFF7ECFA06B010BD036843F00103036046
:10362000006800F0010005900F200090CDE9012115
:103630000120CDE9031069460348E9E7303802402C
:1036400000040140002002400000024070B5044622
:1036500090F83C0000260D4601280FD0012084F888
:103660003C006AB1042A1DD0082A2FD00C2A3FD072
:103670000126002084F83C00304670BD022070BD59
:10368000206800F0B3FF2068816941F00801816182
:103690002068816921F004018161206881692A69BB
:1036A000114311E0206800F0D1FF2068816941F4E6
:1036B000006181612068816921F4806181612068F5
:1036C00081692A6941EA02218161D2E7206800F01C
:1036D000F3FF2068C16941F00801C1612068C16938
:1036E00021F00401C1612068C1692A69114311E018
:1036F000206801F015F82068C16941F40061C161DA
:103700002068C16921F48061C1612068C1692A69AA
:1037100041EA0221C161ACE710B5040003D094F87E
:103720003D0010B107E0012010BD002084F83C00EE
:10373000204600F01FF8022084F83D00211D20687B
:1037400000F0F0FE012084F8460084F83E0084F882
:103750003F0084F8400084F8410084F8420084F877
:10376000430084F8440084F8450084F83D000020BC
:1037700010BD000008B50068B0F1804F0CD00B49B7
:10378000884208D10A48016841F0020101600068DE
:1037900000F00200009008BD0548001F016841F0DC
:1037A00001010160006800F00100F3E7000401403E
:1037B000443802407047016C090702D5006801686F
:1037C00040687047F8B5016804460868CA684B69E4
:1037D00010F00F0F4FF0000559D003F0010602F46E
:1037E0009077374365D0C10705D0D10503D5216C4B
:1037F00041F001012164410705D5D90703D0216CAF
:1038000041F002012164810705D5D90703D0216C5D
:1038100041F004012164010707D502F02001314382
:1038200003D0216C41F008012164216C00293AD0B9
:10383000800604D5900602D5204601F055F8206890
:103840004069216CC0F38010090700D460B32046A2
:1038500001F015F820684069400621D52068143031
:1038600050E8001F21F0400140E80012002AF5D185
:10387000A06BA8B16C490165A06BFFF713F8002895
:1038800011D0A06B016D01B0BDE8F0400847830680
:103890000FD593060DD52046BDE8F84001F024B8B9
:1038A0002046FFF788FFF8BD2046FFF784FF256418
:1038B000F8BD266B2023012E79D1C60677D5D60612
:1038C00075D50868486800904869400640D5A16BE6
:1038D000086840680004000CEAD0A28D8242E7D953
:1038E000E085C869B0F5807F2DD020680C3050E8A5
:1038F000001F21F4807140E80012002AF5D12068F1
:10390000143050E8001F21F0010140E80012002AA5
:10391000F5D12068143050E8001F21F0400140E844
:103920000012002AF5D184F83E30256320680C305F
:1039300050E8001F21F0100140E80012002AF5D1E4
:10394000A06BFEF766FFA08DE18D401A81B229E0E1
:10395000A08DE18D401A81B2E08D0028A8D0002909
:10396000A6D020680C3050E8002F22F4907240E876
:103970000026002EF5D12068143050E8002F22F0E8
:10398000010240E80026002EF5D184F83E30256380
:1039900020680C3050E8002F22F0100240E800238D
:1039A000002BF5D12046FFF705FFF8BDFFE7050620
:1039B0002BD5150629D594F83D002128F5D1A0680E
:1039C000B0F5805F01D12069B0B1206A411C21624D
:1039D000216800784860E08C401E0004000CE08400
:1039E000E3D12068C16821F08001C1602068C1680E
:1039F00041F04001C160D8E7206A0088C0F30800A8
:103A00004860206A801C2062E5E74006CDD550065C
:103A1000CBD5CA68204622F04002CA6084F83D3007
:103A200000F049FAC1E700008947000870B50400BA
:103A300004D094F83D00002510B106E0012070BDCF
:103A400084F83C50204600F023F8242084F83D0000
:103A50002068C16821F40051C160204600F0A4FF35
:103A60002068016921F4904101612068416921F0D9
:103A70002A0141612068C16841F40051C160256498
:103A8000202084F83D0084F83E00002070BD000036
:103A90002DE9F04F87B0054614216846FCF768FD14
:103AA0009B48DFF868821038D5F800C0DFF860B2B4
:103AB000022203210823DFF85CE2002406154FF000
:103AC00040094FF02067C44557D1DBF8008048F02B
:103AD0008048CBF80080DBF800C00CF0804CCDF8BB
:103AE00014C0D0F800C04CF0100CC0F800C0006842
:103AF00000F010000590CDE90313C8018DE8150012
:103B000069467046FFF772F8DFF810A28249504606
:103B1000B846C0E90346CAF81440CAF81840CAF8C3
:103B20001C40CAF820408AE80203CAF82440FEF785
:103B30009BFF08B1FEF7B4FA784F7748C5F834A078
:103B400060373030CAF838503860C7E90184C7E9B7
:103B500003467C61BC61FC613C6238467C62FEF7D6
:103B600083FF08B1FEF79CFAAF63002205215220C3
:103B7000BD63FFF7D1F952205FE0DFF8A481C445AF
:103B800060D1DBF80080A24648F00048CBF8008006
:103B9000DBF800C00CF0004CCDF814C0D0F800C029
:103BA0004CF0100CC0F800C0006800F01000059048
:103BB0008DE81600CDE9031369467046FFF716F845
:103BC000DFF85881544908F1C00878314046C8F8F8
:103BD0000010C0E90174C0E903468915C8F8144013
:103BE000C0E906414902C8E90814FEF73DFF08B1E3
:103BF000FEF756FA48484B4CC5F838801838C8F8D4
:103C0000385084E88102C4E903A6C4F814A04FF434
:103C10008031C4F818A0C4E907A12046C4F824A044
:103C2000FEF722FF08B1FEF73BFA6C630022052184
:103C30005320A563FFF770F95320FFF75FF907B032
:103C4000BDE8F08FDFF8E080C445F8D1DFF8C0C0F0
:103C50000CF1040CDCF8008048F02008CCF800805F
:103C6000DCF800C00CF0200CCDF814C0D0F800C077
:103C70004CF0400CC0F800C0006800F04000059017
:103C8000CDE903134FF484408DE8150069462748B9
:103C9000FEF7ACFFDFF88CA025490AF1600A504618
:103CA000CAF80010C0E90174C0E903468915CAF8D2
:103CB0001440C0E906414902CAE90814B846FEF7B3
:103CC000D3FE08B1FEF7ECF9164FC5F838A0C0379F
:103CD000CAF83850C7E9034615487C617830BC61A2
:103CE00087E801034FF48030C7E9074038467C621B
:103CF000FEF7BAFE08B1FEF7D3F96F630022052183
:103D00004720BD63FFF708F9472096E70078004099
:103D1000403802400010024028600240A004002009
:103D2000007C0040C0050020001401400018024043
:103D30002864024090F83E30202B0ED159B152B188
:103D400090F83C30012B08D0012380F83C30002350
:103D5000036300F0AFBE01207047022070470000EF
:103D600070B505460068224988421BD121490120CF
:103D70000023214C886003E003F11B003C2811DA8A
:103D8000E05C0D280BD1E01841780A2907D1817E2B
:103D90000A2904D1C17E0D2901D101F01DFA5B1C55
:103DA000212BE9DB15492868884220D1124C0023D9
:103DB0006434E05CA52817D1E01845785A2D13D05B
:103DC0008278191D5618222E0EDA2244515C5A2987
:103DD0000AD1022D02D0032D06D102E001F0E0F954
:103DE00002E00449007908705B1C222BE1DB70BD06
:103DF000007C004088000020304700200014014073
:103E0000704700002DE9F843044690F83D001F4636
:103E100016460D4620284CD1C5B1BEB194F83C00E1
:103E2000012846D0012084F83C004FF00008C4F877
:103E30004080212084F83D00FEF7FCFFA6848146E7
:103E4000E684A068B0F5805F03D004E00120BDE8FF
:103E5000F883206928B12E465FF0000584F83C8085
:103E60000EE00026FAE78021204600F06DFEA0B9A2
:103E7000AEB116F8010B21684860E08C401EE0846A
:103E8000E08C4B464FF0000200970028EBD14FF03A
:103E90004001204600F058FE30B10320D7E735F846
:103EA000020BC0F30800E6E7202084F83D00002064
:103EB000CDE70220CBE77047FEE700000F4810B5C2
:103EC0000D4901600321416000214FF410228160FF
:103ED000C0E903124FF40012426101764176817607
:103EE000C17601774177FEF74CFB002803D0BDE88F
:103EF0001040FEF7D5B810BD006400401C03002040
:103F0000214808B5016841F400110160016801F41D
:103F100000110091016841F48001016000680022F5
:103F200000F48000009005210B20FEF7F5FF0B2028
:103F3000FEF7E4FF002205210C20FEF7EDFF0C2028
:103F4000FEF7DCFF002205210E20FEF7E5FF0E2024
:103F5000FEF7D4FF002205211120FEF7DDFF11201E
:103F6000FEF7CCFF002205213920FEF7D5FF3920CE
:103F7000FEF7C4FF002205214520FEF7CDFFBDE876
:103F800008404520FEF7BABF3038024010B59CB05B
:103F90001C2216496846FCF7B9FA0021684601F070
:103FA000ACF9134C11491C22E0601C3107A8FCF746
:103FB000ADFA002107A801F0A0F90C4920601C22ED
:103FC00038310EA8FCF7A2FA00210EA801F095F9ED
:103FD0000649A0601C22543115A8FCF797FA00216D
:103FE00015A801F08AF960601CB010BD6067000878
:103FF0000000002030B587B014216846FCF7B8FAFD
:104000002E480024016841F010010160016801F0B0
:1040100010010591016841F040010160016801F063
:1040200040010591016841F001010160016801F062
:1040300001010591016841F008010160016801F08A
:1040400008010591016841F480710160016801F483
:1040500080710591016841F080010160016801F003
:1040600080010591016841F0020101600068144D72
:1040700000F002000590002202212846FEF7D5FE3E
:10408000042000904FF44410CDE9010469460D4826
:10409000FEF7ACFD01210220CDE90214CDE90001BB
:1040A00069462846FEF7A2FD002205210820FEF7FA
:1040B00033FF0820FEF722FF07B030BD3038024042
:1040C000001802400004024010B58AB00024079492
:1040D0001C2168460894FCF74BFA23484FF08041B6
:1040E0000160A721C0E9011444F61F61C0E903146F
:1040F0008461FFF711FB08B1FDF7D2FF079407A910
:1041000019480894FFF71AFA08B1FDF7C9FF6020B3
:1041100000904FF4FA60CDE901040022694612488C
:104120000494FFF793FA08B1FDF7BAFF0422694639
:104130000D48FFF78BFA08B1FDF7B2FF0822694678
:104140000948FFF783FA08B1FDF7AAFF0C22694678
:104150000548FFF77BFA08B1FDF7A2FF0248FFF719
:1041600035FA0AB010BD00004403002010B592B02B
:1041700000240F941C2108A81094FCF7F9F92021C1
:104180006846FCF7F5F921481F490160A721C0E9FD
:10419000011444F61F61C0E9031444618461FFF710
:1041A000BBFA08B1FDF77CFF0F940FA917481094D4
:1041B000FFF7C4F908B1FDF773FF602008904FF4D2
:1041C000FA60CDE909040B940C940D94002208A91F
:1041D0000E480E94FFF73AFA08B1FDF761FF00941C
:1041E0004FF40050CDE904400294019403946946D1
:1041F00006480794FFF778F908B1FDF751FF034827
:10420000FFF7E4F912B010BD000401408C03002058
:104210000C4810B50A4901604FF4E13141600021BA
:1042200081600C22C160C0E904128161C161FFF7A5
:10423000FDFB002803D0BDE81040FDF731BF10BDE5
:1042400000780040D40300200C4810B50A490160F2
:104250004FF4E1314160002181600C22C160C0E96E
:1042600004128161C161FFF7E1FB002803D0BDE8C2
:104270001040FDF715BF10BD007C00401804002061
:104280000C4810B50A4901604FF4E131416000214A
:1042900081600C22C160C0E904128161C161FFF735
:1042A000C5FB002803D0BDE81040FDF7F9BE10BDE6
:1042B000001401405C040020FEE7FEE7A0B1D0ED51
:1042C000101AC0ED111A90ED0F1A80ED101AC0ED02
:1042D000060A80ED070A30EEC00A80ED0F0A017869
:1042E00029B101293BD078E09FED3D0A7047D0ED20
:1042F000010A60EE801AC0ED091AD0ED0A0A90EDAD
:10430000022A42EE000A30EE410AC0ED0A0A90EDA0
:104310000D2A80ED0E2A90ED0C2A80ED0D2A80EDFD
:104320000C0A90ED031A21EE001A80ED0B1A90EDA5
:10433000050AF4EEC00AF1EE10FA09DCB1EE400A0B
:10434000F4EEC00AF1EE10FA02D390ED0A0A01E091
:1043500080ED0A0A31EE800A30EE010A2BE070EEA1
:10436000410A90ED012A20EE822A80ED092AD0ED43
:10437000020A60EE800AC0ED0A0AD0ED0D2A72EE44
:10438000200AC0ED0E2AD0ED0C2AC0ED0D2AF0EE69
:10439000002A01EE620A30EE210A80ED0C0A90ED4F
:1043A000031A21EE000A80ED0B0A30EE800AD0EDF0
:1043B000080A30EE200A80ED080AD0ED040AB4EEB7
:1043C000E00AF1EE10FA06DCF1EE600AB4EEE00A63
:1043D000F1EE10FA01D2C0ED080A90ED080A70471C
:1043E00000000000002828D0002A26D0017092ED9D
:1043F000001A80ED011A92ED011A80ED021A92ED79
:10440000021A80ED031A80ED040A9FED0C0AC0ED3C
:10441000050A80ED0E0A80ED0D0A80ED0C0A80ED94
:10442000080A80ED0B0A80ED0A0A80ED090A80ED8A
:10443000110A80ED100A80ED0F0A7047000000009D
:10444000012000F04DFFFBE730B5002300E05B1CCE
:10445000C45C002CFBD103E00D5DC5545B1C641CE7
:104460009442F9DB30BD10B5FEF7EAFC01F02CFDFB
:10447000012803D0BDE8104001F0AABC10BD000027
:1044800030B593B030216846FCF772F814210CA8BF
:10449000FCF76EF81D480025016841F0805101606D
:1044A000006800F0805011901948016841F44041C3
:1044B00001600068022400F4404011900120009047
:1044C000000401908001CDE9064006200890A82054
:1044D000CDE9090404200B906846FEF73BFE08B1C5
:1044E00072B6FEE70CA90F2081E831004FF4A0500E
:1044F0000F904FF48050109005210CA8FEF73EFD60
:10450000002801D072B6FEE713B030BD403802403B
:10451000007000400248016841F47001016070477A
:1045200088ED00E0F0B50268254C264D264E274F59
:10453000274B4FF0804CA04209D0604507D0A842DD
:1045400005D0B04203D0B84201D0984204D122F045
:10455000700E4A6842EA0E02A0421BD0604519D094
:10456000A84217D0B04215D0B84213D0984211D00B
:10457000184DA8420ED0184DA8420BD0174DA84296
:1045800008D0174DA84205D0164DA84202D0164DAE
:10459000A84203D122F44075CA682A434D6922F02B
:1045A00080022A4302608A68C2620A688262A0426C
:1045B00001D0984201D10969016301214161F0BD37
:1045C000000001400004004000080040000C0040D2
:1045D0000004014000400140004401400048014007
:1045E00000180040001C004000200040F0B5026AA6
:1045F00022F001020262036A42688469124E24F0CA
:1046000073050C682C4323F002058B682B430D4D7A
:10461000A84201D0B04205D123F00807CB683B4344
:1046200023F00403A84201D0B04205D14D6922F421
:10463000407215438A692A43426084614968416334
:104640000362F0BD0000014000040140F0B5026AC1
:1046500022F010020262026A436884690D6824F441
:10466000E64444EA05248D6822F0200242EA05125D
:104670000F4D104EA84201D0B04206D1CF6822F0B3
:10468000800242EA071222F04002A84201D0B04262
:1046900007D14D6923F4406343EA85038D6943EAFA
:1046A000850343608461496881630262F0BD000054
:1046B0000000014000040140F0B5026A22F480725B
:1046C0000262026A4368C46922F4007224F073052E
:1046D0000C68124E2C438D6842EA05220E4DA8420A
:1046E00001D0B04206D1CF6822F4006242EA07222C
:1046F00022F48062A84201D0B04207D14D6923F470
:10470000405343EA05138D6943EA05134360C461CE
:104710004968C1630262F0BD00000140000401402D
:1047200030B5026A22F480520262046A4268C369A8
:104730000D6823F4E64343EA05238D6824F400540E
:1047400044EA0534084DA84202D0084DA84204D1DD
:104750004D6922F4804242EA85124260C361496891
:104760000164046230BD000000000140000401400B
:104770000148FFF727B80000D40300200148FFF7E5
:1047800021B800001804002010B5806B0021C185FD
:10479000C184FFF710F810BD70B5846B20684069C4
:1047A00094F83D10C0F3C0100025212904D118B1A0
:1047B000E584204600F08AF82068406994F83E10AD
:1047C000C0F38010222904D118B1E585204600F0FD
:1047D00056F8206C40F0100020642046FEF7EBFFF6
:1047E00070BD10B50146806B09680968C9052FD4F2
:1047F0000021C18501680C3151E8002F22F480723C
:1048000041E80023002BF5D10168143151E8002F55
:1048100022F0010241E80023002BF5D10168143198
:1048200051E8002F22F0400241E80023002BF5D18F
:10483000202180F83E10016B012909D101680C315B
:1048400051E8002F22F0100241E80023002BF5D19F
:10485000016B012902D0FFF783FA10BD818DFEF7AD
:10486000A9FF10BD10B5806B016B012902D0FFF7C5
:10487000C7FA10BD818D4908FEF79CFF10BD016885
:104880000C3151E8002F22F4907241E80023002BF4
:10489000F5D10168143151E8002F22F0010241E8FE
:1048A0000023002BF5D1016B012909D101680C31DE
:1048B00051E8002F22F0100241E80023002BF5D12F
:1048C000202180F83E1000210163704701680C31FF
:1048D00051E8002F22F0C00241E80023002BF5D15F
:1048E000202180F83D10704708B590F83E1022292D
:1048F00001D0022008BD82684FF480539A4201D152
:10490000016921B1816A9A421BD04AB10AE002686A
:10491000816A5268C2F308020A80816A891C08E031
:10492000026972B10268526802F07F020A70816AFD
:10493000491C8162C18D491E0904090CC18503D03F
:1049400019E002685268F1E70168CA6822F02002A3
:10495000CA600168CA6822F48072CA6001684A6944
:1049600022F001024A61202180F83E10016B0129EA
:1049700003D0FFF7F5F9002008BD002101630168AD
:104980000C3151E8002F22F0100241E80023002BE7
:10499000F5D101680A68D20602D50A684968009113
:1049A000818DFEF707FFE6E770B5044600680169F0
:1049B000E26821F44051114301612169A068E26974
:1049C00008436169114308432168CA6849F20C63CE
:1049D0009A430243CA6020684169A26921F4407188
:1049E0001143416131492068884202D030498842F0
:1049F00002D1FEF76DFB01E0FEF75AFBE2690023EE
:104A0000192164253226B2F5004F626828D0A0FB38
:104A10000101930F9200FBF7EFFC0146B0FBF5F0AC
:104A20006FF01802504301EB800006EB0010B0FB62
:104A3000F5F000F0F002B1FBF5F002EB0012B1FB73
:104A4000F5F06FF01803584301EB800006EB0010FF
:104A5000B0FBF5F000F00F0021681044886070BDD5
:104A6000A0FB010192185B41FBF7C6FC0146B0FBBD
:104A7000F5F00201B1FBF5F06FF01803584301EBBC
:104A8000800006EBC000B0FBF5F000F0F80002EB90
:104A90004002B1FBF5F0584301EB800006EBC0008B
:104AA000B0FBF5F000F00700D6E700000010014071
:104AB0000014014038B58162828500251346044602
:104AC0000564222084F83E00A26B1C48D063A26BD0
:104AD0001B481064A26B1B48D064A06B0A46056596
:104AE0002168A06B091DFEF729F82068016840685D
:104AF000009084F83C50206948B120680C3050E8A0
:104B0000001F41F4807140E80012002AF5D12068AE
:104B1000143050E8001F41F0010140E80012002A63
:104B2000F5D12068143050E8001F41F0400140E802
:104B30000012002AF5D1002038BD0000E34700082C
:104B400065480008994700082DE9F0419846174646
:104B50000E460446069D27E0681C25D02DB1FEF7C1
:104B600069F9A0EB0800A8421ED920680C3050E873
:104B7000001F21F4D07140E80012002AF5D120680E
:104B8000143050E8001F21F0010140E80012002A13
:104B9000F5D1202084F83D0084F83E00002084F800
:104BA0003C000320BDE8F0812068006836EA000080
:104BB00004D00020B842CFD00020F3E70120F9E76D
:104BC0000148FEF7FFBD00005C0400201CB5134A3D
:104BD0007828D2E90012CDE9001206D0582804D076
:104BE000792804D0592802D004E0582000E0592048
:104BF0008DF803000A480422014680ED000A684649
:104C0000FFF722FC6423082269460648FFF7FAF8FA
:104C10000821684600F084FE1CBD0000FC67000807
:104C20009C00002018040020FEE703B40198410016
:104C3000009850EAC12018BF04204A0D18BF40F068
:104C4000010040F2FF72B2EB515F08BF40F002007A
:104C5000012808BF052002B070470907090E002887
:104C600004DB00F1E02080F80014704700F00F0032
:104C700000F1E02080F8141D704730380A2801D276
:104C8000012070470020704770B52A4C2DED088B2D
:104C9000B0EE00AA94ED000ADFED27AA9FED27BA37
:104CA00020EE0A0A60EE2A0A80EE8B0AFCF73EFD2F
:104CB00010EE100A01F0D4FC9FED218B53EC182B61
:104CC00001F0E6FA41EC190BE06801F0C9FC53EC85
:104CD000192B01F035FA01F001FA04F124052860DE
:104CE00094ED000A20EE0A0A60EE2A0A80EE8B0A92
:104CF000FCF7CCFC10EE100A01F0B2FC53EC182BC0
:104D000001F0C6FA41EC190B206901F0A9FC53EC43
:104D1000192B01F0BBFB53EC182B01F011FA01F039
:104D2000DDF96860206800EE100A85ED020ABDEC2E
:104D3000088B70BDBC470020DB0F49400000B44326
:104D4000AAD258F3CA3D4CC000B58BB00020012157
:104D5000CDE9060108910090019002900390059022
:104D6000049069460548FDF713FA0448FDF71EFD57
:104D700002210248FDF796F90BB000BD1C0300208C
:104D800010B5124800F064F81048103090ED030A96
:104D9000BDEEC00A10EE101A90ED020A0BB2BDEE85
:104DA000C00A10EE101A90ED010A0AB2BDEEC00A58
:104DB00010EE101A90ED000ABDE81040BDEEC00ADA
:104DC00009B210EE100A00B2FDF7CCB8D0430020B3
:104DD0002DE9F041184D00242DED048BA5F130068E
:104DE000A5F120079FED159ADFED158A9FED158A35
:104DF00004EBC40005EBC000F0EE490AB0EE680A0F
:104E0000114A0021FFF7EEFA06EB840080ED008ADC
:104E1000E0B200F01BFA47F82400641C042CE7DB26
:104E2000BDEC048BB7EE000ABDE8F0410248DFEDAF
:104E3000070A103800F0FCB91044002000007A4442
:104E400000803B4600000000F06700080000484278
:104E50002DE9F04706461848816801EE101A4168AE
:104E6000006800EE901A00EE100A00F031F8DFF84A
:104E70004C80002408F12007A7F1300906EB8400DC
:104E8000D0ED000A58F82400B0F9020000EE100A34
:104E900004EBC40007EBC005B8EEC00A2846FFF7D4
:104EA0000DFA09EB840095ED080A641C80ED000AF8
:104EB000042CE3DBBDE8F087D4470020F04300205A
:104EC000FFF786FFFFF75CFF052000F009FAF9E71E
:104ED000B2EE043A9FED2A2A21EE031A60EE031A7D
:104EE00060EE830A2B4821EE022AB0EE001A20EE73
:104EF000430A22EE012A9FED231A30EE600A22EEC9
:104F0000012A9FED211AC2EE012A31EEE01A31EE9C
:104F1000622A9FED1E1A30EE620AC2EE013A9FED40
:104F20001C2A63EE823AFDEEE33AF8EEE33AC0ED76
:104F3000003A71EEA03A70EEE11AC0EE010A33EECB
:104F4000E24AC4EE013A20EE820ABDEEC00AB8EE93
:104F5000C00A63EE823AFDEEE33AF8EEE33AC0EDC2
:104F6000013A71EEE23AC3EE811A61EE821AFDEE69
:104F7000E11AF8EEE11AC0ED021A80ED030A70475B
:104F800000004842DB0F49400000B443DD7E3C4353
:104F900000007042D043002010B540F6B83000F059
:104FA0009FF905488189491C09B28181BDE81040FB
:104FB00002A000F03FBC0000E047002061726D31AC
:104FC00020616C72656164792067726170A3AC6E58
:104FD0006F772073747566665F6E756D3A25640D24
:104FE0000000000010B540F6B83000F079F905482F
:104FF0008189491C09B28181BDE8104002A000F0FE
:1050000019BC0000E047002061726D3220616C72B3
:10501000656164792067726170A3AC6E6F772073ED
:10502000747566665F6E756D3A25640D000000004C
:1050300010B540F6B83000F053F905488189491E93
:1050400009B28181BDE8104002A000F0F3BB00006E
:10505000E047002061726D3220616C726561647995
:1050600020706C61636531A3AC6E6F7720737475CB
:1050700066665F6E756D3A25640D000010B540F6EA
:10508000B83000F02DF905488189491E09B28181A7
:10509000BDE8104002A000F0CDBB0000E0470020BA
:1050A00061726D3220616C726561647920706C612F
:1050B000636532A3AC6E6F772073747566665F6E3E
:1050C000756D3A25640D000086B000F057F8234E48
:1050D000234C244DDFF89080002704213046FDF753
:1050E0009FFE6178884213D004213046FDF798FE78
:1050F000607004213046FDF793FE012808D11BA003
:1051000000F0ECFBAF819FED1B0A5920FFF75EFD1D
:10511000A068C0B1012202214046FDF786FE95EC51
:10512000030A0E22B5F90C300121684600F066F83A
:105130006423132269461048FEF764FE1321684673
:1051400000F020FCA760FFF79FFD142000F0C8F8D6
:10515000002202214046FDF768FEBEE7000402403F
:1051600088000020E04700200018024041435430EE
:105170000000000058EE61C25C04002010B500F091
:10518000A5F800F099F803A000F0A8FB03496420FB
:10519000888110BD4143543000000000E0470020EA
:1051A0000C4902790A7042794A7082798A70C27910
:1051B000CA70027A0A71427A4A71827A8A71C27A14
:1051C000CA71027B0A72427B4A72827B8A72C07BFE
:1051D000C8727047D4470020074950F8022FCA60B0
:1051E00042680A6182684A61C2688A610269CA616A
:1051F0004069086270470000B04700203FB5A52510
:105200002DED040B10EE104A10EE903A057041702F
:10521000BDF81810418011EE102A44608360C2600E
:10522000BDF81C1001825A21817408B030BD000005
:1052300080ED030A9FED040AC0ED020A80ED000A2A
:1052400080ED010A704700000000000000F003003C
:10525000024900EB800001EB40007047F04700205E
:10526000FDF7F6FDFFF70CF9FEF7C4FEFEF748FE6A
:10527000FEF7EAFFFFF704F8FEF720FEFEF724FF33
:10528000FEF774FFFEF7C4FFFFF75EFDFEF77EFE3C
:1052900000F02EF803A000F0CDFA1420FDF786FCF4
:1052A000F8E700006F6B0D0A000000000021842861
:1052B00000D0C11C08467047222202490248FEF76E
:1052C00039BD0000944700205C0400203C220249C4
:1052D0000248FEF72FBD00003047002018040020D0
:1052E00010B5002800D1012000F04CFC002010BDBA
:1052F00010B500F06FFC002010BD30B585B004463D
:105300000D466169B4F90800002910D0A16971B196
:10531000FFF7CCFF6269A1690192029100902B46D0
:1053200022692168606800F09FFD049010E0FFF79B
:10533000BDFF04A901910090208A2B4682B221680A
:10534000606800F05BFD012802D005B0002030BD90
:10535000049805B030BD00002DE9F04104460F4629
:10536000194EF5683068001D00F03EFB48B9306802
:10537000012190F82C0001FA00F0316921EA0000C7
:105380003061B4F1FF3F07D137B13068BDE8F0417B
:10539000011D0E4800F06FBB2C4430684460AC42E5
:1053A00006D23068011DB06BBDE8F04100F048BB8B
:1053B0003068011D706B00F043FBB06A844200D27C
:1053C000B462BDE8F081000020000020BC0700208E
:1053D00070B5044600F05CFB1C4DA868401CA8603A
:1053E000286810B1686938B10CE02C60A868012801
:1053F00008D100F0EDF805E02868E16AC06A88424B
:1054000000D82C60686A401C6862E06A01212A6941
:105410008140114329610E4900EB800001EB8000BF
:10542000211D00F028FB00F053FB686900280CD018
:105430002868E16AC06A884207D206494FF0805066
:105440000860BFF34F8FBFF36F8F70BD2000002047
:10545000E006002004ED00E070B50D4C6068002807
:1054600015D00C4E00F014FBF068C568281D00F044
:10547000BBFAA068401EA0606068401E606000F03B
:1054800027FB284600F008F860680028EAD170BDC4
:1054900020000020A807002010B5044694F8511001
:1054A00000290BD0012911D0022914D0502080F3FB
:1054B0001188BFF34F8FBFF36F8FFEE7206B00F0B3
:1054C0001DFB2046BDE8104000F018BB2046BDE89B
:1054D000104000F013BB10BD4FF47051104810F095
:1054E000070F06D0C01D20F007000D49411AC1F575
:1054F00070510C4A1060002353600144083921F0B8
:105500000701183A11604B600B600B1A4360016091
:105510004068906050604FF000405061704700005C
:10552000D007002074000020074E4FF08054074D34
:10553000FFF792FF30680128FAD92C60BFF34F8F34
:10554000BFF36F8FF4E70000E006002004ED00E0F9
:105550002DE9F0478146099E089D0A9C9A46521EF5
:10556000206B00EB820020F00708002700290CD0F8
:10557000002023180A5C83F834200A5C12B1401C16
:105580001028F6D384F8437001E084F83470072DB6
:1055900000D30625E5626564A764201D00F04DFA7E
:1055A00004F1180000F049FA2461C5F10700A06178
:1055B0006462E76484F8507052464946404600F001
:1055C00003F92060002E00D03460BDE8F0870000B1
:1055D00070B500240F4D04EB840005EB800000F053
:1055E00021FA641C072CF6D30B4800F01BFA0B4879
:1055F00000F018FA0A4800F015FA0A4800F012FA0A
:10560000094800F00FFA09480349416314318163E6
:1056100070BD0000E00600206C070020800700201D
:1056200094070020A8070020BC07002020000020CD
:1056300010B4144900E011460A688242FBD34B685B
:1056400003EB010C844503D14068184448600846C8
:105650000C68D0F804C00CEB0003A3420CD10A4B39
:105660001B689A4206D05268624442600A68126817
:10567000026002E0036000E00260814200D0086046
:1056800010BC7047740000205C0000200749486B84
:105690000068002805D0486BC068C0684068886210
:1056A00070474FF0FF3088627047000020000020F4
:1056B0000A484068B0F1FF3F07D0502080F31188BE
:1056C000BFF34F8FBFF36F8FFEE7502080F3118839
:1056D000BFF34F8FBFF36F8FFEE700007C00002009
:1056E0002DE9F0410546002600F0B8FA344F38683D
:1056F00008B9FFF7F1FE7869054251D19DB108352F
:1057000015F0070F0FD005F00700C0F108000544A1
:1057100015F0070F07D0502080F31188BFF34F8F8B
:10572000BFF36F8FFEE7002D3AD07868854237D8F7
:1057300024490846046801E0214604466068A842FE
:1057400002D220680028F7D13868844228D008683F
:1057500000F10806206808606068411B10290FD915
:10576000601910F0070F07D0502080F31188BFF3A5
:105770004F8FBFF36F8FFEE741606560FFF758FF03
:1057800061687868401A7860BA68904200D2B86060
:1057900078690843606000202060F868401CF86069
:1057A00000F00AFC16F0070F07D0502080F3118894
:1057B000BFF34F8FBFF36F8FFEE73046BDE8F08138
:1057C0005C00002074000020001F4FF08073036015
:1057D000001F21F001010160001F0549016014381C
:1057E0000260001F6FF00201016020387047000066
:1057F000B15600080E4C25782078A84213D0012815
:1058000006D0022807D0032808D004280BD108E0CE
:10581000FFF7C2FB07E0FFF7E5FB04E0FFF708FC3A
:1058200001E0FFF72BFC1420FFF75AFDE4E700002E
:10583000880000200FB40E4870B50C4C05AAA4F1E6
:105840000C0522600499FAF74FFE82B26A800020AC
:105850002060642306490748FEF7D4FA69880448A3
:1058600000F00AF870BC5DF814FB00009400002002
:1058700030450020D403002070B5154A13681C6819
:1058800024F001041C6013681C68E407F7D1114E72
:10589000F414B34202D90F4D4C3D04E00E4DAB421F
:1058A00003D90C4D503D2C6008E00B4E0A4D603E74
:1058B000B83DB34201D9EC6000E0AC60D86010683C
:1058C00041601068016841F00101016070BD000095
:1058D000A004002058640240B86002400FB40E4893
:1058E00070B50C4C05AAA4F1100522600499FAF7D2
:1058F000FBFD82B2AA80002020606423064907488D
:10590000FEF780FAA988044800F00AF870BC5DF838
:1059100014FB0000980000203046002018040020EE
:1059200070B5154A13681C6824F001041C601368E4
:105930001C68E407F7D1114E2024B34202D90F4D61
:105940004C3D04E00E4DAB4203D90C4D503D2C6054
:1059500008E00B4E0A4D603EB83DB34201D9EC6001
:1059600000E0AC60D860106841601068016841F0E8
:105970000101016070BD0000C005002058640240B4
:10598000B860024070B5154A13681C6824F0010421
:105990001C6013681C68E407F7D1114E4FF4001423
:1059A000B34202D90E4D4C3D04E00E4DAB4203D93B
:1059B0000B4D503D2C6008E00A4E0A4D603EB83D4C
:1059C000B34201D9EC6000E0AC60D860106841607F
:1059D0001068016841F00101016070BD800600207F
:1059E00058640240B86002400169436882689A6066
:1059F000836842685A604A68824201D182684A607C
:105A0000002202610868401E0860086870470000B4
:105A1000034B036003F1540008608020106070475E
:105A2000C800002000F1080141604FF0FF328260A1
:105A3000C160016100210160704700210161704770
:105A400010B4D1F800C0BCF1FF3F02D000F1080251
:105A500002E0026904E01A4653681C686445FAD9FA
:105A600053684B6099608A60516008610168491C05
:105A7000016010BC704742684A6093688B6093680D
:105A80005960916008610168491C0160704700001D
:105A9000502080F31188BFF34F8FBFF36F8F0A49F7
:105AA0004868401C486001280CD10848006810F084
:105AB000FF0F07D0502080F31188BFF34F8FBFF343
:105AC0006F8FFEE7704700007C00002004ED00E0CF
:105AD00009494868002806D0401E4860002801D1C6
